{
  "_format": "hh-sol-artifact-1",
  "contractName": "UpliftNFT",
  "sourceName": "contracts/tokens/UpliftNFT.sol",
  "abi": [
    {
      "inputs": [
        {
          "internalType": "string",
          "name": "_baseURI",
          "type": "string"
        }
      ],
      "stateMutability": "nonpayable",
      "type": "constructor"
    },
    {
      "anonymous": false,
      "inputs": [
        {
          "indexed": true,
          "internalType": "address",
          "name": "owner",
          "type": "address"
        },
        {
          "indexed": true,
          "internalType": "address",
          "name": "approved",
          "type": "address"
        },
        {
          "indexed": true,
          "internalType": "uint256",
          "name": "tokenId",
          "type": "uint256"
        }
      ],
      "name": "Approval",
      "type": "event"
    },
    {
      "anonymous": false,
      "inputs": [
        {
          "indexed": true,
          "internalType": "address",
          "name": "owner",
          "type": "address"
        },
        {
          "indexed": true,
          "internalType": "address",
          "name": "operator",
          "type": "address"
        },
        {
          "indexed": false,
          "internalType": "bool",
          "name": "approved",
          "type": "bool"
        }
      ],
      "name": "ApprovalForAll",
      "type": "event"
    },
    {
      "anonymous": false,
      "inputs": [
        {
          "indexed": true,
          "internalType": "address",
          "name": "from",
          "type": "address"
        },
        {
          "indexed": true,
          "internalType": "address",
          "name": "to",
          "type": "address"
        },
        {
          "indexed": true,
          "internalType": "uint256",
          "name": "tokenId",
          "type": "uint256"
        }
      ],
      "name": "Transfer",
      "type": "event"
    },
    {
      "stateMutability": "payable",
      "type": "fallback"
    },
    {
      "inputs": [
        {
          "internalType": "address",
          "name": "to",
          "type": "address"
        },
        {
          "internalType": "uint256",
          "name": "tokenId",
          "type": "uint256"
        }
      ],
      "name": "approve",
      "outputs": [],
      "stateMutability": "nonpayable",
      "type": "function"
    },
    {
      "inputs": [
        {
          "internalType": "address",
          "name": "owner",
          "type": "address"
        }
      ],
      "name": "balanceOf",
      "outputs": [
        {
          "internalType": "uint256",
          "name": "",
          "type": "uint256"
        }
      ],
      "stateMutability": "view",
      "type": "function"
    },
    {
      "inputs": [],
      "name": "baseTokenURI",
      "outputs": [
        {
          "internalType": "string",
          "name": "",
          "type": "string"
        }
      ],
      "stateMutability": "view",
      "type": "function"
    },
    {
      "inputs": [
        {
          "internalType": "uint256",
          "name": "tokenId",
          "type": "uint256"
        }
      ],
      "name": "getApproved",
      "outputs": [
        {
          "internalType": "address",
          "name": "",
          "type": "address"
        }
      ],
      "stateMutability": "view",
      "type": "function"
    },
    {
      "inputs": [
        {
          "internalType": "address",
          "name": "owner",
          "type": "address"
        },
        {
          "internalType": "address",
          "name": "operator",
          "type": "address"
        }
      ],
      "name": "isApprovedForAll",
      "outputs": [
        {
          "internalType": "bool",
          "name": "",
          "type": "bool"
        }
      ],
      "stateMutability": "view",
      "type": "function"
    },
    {
      "inputs": [],
      "name": "maxTokenIds",
      "outputs": [
        {
          "internalType": "uint256",
          "name": "",
          "type": "uint256"
        }
      ],
      "stateMutability": "view",
      "type": "function"
    },
    {
      "inputs": [],
      "name": "mint",
      "outputs": [],
      "stateMutability": "payable",
      "type": "function"
    },
    {
      "inputs": [],
      "name": "name",
      "outputs": [
        {
          "internalType": "string",
          "name": "",
          "type": "string"
        }
      ],
      "stateMutability": "view",
      "type": "function"
    },
    {
      "inputs": [
        {
          "internalType": "uint256",
          "name": "tokenId",
          "type": "uint256"
        }
      ],
      "name": "ownerOf",
      "outputs": [
        {
          "internalType": "address",
          "name": "",
          "type": "address"
        }
      ],
      "stateMutability": "view",
      "type": "function"
    },
    {
      "inputs": [
        {
          "internalType": "address",
          "name": "from",
          "type": "address"
        },
        {
          "internalType": "address",
          "name": "to",
          "type": "address"
        },
        {
          "internalType": "uint256",
          "name": "tokenId",
          "type": "uint256"
        }
      ],
      "name": "safeTransferFrom",
      "outputs": [],
      "stateMutability": "nonpayable",
      "type": "function"
    },
    {
      "inputs": [
        {
          "internalType": "address",
          "name": "from",
          "type": "address"
        },
        {
          "internalType": "address",
          "name": "to",
          "type": "address"
        },
        {
          "internalType": "uint256",
          "name": "tokenId",
          "type": "uint256"
        },
        {
          "internalType": "bytes",
          "name": "_data",
          "type": "bytes"
        }
      ],
      "name": "safeTransferFrom",
      "outputs": [],
      "stateMutability": "nonpayable",
      "type": "function"
    },
    {
      "inputs": [
        {
          "internalType": "address",
          "name": "operator",
          "type": "address"
        },
        {
          "internalType": "bool",
          "name": "approved",
          "type": "bool"
        }
      ],
      "name": "setApprovalForAll",
      "outputs": [],
      "stateMutability": "nonpayable",
      "type": "function"
    },
    {
      "inputs": [
        {
          "internalType": "bytes4",
          "name": "interfaceId",
          "type": "bytes4"
        }
      ],
      "name": "supportsInterface",
      "outputs": [
        {
          "internalType": "bool",
          "name": "",
          "type": "bool"
        }
      ],
      "stateMutability": "view",
      "type": "function"
    },
    {
      "inputs": [],
      "name": "symbol",
      "outputs": [
        {
          "internalType": "string",
          "name": "",
          "type": "string"
        }
      ],
      "stateMutability": "view",
      "type": "function"
    },
    {
      "inputs": [],
      "name": "tokenId",
      "outputs": [
        {
          "internalType": "uint256",
          "name": "",
          "type": "uint256"
        }
      ],
      "stateMutability": "view",
      "type": "function"
    },
    {
      "inputs": [
        {
          "internalType": "uint256",
          "name": "tokenId",
          "type": "uint256"
        }
      ],
      "name": "tokenURI",
      "outputs": [
        {
          "internalType": "string",
          "name": "",
          "type": "string"
        }
      ],
      "stateMutability": "view",
      "type": "function"
    },
    {
      "inputs": [
        {
          "internalType": "address",
          "name": "from",
          "type": "address"
        },
        {
          "internalType": "address",
          "name": "to",
          "type": "address"
        },
        {
          "internalType": "uint256",
          "name": "tokenId",
          "type": "uint256"
        }
      ],
      "name": "transferFrom",
      "outputs": [],
      "stateMutability": "nonpayable",
      "type": "function"
    },
    {
      "inputs": [],
      "name": "upliftDAO",
      "outputs": [
        {
          "internalType": "address",
          "name": "",
          "type": "address"
        }
      ],
      "stateMutability": "view",
      "type": "function"
    },
    {
      "stateMutability": "payable",
      "type": "receive"
    }
  ],
  "bytecode": "0x60806040526127106009553480156200001757600080fd5b506040516200303c3803806200303c83398181016040528101906200003d919062000268565b6040518060400160405280600a81526020017f55706c6966742044414f000000000000000000000000000000000000000000008152506040518060400160405280600381526020017f55504400000000000000000000000000000000000000000000000000000000008152508160009080519060200190620000c192919062000146565b508060019080519060200190620000da92919062000146565b5050508060089080519060200190620000f592919062000146565b5033600a60006101000a81548173ffffffffffffffffffffffffffffffffffffffff021916908373ffffffffffffffffffffffffffffffffffffffff1602179055506000600781905550506200041d565b828054620001549062000342565b90600052602060002090601f016020900481019282620001785760008555620001c4565b82601f106200019357805160ff1916838001178555620001c4565b82800160010185558215620001c4579182015b82811115620001c3578251825591602001919060010190620001a6565b5b509050620001d39190620001d7565b5090565b5b80821115620001f2576000816000905550600101620001d8565b5090565b60006200020d6200020784620002d6565b620002ad565b9050828152602081018484840111156200022657600080fd5b620002338482856200030c565b509392505050565b600082601f8301126200024d57600080fd5b81516200025f848260208601620001f6565b91505092915050565b6000602082840312156200027b57600080fd5b600082015167ffffffffffffffff8111156200029657600080fd5b620002a4848285016200023b565b91505092915050565b6000620002b9620002cc565b9050620002c7828262000378565b919050565b6000604051905090565b600067ffffffffffffffff821115620002f457620002f3620003dd565b5b620002ff826200040c565b9050602081019050919050565b60005b838110156200032c5780820151818401526020810190506200030f565b838111156200033c576000848401525b50505050565b600060028204905060018216806200035b57607f821691505b60208210811415620003725762000371620003ae565b5b50919050565b62000383826200040c565b810181811067ffffffffffffffff82111715620003a557620003a4620003dd565b5b80604052505050565b7f4e487b7100000000000000000000000000000000000000000000000000000000600052602260045260246000fd5b7f4e487b7100000000000000000000000000000000000000000000000000000000600052604160045260246000fd5b6000601f19601f8301169050919050565b612c0f806200042d6000396000f3fe60806040526004361061010d5760003560e01c80636352211e11610095578063b810cf2b11610064578063b810cf2b14610364578063b88d4fde1461038f578063c87b56dd146103b8578063d547cfb7146103f5578063e985e9c51461042057610114565b80636352211e1461029657806370a08231146102d357806395d89b4114610310578063a22cb4651461033b57610114565b80631249c58b116100dc5780631249c58b146101e457806317d70f7c146101ee57806323b872dd1461021957806342842e0e146102425780635f7696211461026b57610114565b806301ffc9a71461011657806306fdde0314610153578063081812fc1461017e578063095ea7b3146101bb57610114565b3661011457005b005b34801561012257600080fd5b5061013d60048036038101906101389190611d13565b61045d565b60405161014a9190612119565b60405180910390f35b34801561015f57600080fd5b5061016861053f565b6040516101759190612134565b60405180910390f35b34801561018a57600080fd5b506101a560048036038101906101a09190611d65565b6105d1565b6040516101b291906120b2565b60405180910390f35b3480156101c757600080fd5b506101e260048036038101906101dd9190611cd7565b610656565b005b6101ec61076e565b005b3480156101fa57600080fd5b506102036107da565b6040516102109190612356565b60405180910390f35b34801561022557600080fd5b50610240600480360381019061023b9190611bd1565b6107e0565b005b34801561024e57600080fd5b5061026960048036038101906102649190611bd1565b610840565b005b34801561027757600080fd5b50610280610860565b60405161028d9190612356565b60405180910390f35b3480156102a257600080fd5b506102bd60048036038101906102b89190611d65565b610866565b6040516102ca91906120b2565b60405180910390f35b3480156102df57600080fd5b506102fa60048036038101906102f59190611b6c565b610918565b6040516103079190612356565b60405180910390f35b34801561031c57600080fd5b506103256109d0565b6040516103329190612134565b60405180910390f35b34801561034757600080fd5b50610362600480360381019061035d9190611c9b565b610a62565b005b34801561037057600080fd5b50610379610a78565b60405161038691906120b2565b60405180910390f35b34801561039b57600080fd5b506103b660048036038101906103b19190611c20565b610a9e565b005b3480156103c457600080fd5b506103df60048036038101906103da9190611d65565b610b00565b6040516103ec9190612134565b60405180910390f35b34801561040157600080fd5b5061040a610c52565b6040516104179190612134565b60405180910390f35b34801561042c57600080fd5b5061044760048036038101906104429190611b95565b610ce0565b6040516104549190612119565b60405180910390f35b60007f80ac58cd000000000000000000000000000000000000000000000000000000007bffffffffffffffffffffffffffffffffffffffffffffffffffffffff1916827bffffffffffffffffffffffffffffffffffffffffffffffffffffffff1916148061052857507f5b5e139f000000000000000000000000000000000000000000000000000000007bffffffffffffffffffffffffffffffffffffffffffffffffffffffff1916827bffffffffffffffffffffffffffffffffffffffffffffffffffffffff1916145b80610538575061053782610d74565b5b9050919050565b60606000805461054e9061257b565b80601f016020809104026020016040519081016040528092919081815260200182805461057a9061257b565b80156105c75780601f1061059c576101008083540402835291602001916105c7565b820191906000526020600020905b8154815290600101906020018083116105aa57829003601f168201915b5050505050905090565b60006105dc82610dde565b61061b576040517f08c379a0000000000000000000000000000000000000000000000000000000008152600401610612906122b6565b60405180910390fd5b6004600083815260200190815260200160002060009054906101000a900473ffffffffffffffffffffffffffffffffffffffff169050919050565b600061066182610866565b90508073ffffffffffffffffffffffffffffffffffffffff168373ffffffffffffffffffffffffffffffffffffffff1614156106d2576040517f08c379a00000000000000000000000000000000000000000000000000000000081526004016106c990612316565b60405180910390fd5b8073ffffffffffffffffffffffffffffffffffffffff166106f1610e4a565b73ffffffffffffffffffffffffffffffffffffffff161480610720575061071f8161071a610e4a565b610ce0565b5b61075f576040517f08c379a000000000000000000000000000000000000000000000000000000000815260040161075690612216565b60405180910390fd5b6107698383610e52565b505050565b600954600754106107b4576040517f08c379a00000000000000000000000000000000000000000000000000000000081526004016107ab906122f6565b60405180910390fd5b6107c033600754610f0b565b600760008154809291906107d3906125de565b9190505550565b60075481565b6107f16107eb610e4a565b82610f29565b610830576040517f08c379a000000000000000000000000000000000000000000000000000000000815260040161082790612336565b60405180910390fd5b61083b838383611007565b505050565b61085b83838360405180602001604052806000815250610a9e565b505050565b60095481565b6000806002600084815260200190815260200160002060009054906101000a900473ffffffffffffffffffffffffffffffffffffffff169050600073ffffffffffffffffffffffffffffffffffffffff168173ffffffffffffffffffffffffffffffffffffffff16141561090f576040517f08c379a000000000000000000000000000000000000000000000000000000000815260040161090690612256565b60405180910390fd5b80915050919050565b60008073ffffffffffffffffffffffffffffffffffffffff168273ffffffffffffffffffffffffffffffffffffffff161415610989576040517f08c379a000000000000000000000000000000000000000000000000000000000815260040161098090612236565b60405180910390fd5b600360008373ffffffffffffffffffffffffffffffffffffffff1673ffffffffffffffffffffffffffffffffffffffff168152602001908152602001600020549050919050565b6060600180546109df9061257b565b80601f0160208091040260200160405190810160405280929190818152602001828054610a0b9061257b565b8015610a585780601f10610a2d57610100808354040283529160200191610a58565b820191906000526020600020905b815481529060010190602001808311610a3b57829003601f168201915b5050505050905090565b610a74610a6d610e4a565b838361126e565b5050565b600a60009054906101000a900473ffffffffffffffffffffffffffffffffffffffff1681565b610aaf610aa9610e4a565b83610f29565b610aee576040517f08c379a0000000000000000000000000000000000000000000000000000000008152600401610ae590612336565b60405180910390fd5b610afa848484846113db565b50505050565b6060610b0b82610dde565b610b4a576040517f08c379a0000000000000000000000000000000000000000000000000000000008152600401610b4190612296565b60405180910390fd5b6000600660008481526020019081526020016000208054610b6a9061257b565b80601f0160208091040260200160405190810160405280929190818152602001828054610b969061257b565b8015610be35780601f10610bb857610100808354040283529160200191610be3565b820191906000526020600020905b815481529060010190602001808311610bc657829003601f168201915b505050505090506000610bf4611437565b9050600081511415610c0a578192505050610c4d565b600082511115610c3f578082604051602001610c2792919061208e565b60405160208183030381529060405292505050610c4d565b610c488461144e565b925050505b919050565b60088054610c5f9061257b565b80601f0160208091040260200160405190810160405280929190818152602001828054610c8b9061257b565b8015610cd85780601f10610cad57610100808354040283529160200191610cd8565b820191906000526020600020905b815481529060010190602001808311610cbb57829003601f168201915b505050505081565b6000600560008473ffffffffffffffffffffffffffffffffffffffff1673ffffffffffffffffffffffffffffffffffffffff16815260200190815260200160002060008373ffffffffffffffffffffffffffffffffffffffff1673ffffffffffffffffffffffffffffffffffffffff16815260200190815260200160002060009054906101000a900460ff16905092915050565b60007f01ffc9a7000000000000000000000000000000000000000000000000000000007bffffffffffffffffffffffffffffffffffffffffffffffffffffffff1916827bffffffffffffffffffffffffffffffffffffffffffffffffffffffff1916149050919050565b60008073ffffffffffffffffffffffffffffffffffffffff166002600084815260200190815260200160002060009054906101000a900473ffffffffffffffffffffffffffffffffffffffff1673ffffffffffffffffffffffffffffffffffffffff1614159050919050565b600033905090565b816004600083815260200190815260200160002060006101000a81548173ffffffffffffffffffffffffffffffffffffffff021916908373ffffffffffffffffffffffffffffffffffffffff160217905550808273ffffffffffffffffffffffffffffffffffffffff16610ec583610866565b73ffffffffffffffffffffffffffffffffffffffff167f8c5be1e5ebec7d5bd14f71427d1e84f3dd0314c0f7b2291e5b200ac8c7c3b92560405160405180910390a45050565b610f258282604051806020016040528060008152506114f5565b5050565b6000610f3482610dde565b610f73576040517f08c379a0000000000000000000000000000000000000000000000000000000008152600401610f6a906121f6565b60405180910390fd5b6000610f7e83610866565b90508073ffffffffffffffffffffffffffffffffffffffff168473ffffffffffffffffffffffffffffffffffffffff161480610fc05750610fbf8185610ce0565b5b80610ffe57508373ffffffffffffffffffffffffffffffffffffffff16610fe6846105d1565b73ffffffffffffffffffffffffffffffffffffffff16145b91505092915050565b8273ffffffffffffffffffffffffffffffffffffffff1661102782610866565b73ffffffffffffffffffffffffffffffffffffffff161461107d576040517f08c379a000000000000000000000000000000000000000000000000000000000815260040161107490612176565b60405180910390fd5b600073ffffffffffffffffffffffffffffffffffffffff168273ffffffffffffffffffffffffffffffffffffffff1614156110ed576040517f08c379a00000000000000000000000000000000000000000000000000000000081526004016110e4906121b6565b60405180910390fd5b6110f8838383611550565b611103600082610e52565b6001600360008573ffffffffffffffffffffffffffffffffffffffff1673ffffffffffffffffffffffffffffffffffffffff16815260200190815260200160002060008282546111539190612491565b925050819055506001600360008473ffffffffffffffffffffffffffffffffffffffff1673ffffffffffffffffffffffffffffffffffffffff16815260200190815260200160002060008282546111aa919061240a565b92505081905550816002600083815260200190815260200160002060006101000a81548173ffffffffffffffffffffffffffffffffffffffff021916908373ffffffffffffffffffffffffffffffffffffffff160217905550808273ffffffffffffffffffffffffffffffffffffffff168473ffffffffffffffffffffffffffffffffffffffff167fddf252ad1be2c89b69c2b068fc378daa952ba7f163c4a11628f55a4df523b3ef60405160405180910390a4611269838383611555565b505050565b8173ffffffffffffffffffffffffffffffffffffffff168373ffffffffffffffffffffffffffffffffffffffff1614156112dd576040517f08c379a00000000000000000000000000000000000000000000000000000000081526004016112d4906121d6565b60405180910390fd5b80600560008573ffffffffffffffffffffffffffffffffffffffff1673ffffffffffffffffffffffffffffffffffffffff16815260200190815260200160002060008473ffffffffffffffffffffffffffffffffffffffff1673ffffffffffffffffffffffffffffffffffffffff16815260200190815260200160002060006101000a81548160ff0219169083151502179055508173ffffffffffffffffffffffffffffffffffffffff168373ffffffffffffffffffffffffffffffffffffffff167f17307eab39ab6107e8899845ad3d59bd9653f200f220920489ca2b5937696c31836040516113ce9190612119565b60405180910390a3505050565b6113e6848484611007565b6113f28484848461155a565b611431576040517f08c379a000000000000000000000000000000000000000000000000000000000815260040161142890612156565b60405180910390fd5b50505050565b606060405180602001604052806000815250905090565b606061145982610dde565b611498576040517f08c379a000000000000000000000000000000000000000000000000000000000815260040161148f906122d6565b60405180910390fd5b60006114a2611437565b905060008151116114c257604051806020016040528060008152506114ed565b806114cc846116f1565b6040516020016114dd92919061208e565b6040516020818303038152906040525b915050919050565b6114ff838361189e565b61150c600084848461155a565b61154b576040517f08c379a000000000000000000000000000000000000000000000000000000000815260040161154290612156565b60405180910390fd5b505050565b505050565b505050565b600061157b8473ffffffffffffffffffffffffffffffffffffffff16611a78565b156116e4578373ffffffffffffffffffffffffffffffffffffffff1663150b7a026115a4610e4a565b8786866040518563ffffffff1660e01b81526004016115c694939291906120cd565b602060405180830381600087803b1580156115e057600080fd5b505af192505050801561161157506040513d601f19601f8201168201806040525081019061160e9190611d3c565b60015b611694573d8060008114611641576040519150601f19603f3d011682016040523d82523d6000602084013e611646565b606091505b5060008151141561168c576040517f08c379a000000000000000000000000000000000000000000000000000000000815260040161168390612156565b60405180910390fd5b805181602001fd5b63150b7a0260e01b7bffffffffffffffffffffffffffffffffffffffffffffffffffffffff1916817bffffffffffffffffffffffffffffffffffffffffffffffffffffffff1916149150506116e9565b600190505b949350505050565b60606000821415611739576040518060400160405280600181526020017f30000000000000000000000000000000000000000000000000000000000000008152509050611899565b600082905060005b6000821461176b578080611754906125de565b915050600a826117649190612460565b9150611741565b60008167ffffffffffffffff8111156117ad577f4e487b7100000000000000000000000000000000000000000000000000000000600052604160045260246000fd5b6040519080825280601f01601f1916602001820160405280156117df5781602001600182028036833780820191505090505b5090505b60008514611892576001826117f89190612491565b9150600a856118079190612627565b6030611813919061240a565b60f81b81838151811061184f577f4e487b7100000000000000000000000000000000000000000000000000000000600052603260045260246000fd5b60200101907effffffffffffffffffffffffffffffffffffffffffffffffffffffffffffff1916908160001a905350600a8561188b9190612460565b94506117e3565b8093505050505b919050565b600073ffffffffffffffffffffffffffffffffffffffff168273ffffffffffffffffffffffffffffffffffffffff16141561190e576040517f08c379a000000000000000000000000000000000000000000000000000000000815260040161190590612276565b60405180910390fd5b61191781610dde565b15611957576040517f08c379a000000000000000000000000000000000000000000000000000000000815260040161194e90612196565b60405180910390fd5b61196360008383611550565b6001600360008473ffffffffffffffffffffffffffffffffffffffff1673ffffffffffffffffffffffffffffffffffffffff16815260200190815260200160002060008282546119b3919061240a565b92505081905550816002600083815260200190815260200160002060006101000a81548173ffffffffffffffffffffffffffffffffffffffff021916908373ffffffffffffffffffffffffffffffffffffffff160217905550808273ffffffffffffffffffffffffffffffffffffffff16600073ffffffffffffffffffffffffffffffffffffffff167fddf252ad1be2c89b69c2b068fc378daa952ba7f163c4a11628f55a4df523b3ef60405160405180910390a4611a7460008383611555565b5050565b6000808273ffffffffffffffffffffffffffffffffffffffff163b119050919050565b6000611aae611aa984612396565b612371565b905082815260208101848484011115611ac657600080fd5b611ad1848285612539565b509392505050565b600081359050611ae881612b7d565b92915050565b600081359050611afd81612b94565b92915050565b600081359050611b1281612bab565b92915050565b600081519050611b2781612bab565b92915050565b600082601f830112611b3e57600080fd5b8135611b4e848260208601611a9b565b91505092915050565b600081359050611b6681612bc2565b92915050565b600060208284031215611b7e57600080fd5b6000611b8c84828501611ad9565b91505092915050565b60008060408385031215611ba857600080fd5b6000611bb685828601611ad9565b9250506020611bc785828601611ad9565b9150509250929050565b600080600060608486031215611be657600080fd5b6000611bf486828701611ad9565b9350506020611c0586828701611ad9565b9250506040611c1686828701611b57565b9150509250925092565b60008060008060808587031215611c3657600080fd5b6000611c4487828801611ad9565b9450506020611c5587828801611ad9565b9350506040611c6687828801611b57565b925050606085013567ffffffffffffffff811115611c8357600080fd5b611c8f87828801611b2d565b91505092959194509250565b60008060408385031215611cae57600080fd5b6000611cbc85828601611ad9565b9250506020611ccd85828601611aee565b9150509250929050565b60008060408385031215611cea57600080fd5b6000611cf885828601611ad9565b9250506020611d0985828601611b57565b9150509250929050565b600060208284031215611d2557600080fd5b6000611d3384828501611b03565b91505092915050565b600060208284031215611d4e57600080fd5b6000611d5c84828501611b18565b91505092915050565b600060208284031215611d7757600080fd5b6000611d8584828501611b57565b91505092915050565b611d97816124c5565b82525050565b611da6816124d7565b82525050565b6000611db7826123c7565b611dc181856123dd565b9350611dd1818560208601612548565b611dda81612714565b840191505092915050565b6000611df0826123d2565b611dfa81856123ee565b9350611e0a818560208601612548565b611e1381612714565b840191505092915050565b6000611e29826123d2565b611e3381856123ff565b9350611e43818560208601612548565b80840191505092915050565b6000611e5c6032836123ee565b9150611e6782612725565b604082019050919050565b6000611e7f6025836123ee565b9150611e8a82612774565b604082019050919050565b6000611ea2601c836123ee565b9150611ead826127c3565b602082019050919050565b6000611ec56024836123ee565b9150611ed0826127ec565b604082019050919050565b6000611ee86019836123ee565b9150611ef38261283b565b602082019050919050565b6000611f0b602c836123ee565b9150611f1682612864565b604082019050919050565b6000611f2e6038836123ee565b9150611f39826128b3565b604082019050919050565b6000611f51602a836123ee565b9150611f5c82612902565b604082019050919050565b6000611f746029836123ee565b9150611f7f82612951565b604082019050919050565b6000611f976020836123ee565b9150611fa2826129a0565b602082019050919050565b6000611fba6031836123ee565b9150611fc5826129c9565b604082019050919050565b6000611fdd602c836123ee565b9150611fe882612a18565b604082019050919050565b6000612000602f836123ee565b915061200b82612a67565b604082019050919050565b60006120236013836123ee565b915061202e82612ab6565b602082019050919050565b60006120466021836123ee565b915061205182612adf565b604082019050919050565b60006120696031836123ee565b915061207482612b2e565b604082019050919050565b6120888161252f565b82525050565b600061209a8285611e1e565b91506120a68284611e1e565b91508190509392505050565b60006020820190506120c76000830184611d8e565b92915050565b60006080820190506120e26000830187611d8e565b6120ef6020830186611d8e565b6120fc604083018561207f565b818103606083015261210e8184611dac565b905095945050505050565b600060208201905061212e6000830184611d9d565b92915050565b6000602082019050818103600083015261214e8184611de5565b905092915050565b6000602082019050818103600083015261216f81611e4f565b9050919050565b6000602082019050818103600083015261218f81611e72565b9050919050565b600060208201905081810360008301526121af81611e95565b9050919050565b600060208201905081810360008301526121cf81611eb8565b9050919050565b600060208201905081810360008301526121ef81611edb565b9050919050565b6000602082019050818103600083015261220f81611efe565b9050919050565b6000602082019050818103600083015261222f81611f21565b9050919050565b6000602082019050818103600083015261224f81611f44565b9050919050565b6000602082019050818103600083015261226f81611f67565b9050919050565b6000602082019050818103600083015261228f81611f8a565b9050919050565b600060208201905081810360008301526122af81611fad565b9050919050565b600060208201905081810360008301526122cf81611fd0565b9050919050565b600060208201905081810360008301526122ef81611ff3565b9050919050565b6000602082019050818103600083015261230f81612016565b9050919050565b6000602082019050818103600083015261232f81612039565b9050919050565b6000602082019050818103600083015261234f8161205c565b9050919050565b600060208201905061236b600083018461207f565b92915050565b600061237b61238c565b905061238782826125ad565b919050565b6000604051905090565b600067ffffffffffffffff8211156123b1576123b06126e5565b5b6123ba82612714565b9050602081019050919050565b600081519050919050565b600081519050919050565b600082825260208201905092915050565b600082825260208201905092915050565b600081905092915050565b60006124158261252f565b91506124208361252f565b9250827fffffffffffffffffffffffffffffffffffffffffffffffffffffffffffffffff0382111561245557612454612658565b5b828201905092915050565b600061246b8261252f565b91506124768361252f565b92508261248657612485612687565b5b828204905092915050565b600061249c8261252f565b91506124a78361252f565b9250828210156124ba576124b9612658565b5b828203905092915050565b60006124d08261250f565b9050919050565b60008115159050919050565b60007fffffffff0000000000000000000000000000000000000000000000000000000082169050919050565b600073ffffffffffffffffffffffffffffffffffffffff82169050919050565b6000819050919050565b82818337600083830152505050565b60005b8381101561256657808201518184015260208101905061254b565b83811115612575576000848401525b50505050565b6000600282049050600182168061259357607f821691505b602082108114156125a7576125a66126b6565b5b50919050565b6125b682612714565b810181811067ffffffffffffffff821117156125d5576125d46126e5565b5b80604052505050565b60006125e98261252f565b91507fffffffffffffffffffffffffffffffffffffffffffffffffffffffffffffffff82141561261c5761261b612658565b5b600182019050919050565b60006126328261252f565b915061263d8361252f565b92508261264d5761264c612687565b5b828206905092915050565b7f4e487b7100000000000000000000000000000000000000000000000000000000600052601160045260246000fd5b7f4e487b7100000000000000000000000000000000000000000000000000000000600052601260045260246000fd5b7f4e487b7100000000000000000000000000000000000000000000000000000000600052602260045260246000fd5b7f4e487b7100000000000000000000000000000000000000000000000000000000600052604160045260246000fd5b6000601f19601f8301169050919050565b7f4552433732313a207472616e7366657220746f206e6f6e20455243373231526560008201527f63656976657220696d706c656d656e7465720000000000000000000000000000602082015250565b7f4552433732313a207472616e736665722066726f6d20696e636f72726563742060008201527f6f776e6572000000000000000000000000000000000000000000000000000000602082015250565b7f4552433732313a20746f6b656e20616c7265616479206d696e74656400000000600082015250565b7f4552433732313a207472616e7366657220746f20746865207a65726f2061646460008201527f7265737300000000000000000000000000000000000000000000000000000000602082015250565b7f4552433732313a20617070726f766520746f2063616c6c657200000000000000600082015250565b7f4552433732313a206f70657261746f7220717565727920666f72206e6f6e657860008201527f697374656e7420746f6b656e0000000000000000000000000000000000000000602082015250565b7f4552433732313a20617070726f76652063616c6c6572206973206e6f74206f7760008201527f6e6572206e6f7220617070726f76656420666f7220616c6c0000000000000000602082015250565b7f4552433732313a2062616c616e636520717565727920666f7220746865207a6560008201527f726f206164647265737300000000000000000000000000000000000000000000602082015250565b7f4552433732313a206f776e657220717565727920666f72206e6f6e657869737460008201527f656e7420746f6b656e0000000000000000000000000000000000000000000000602082015250565b7f4552433732313a206d696e7420746f20746865207a65726f2061646472657373600082015250565b7f45524337323155524953746f726167653a2055524920717565727920666f722060008201527f6e6f6e6578697374656e7420746f6b656e000000000000000000000000000000602082015250565b7f4552433732313a20617070726f76656420717565727920666f72206e6f6e657860008201527f697374656e7420746f6b656e0000000000000000000000000000000000000000602082015250565b7f4552433732314d657461646174613a2055524920717565727920666f72206e6f60008201527f6e6578697374656e7420746f6b656e0000000000000000000000000000000000602082015250565b7f4578636565646564206d617820737570706c7900000000000000000000000000600082015250565b7f4552433732313a20617070726f76616c20746f2063757272656e74206f776e6560008201527f7200000000000000000000000000000000000000000000000000000000000000602082015250565b7f4552433732313a207472616e736665722063616c6c6572206973206e6f74206f60008201527f776e6572206e6f7220617070726f766564000000000000000000000000000000602082015250565b612b86816124c5565b8114612b9157600080fd5b50565b612b9d816124d7565b8114612ba857600080fd5b50565b612bb4816124e3565b8114612bbf57600080fd5b50565b612bcb8161252f565b8114612bd657600080fd5b5056fea26469706673582212209058e9cbfea25f444b77b1a5f27386cc575cf6080adb533a6ea2d3d6eb1a8bfe64736f6c63430008040033",
  "linkReferences": {},
  "deployedLinkReferences": {}
}