{
  "_format": "hh-sol-artifact-1",
  "contractName": "UpliftNFT",
  "sourceName": "contracts/tokens/UpliftNFT.sol",
  "abi": [
    {
      "inputs": [
        {
          "internalType": "string",
          "name": "_baseURI",
          "type": "string"
        }
      ],
      "stateMutability": "nonpayable",
      "type": "constructor"
    },
    {
      "anonymous": false,
      "inputs": [
        {
          "indexed": true,
          "internalType": "address",
          "name": "owner",
          "type": "address"
        },
        {
          "indexed": true,
          "internalType": "address",
          "name": "approved",
          "type": "address"
        },
        {
          "indexed": true,
          "internalType": "uint256",
          "name": "tokenId",
          "type": "uint256"
        }
      ],
      "name": "Approval",
      "type": "event"
    },
    {
      "anonymous": false,
      "inputs": [
        {
          "indexed": true,
          "internalType": "address",
          "name": "owner",
          "type": "address"
        },
        {
          "indexed": true,
          "internalType": "address",
          "name": "operator",
          "type": "address"
        },
        {
          "indexed": false,
          "internalType": "bool",
          "name": "approved",
          "type": "bool"
        }
      ],
      "name": "ApprovalForAll",
      "type": "event"
    },
    {
      "anonymous": false,
      "inputs": [
        {
          "indexed": true,
          "internalType": "address",
          "name": "from",
          "type": "address"
        },
        {
          "indexed": true,
          "internalType": "address",
          "name": "to",
          "type": "address"
        },
        {
          "indexed": true,
          "internalType": "uint256",
          "name": "tokenId",
          "type": "uint256"
        }
      ],
      "name": "Transfer",
      "type": "event"
    },
    {
      "stateMutability": "payable",
      "type": "fallback"
    },
    {
      "inputs": [
        {
          "internalType": "address",
          "name": "to",
          "type": "address"
        },
        {
          "internalType": "uint256",
          "name": "tokenId",
          "type": "uint256"
        }
      ],
      "name": "approve",
      "outputs": [],
      "stateMutability": "nonpayable",
      "type": "function"
    },
    {
      "inputs": [
        {
          "internalType": "address",
          "name": "owner",
          "type": "address"
        }
      ],
      "name": "balanceOf",
      "outputs": [
        {
          "internalType": "uint256",
          "name": "",
          "type": "uint256"
        }
      ],
      "stateMutability": "view",
      "type": "function"
    },
    {
      "inputs": [],
      "name": "baseTokenURI",
      "outputs": [
        {
          "internalType": "string",
          "name": "",
          "type": "string"
        }
      ],
      "stateMutability": "view",
      "type": "function"
    },
    {
      "inputs": [
        {
          "internalType": "uint256",
          "name": "tokenId",
          "type": "uint256"
        }
      ],
      "name": "getApproved",
      "outputs": [
        {
          "internalType": "address",
          "name": "",
          "type": "address"
        }
      ],
      "stateMutability": "view",
      "type": "function"
    },
    {
      "inputs": [
        {
          "internalType": "address",
          "name": "owner",
          "type": "address"
        },
        {
          "internalType": "address",
          "name": "operator",
          "type": "address"
        }
      ],
      "name": "isApprovedForAll",
      "outputs": [
        {
          "internalType": "bool",
          "name": "",
          "type": "bool"
        }
      ],
      "stateMutability": "view",
      "type": "function"
    },
    {
      "inputs": [],
      "name": "maxTokenIds",
      "outputs": [
        {
          "internalType": "uint256",
          "name": "",
          "type": "uint256"
        }
      ],
      "stateMutability": "view",
      "type": "function"
    },
    {
      "inputs": [],
      "name": "mint",
      "outputs": [],
      "stateMutability": "payable",
      "type": "function"
    },
    {
      "inputs": [],
      "name": "name",
      "outputs": [
        {
          "internalType": "string",
          "name": "",
          "type": "string"
        }
      ],
      "stateMutability": "view",
      "type": "function"
    },
    {
      "inputs": [
        {
          "internalType": "uint256",
          "name": "tokenId",
          "type": "uint256"
        }
      ],
      "name": "ownerOf",
      "outputs": [
        {
          "internalType": "address",
          "name": "",
          "type": "address"
        }
      ],
      "stateMutability": "view",
      "type": "function"
    },
    {
      "inputs": [],
      "name": "price",
      "outputs": [
        {
          "internalType": "uint256",
          "name": "",
          "type": "uint256"
        }
      ],
      "stateMutability": "view",
      "type": "function"
    },
    {
      "inputs": [
        {
          "internalType": "address",
          "name": "from",
          "type": "address"
        },
        {
          "internalType": "address",
          "name": "to",
          "type": "address"
        },
        {
          "internalType": "uint256",
          "name": "tokenId",
          "type": "uint256"
        }
      ],
      "name": "safeTransferFrom",
      "outputs": [],
      "stateMutability": "nonpayable",
      "type": "function"
    },
    {
      "inputs": [
        {
          "internalType": "address",
          "name": "from",
          "type": "address"
        },
        {
          "internalType": "address",
          "name": "to",
          "type": "address"
        },
        {
          "internalType": "uint256",
          "name": "tokenId",
          "type": "uint256"
        },
        {
          "internalType": "bytes",
          "name": "_data",
          "type": "bytes"
        }
      ],
      "name": "safeTransferFrom",
      "outputs": [],
      "stateMutability": "nonpayable",
      "type": "function"
    },
    {
      "inputs": [
        {
          "internalType": "address",
          "name": "operator",
          "type": "address"
        },
        {
          "internalType": "bool",
          "name": "approved",
          "type": "bool"
        }
      ],
      "name": "setApprovalForAll",
      "outputs": [],
      "stateMutability": "nonpayable",
      "type": "function"
    },
    {
      "inputs": [
        {
          "internalType": "bytes4",
          "name": "interfaceId",
          "type": "bytes4"
        }
      ],
      "name": "supportsInterface",
      "outputs": [
        {
          "internalType": "bool",
          "name": "",
          "type": "bool"
        }
      ],
      "stateMutability": "view",
      "type": "function"
    },
    {
      "inputs": [],
      "name": "symbol",
      "outputs": [
        {
          "internalType": "string",
          "name": "",
          "type": "string"
        }
      ],
      "stateMutability": "view",
      "type": "function"
    },
    {
      "inputs": [],
      "name": "tokenId",
      "outputs": [
        {
          "internalType": "uint256",
          "name": "",
          "type": "uint256"
        }
      ],
      "stateMutability": "view",
      "type": "function"
    },
    {
      "inputs": [
        {
          "internalType": "uint256",
          "name": "tokenId",
          "type": "uint256"
        }
      ],
      "name": "tokenURI",
      "outputs": [
        {
          "internalType": "string",
          "name": "",
          "type": "string"
        }
      ],
      "stateMutability": "view",
      "type": "function"
    },
    {
      "inputs": [
        {
          "internalType": "address",
          "name": "from",
          "type": "address"
        },
        {
          "internalType": "address",
          "name": "to",
          "type": "address"
        },
        {
          "internalType": "uint256",
          "name": "tokenId",
          "type": "uint256"
        }
      ],
      "name": "transferFrom",
      "outputs": [],
      "stateMutability": "nonpayable",
      "type": "function"
    },
    {
      "inputs": [],
      "name": "upliftDAO",
      "outputs": [
        {
          "internalType": "address",
          "name": "",
          "type": "address"
        }
      ],
      "stateMutability": "view",
      "type": "function"
    },
    {
      "stateMutability": "payable",
      "type": "receive"
    }
  ],
  "bytecode": "0x6080604052662386f26fc10000600955612710600a553480156200002257600080fd5b506040516200319d3803806200319d833981810160405281019062000048919062000273565b6040518060400160405280600a81526020017f55706c6966742044414f000000000000000000000000000000000000000000008152506040518060400160405280600381526020017f55504400000000000000000000000000000000000000000000000000000000008152508160009080519060200190620000cc92919062000151565b508060019080519060200190620000e592919062000151565b50505080600890805190602001906200010092919062000151565b5033600b60006101000a81548173ffffffffffffffffffffffffffffffffffffffff021916908373ffffffffffffffffffffffffffffffffffffffff16021790555060006007819055505062000428565b8280546200015f906200034d565b90600052602060002090601f016020900481019282620001835760008555620001cf565b82601f106200019e57805160ff1916838001178555620001cf565b82800160010185558215620001cf579182015b82811115620001ce578251825591602001919060010190620001b1565b5b509050620001de9190620001e2565b5090565b5b80821115620001fd576000816000905550600101620001e3565b5090565b6000620002186200021284620002e1565b620002b8565b9050828152602081018484840111156200023157600080fd5b6200023e84828562000317565b509392505050565b600082601f8301126200025857600080fd5b81516200026a84826020860162000201565b91505092915050565b6000602082840312156200028657600080fd5b600082015167ffffffffffffffff811115620002a157600080fd5b620002af8482850162000246565b91505092915050565b6000620002c4620002d7565b9050620002d2828262000383565b919050565b6000604051905090565b600067ffffffffffffffff821115620002ff57620002fe620003e8565b5b6200030a8262000417565b9050602081019050919050565b60005b83811015620003375780820151818401526020810190506200031a565b8381111562000347576000848401525b50505050565b600060028204905060018216806200036657607f821691505b602082108114156200037d576200037c620003b9565b5b50919050565b6200038e8262000417565b810181811067ffffffffffffffff82111715620003b057620003af620003e8565b5b80604052505050565b7f4e487b7100000000000000000000000000000000000000000000000000000000600052602260045260246000fd5b7f4e487b7100000000000000000000000000000000000000000000000000000000600052604160045260246000fd5b6000601f19601f8301169050919050565b612d6580620004386000396000f3fe6080604052600436106101185760003560e01c80636352211e116100a0578063b810cf2b11610064578063b810cf2b1461039a578063b88d4fde146103c5578063c87b56dd146103ee578063d547cfb71461042b578063e985e9c5146104565761011f565b80636352211e146102a157806370a08231146102de57806395d89b411461031b578063a035b1fe14610346578063a22cb465146103715761011f565b80631249c58b116100e75780631249c58b146101ef57806317d70f7c146101f957806323b872dd1461022457806342842e0e1461024d5780635f769621146102765761011f565b806301ffc9a71461012157806306fdde031461015e578063081812fc14610189578063095ea7b3146101c65761011f565b3661011f57005b005b34801561012d57600080fd5b5061014860048036038101906101439190611dfd565b610493565b6040516101559190612226565b60405180910390f35b34801561016a57600080fd5b50610173610575565b6040516101809190612241565b60405180910390f35b34801561019557600080fd5b506101b060048036038101906101ab9190611e4f565b610607565b6040516101bd91906121bf565b60405180910390f35b3480156101d257600080fd5b506101ed60048036038101906101e89190611dc1565b61068c565b005b6101f76107a4565b005b34801561020557600080fd5b5061020e6108be565b60405161021b9190612483565b60405180910390f35b34801561023057600080fd5b5061024b60048036038101906102469190611cbb565b6108c4565b005b34801561025957600080fd5b50610274600480360381019061026f9190611cbb565b610924565b005b34801561028257600080fd5b5061028b610944565b6040516102989190612483565b60405180910390f35b3480156102ad57600080fd5b506102c860048036038101906102c39190611e4f565b61094a565b6040516102d591906121bf565b60405180910390f35b3480156102ea57600080fd5b5061030560048036038101906103009190611c56565b6109fc565b6040516103129190612483565b60405180910390f35b34801561032757600080fd5b50610330610ab4565b60405161033d9190612241565b60405180910390f35b34801561035257600080fd5b5061035b610b46565b6040516103689190612483565b60405180910390f35b34801561037d57600080fd5b5061039860048036038101906103939190611d85565b610b4c565b005b3480156103a657600080fd5b506103af610b62565b6040516103bc91906121bf565b60405180910390f35b3480156103d157600080fd5b506103ec60048036038101906103e79190611d0a565b610b88565b005b3480156103fa57600080fd5b5061041560048036038101906104109190611e4f565b610bea565b6040516104229190612241565b60405180910390f35b34801561043757600080fd5b50610440610d3c565b60405161044d9190612241565b60405180910390f35b34801561046257600080fd5b5061047d60048036038101906104789190611c7f565b610dca565b60405161048a9190612226565b60405180910390f35b60007f80ac58cd000000000000000000000000000000000000000000000000000000007bffffffffffffffffffffffffffffffffffffffffffffffffffffffff1916827bffffffffffffffffffffffffffffffffffffffffffffffffffffffff1916148061055e57507f5b5e139f000000000000000000000000000000000000000000000000000000007bffffffffffffffffffffffffffffffffffffffffffffffffffffffff1916827bffffffffffffffffffffffffffffffffffffffffffffffffffffffff1916145b8061056e575061056d82610e5e565b5b9050919050565b606060008054610584906126a8565b80601f01602080910402602001604051908101604052809291908181526020018280546105b0906126a8565b80156105fd5780601f106105d2576101008083540402835291602001916105fd565b820191906000526020600020905b8154815290600101906020018083116105e057829003601f168201915b5050505050905090565b600061061282610ec8565b610651576040517f08c379a0000000000000000000000000000000000000000000000000000000008152600401610648906123c3565b60405180910390fd5b6004600083815260200190815260200160002060009054906101000a900473ffffffffffffffffffffffffffffffffffffffff169050919050565b60006106978261094a565b90508073ffffffffffffffffffffffffffffffffffffffff168373ffffffffffffffffffffffffffffffffffffffff161415610708576040517f08c379a00000000000000000000000000000000000000000000000000000000081526004016106ff90612443565b60405180910390fd5b8073ffffffffffffffffffffffffffffffffffffffff16610727610f34565b73ffffffffffffffffffffffffffffffffffffffff161480610756575061075581610750610f34565b610dca565b5b610795576040517f08c379a000000000000000000000000000000000000000000000000000000000815260040161078c90612323565b60405180910390fd5b61079f8383610f3c565b505050565b600a54600754106107ea576040517f08c379a00000000000000000000000000000000000000000000000000000000081526004016107e190612423565b60405180910390fd5b60095434101561082f576040517f08c379a000000000000000000000000000000000000000000000000000000000815260040161082690612403565b60405180910390fd5b61083b33600754610ff5565b6007600081548092919061084e9061270b565b9190505550600b60009054906101000a900473ffffffffffffffffffffffffffffffffffffffff1673ffffffffffffffffffffffffffffffffffffffff166108fc349081150290604051600060405180830381858888f193505050501580156108bb573d6000803e3d6000fd5b50565b60075481565b6108d56108cf610f34565b82611013565b610914576040517f08c379a000000000000000000000000000000000000000000000000000000000815260040161090b90612463565b60405180910390fd5b61091f8383836110f1565b505050565b61093f83838360405180602001604052806000815250610b88565b505050565b600a5481565b6000806002600084815260200190815260200160002060009054906101000a900473ffffffffffffffffffffffffffffffffffffffff169050600073ffffffffffffffffffffffffffffffffffffffff168173ffffffffffffffffffffffffffffffffffffffff1614156109f3576040517f08c379a00000000000000000000000000000000000000000000000000000000081526004016109ea90612363565b60405180910390fd5b80915050919050565b60008073ffffffffffffffffffffffffffffffffffffffff168273ffffffffffffffffffffffffffffffffffffffff161415610a6d576040517f08c379a0000000000000000000000000000000000000000000000000000000008152600401610a6490612343565b60405180910390fd5b600360008373ffffffffffffffffffffffffffffffffffffffff1673ffffffffffffffffffffffffffffffffffffffff168152602001908152602001600020549050919050565b606060018054610ac3906126a8565b80601f0160208091040260200160405190810160405280929190818152602001828054610aef906126a8565b8015610b3c5780601f10610b1157610100808354040283529160200191610b3c565b820191906000526020600020905b815481529060010190602001808311610b1f57829003601f168201915b5050505050905090565b60095481565b610b5e610b57610f34565b8383611358565b5050565b600b60009054906101000a900473ffffffffffffffffffffffffffffffffffffffff1681565b610b99610b93610f34565b83611013565b610bd8576040517f08c379a0000000000000000000000000000000000000000000000000000000008152600401610bcf90612463565b60405180910390fd5b610be4848484846114c5565b50505050565b6060610bf582610ec8565b610c34576040517f08c379a0000000000000000000000000000000000000000000000000000000008152600401610c2b906123a3565b60405180910390fd5b6000600660008481526020019081526020016000208054610c54906126a8565b80601f0160208091040260200160405190810160405280929190818152602001828054610c80906126a8565b8015610ccd5780601f10610ca257610100808354040283529160200191610ccd565b820191906000526020600020905b815481529060010190602001808311610cb057829003601f168201915b505050505090506000610cde611521565b9050600081511415610cf4578192505050610d37565b600082511115610d29578082604051602001610d1192919061219b565b60405160208183030381529060405292505050610d37565b610d3284611538565b925050505b919050565b60088054610d49906126a8565b80601f0160208091040260200160405190810160405280929190818152602001828054610d75906126a8565b8015610dc25780601f10610d9757610100808354040283529160200191610dc2565b820191906000526020600020905b815481529060010190602001808311610da557829003601f168201915b505050505081565b6000600560008473ffffffffffffffffffffffffffffffffffffffff1673ffffffffffffffffffffffffffffffffffffffff16815260200190815260200160002060008373ffffffffffffffffffffffffffffffffffffffff1673ffffffffffffffffffffffffffffffffffffffff16815260200190815260200160002060009054906101000a900460ff16905092915050565b60007f01ffc9a7000000000000000000000000000000000000000000000000000000007bffffffffffffffffffffffffffffffffffffffffffffffffffffffff1916827bffffffffffffffffffffffffffffffffffffffffffffffffffffffff1916149050919050565b60008073ffffffffffffffffffffffffffffffffffffffff166002600084815260200190815260200160002060009054906101000a900473ffffffffffffffffffffffffffffffffffffffff1673ffffffffffffffffffffffffffffffffffffffff1614159050919050565b600033905090565b816004600083815260200190815260200160002060006101000a81548173ffffffffffffffffffffffffffffffffffffffff021916908373ffffffffffffffffffffffffffffffffffffffff160217905550808273ffffffffffffffffffffffffffffffffffffffff16610faf8361094a565b73ffffffffffffffffffffffffffffffffffffffff167f8c5be1e5ebec7d5bd14f71427d1e84f3dd0314c0f7b2291e5b200ac8c7c3b92560405160405180910390a45050565b61100f8282604051806020016040528060008152506115df565b5050565b600061101e82610ec8565b61105d576040517f08c379a000000000000000000000000000000000000000000000000000000000815260040161105490612303565b60405180910390fd5b60006110688361094a565b90508073ffffffffffffffffffffffffffffffffffffffff168473ffffffffffffffffffffffffffffffffffffffff1614806110aa57506110a98185610dca565b5b806110e857508373ffffffffffffffffffffffffffffffffffffffff166110d084610607565b73ffffffffffffffffffffffffffffffffffffffff16145b91505092915050565b8273ffffffffffffffffffffffffffffffffffffffff166111118261094a565b73ffffffffffffffffffffffffffffffffffffffff1614611167576040517f08c379a000000000000000000000000000000000000000000000000000000000815260040161115e90612283565b60405180910390fd5b600073ffffffffffffffffffffffffffffffffffffffff168273ffffffffffffffffffffffffffffffffffffffff1614156111d7576040517f08c379a00000000000000000000000000000000000000000000000000000000081526004016111ce906122c3565b60405180910390fd5b6111e283838361163a565b6111ed600082610f3c565b6001600360008573ffffffffffffffffffffffffffffffffffffffff1673ffffffffffffffffffffffffffffffffffffffff168152602001908152602001600020600082825461123d91906125be565b925050819055506001600360008473ffffffffffffffffffffffffffffffffffffffff1673ffffffffffffffffffffffffffffffffffffffff16815260200190815260200160002060008282546112949190612537565b92505081905550816002600083815260200190815260200160002060006101000a81548173ffffffffffffffffffffffffffffffffffffffff021916908373ffffffffffffffffffffffffffffffffffffffff160217905550808273ffffffffffffffffffffffffffffffffffffffff168473ffffffffffffffffffffffffffffffffffffffff167fddf252ad1be2c89b69c2b068fc378daa952ba7f163c4a11628f55a4df523b3ef60405160405180910390a461135383838361163f565b505050565b8173ffffffffffffffffffffffffffffffffffffffff168373ffffffffffffffffffffffffffffffffffffffff1614156113c7576040517f08c379a00000000000000000000000000000000000000000000000000000000081526004016113be906122e3565b60405180910390fd5b80600560008573ffffffffffffffffffffffffffffffffffffffff1673ffffffffffffffffffffffffffffffffffffffff16815260200190815260200160002060008473ffffffffffffffffffffffffffffffffffffffff1673ffffffffffffffffffffffffffffffffffffffff16815260200190815260200160002060006101000a81548160ff0219169083151502179055508173ffffffffffffffffffffffffffffffffffffffff168373ffffffffffffffffffffffffffffffffffffffff167f17307eab39ab6107e8899845ad3d59bd9653f200f220920489ca2b5937696c31836040516114b89190612226565b60405180910390a3505050565b6114d08484846110f1565b6114dc84848484611644565b61151b576040517f08c379a000000000000000000000000000000000000000000000000000000000815260040161151290612263565b60405180910390fd5b50505050565b606060405180602001604052806000815250905090565b606061154382610ec8565b611582576040517f08c379a0000000000000000000000000000000000000000000000000000000008152600401611579906123e3565b60405180910390fd5b600061158c611521565b905060008151116115ac57604051806020016040528060008152506115d7565b806115b6846117db565b6040516020016115c792919061219b565b6040516020818303038152906040525b915050919050565b6115e98383611988565b6115f66000848484611644565b611635576040517f08c379a000000000000000000000000000000000000000000000000000000000815260040161162c90612263565b60405180910390fd5b505050565b505050565b505050565b60006116658473ffffffffffffffffffffffffffffffffffffffff16611b62565b156117ce578373ffffffffffffffffffffffffffffffffffffffff1663150b7a0261168e610f34565b8786866040518563ffffffff1660e01b81526004016116b094939291906121da565b602060405180830381600087803b1580156116ca57600080fd5b505af19250505080156116fb57506040513d601f19601f820116820180604052508101906116f89190611e26565b60015b61177e573d806000811461172b576040519150601f19603f3d011682016040523d82523d6000602084013e611730565b606091505b50600081511415611776576040517f08c379a000000000000000000000000000000000000000000000000000000000815260040161176d90612263565b60405180910390fd5b805181602001fd5b63150b7a0260e01b7bffffffffffffffffffffffffffffffffffffffffffffffffffffffff1916817bffffffffffffffffffffffffffffffffffffffffffffffffffffffff1916149150506117d3565b600190505b949350505050565b60606000821415611823576040518060400160405280600181526020017f30000000000000000000000000000000000000000000000000000000000000008152509050611983565b600082905060005b6000821461185557808061183e9061270b565b915050600a8261184e919061258d565b915061182b565b60008167ffffffffffffffff811115611897577f4e487b7100000000000000000000000000000000000000000000000000000000600052604160045260246000fd5b6040519080825280601f01601f1916602001820160405280156118c95781602001600182028036833780820191505090505b5090505b6000851461197c576001826118e291906125be565b9150600a856118f19190612754565b60306118fd9190612537565b60f81b818381518110611939577f4e487b7100000000000000000000000000000000000000000000000000000000600052603260045260246000fd5b60200101907effffffffffffffffffffffffffffffffffffffffffffffffffffffffffffff1916908160001a905350600a85611975919061258d565b94506118cd565b8093505050505b919050565b600073ffffffffffffffffffffffffffffffffffffffff168273ffffffffffffffffffffffffffffffffffffffff1614156119f8576040517f08c379a00000000000000000000000000000000000000000000000000000000081526004016119ef90612383565b60405180910390fd5b611a0181610ec8565b15611a41576040517f08c379a0000000000000000000000000000000000000000000000000000000008152600401611a38906122a3565b60405180910390fd5b611a4d6000838361163a565b6001600360008473ffffffffffffffffffffffffffffffffffffffff1673ffffffffffffffffffffffffffffffffffffffff1681526020019081526020016000206000828254611a9d9190612537565b92505081905550816002600083815260200190815260200160002060006101000a81548173ffffffffffffffffffffffffffffffffffffffff021916908373ffffffffffffffffffffffffffffffffffffffff160217905550808273ffffffffffffffffffffffffffffffffffffffff16600073ffffffffffffffffffffffffffffffffffffffff167fddf252ad1be2c89b69c2b068fc378daa952ba7f163c4a11628f55a4df523b3ef60405160405180910390a4611b5e6000838361163f565b5050565b6000808273ffffffffffffffffffffffffffffffffffffffff163b119050919050565b6000611b98611b93846124c3565b61249e565b905082815260208101848484011115611bb057600080fd5b611bbb848285612666565b509392505050565b600081359050611bd281612cd3565b92915050565b600081359050611be781612cea565b92915050565b600081359050611bfc81612d01565b92915050565b600081519050611c1181612d01565b92915050565b600082601f830112611c2857600080fd5b8135611c38848260208601611b85565b91505092915050565b600081359050611c5081612d18565b92915050565b600060208284031215611c6857600080fd5b6000611c7684828501611bc3565b91505092915050565b60008060408385031215611c9257600080fd5b6000611ca085828601611bc3565b9250506020611cb185828601611bc3565b9150509250929050565b600080600060608486031215611cd057600080fd5b6000611cde86828701611bc3565b9350506020611cef86828701611bc3565b9250506040611d0086828701611c41565b9150509250925092565b60008060008060808587031215611d2057600080fd5b6000611d2e87828801611bc3565b9450506020611d3f87828801611bc3565b9350506040611d5087828801611c41565b925050606085013567ffffffffffffffff811115611d6d57600080fd5b611d7987828801611c17565b91505092959194509250565b60008060408385031215611d9857600080fd5b6000611da685828601611bc3565b9250506020611db785828601611bd8565b9150509250929050565b60008060408385031215611dd457600080fd5b6000611de285828601611bc3565b9250506020611df385828601611c41565b9150509250929050565b600060208284031215611e0f57600080fd5b6000611e1d84828501611bed565b91505092915050565b600060208284031215611e3857600080fd5b6000611e4684828501611c02565b91505092915050565b600060208284031215611e6157600080fd5b6000611e6f84828501611c41565b91505092915050565b611e81816125f2565b82525050565b611e9081612604565b82525050565b6000611ea1826124f4565b611eab818561250a565b9350611ebb818560208601612675565b611ec481612841565b840191505092915050565b6000611eda826124ff565b611ee4818561251b565b9350611ef4818560208601612675565b611efd81612841565b840191505092915050565b6000611f13826124ff565b611f1d818561252c565b9350611f2d818560208601612675565b80840191505092915050565b6000611f4660328361251b565b9150611f5182612852565b604082019050919050565b6000611f6960258361251b565b9150611f74826128a1565b604082019050919050565b6000611f8c601c8361251b565b9150611f97826128f0565b602082019050919050565b6000611faf60248361251b565b9150611fba82612919565b604082019050919050565b6000611fd260198361251b565b9150611fdd82612968565b602082019050919050565b6000611ff5602c8361251b565b915061200082612991565b604082019050919050565b600061201860388361251b565b9150612023826129e0565b604082019050919050565b600061203b602a8361251b565b915061204682612a2f565b604082019050919050565b600061205e60298361251b565b915061206982612a7e565b604082019050919050565b600061208160208361251b565b915061208c82612acd565b602082019050919050565b60006120a460318361251b565b91506120af82612af6565b604082019050919050565b60006120c7602c8361251b565b91506120d282612b45565b604082019050919050565b60006120ea602f8361251b565b91506120f582612b94565b604082019050919050565b600061210d60178361251b565b915061211882612be3565b602082019050919050565b600061213060138361251b565b915061213b82612c0c565b602082019050919050565b600061215360218361251b565b915061215e82612c35565b604082019050919050565b600061217660318361251b565b915061218182612c84565b604082019050919050565b6121958161265c565b82525050565b60006121a78285611f08565b91506121b38284611f08565b91508190509392505050565b60006020820190506121d46000830184611e78565b92915050565b60006080820190506121ef6000830187611e78565b6121fc6020830186611e78565b612209604083018561218c565b818103606083015261221b8184611e96565b905095945050505050565b600060208201905061223b6000830184611e87565b92915050565b6000602082019050818103600083015261225b8184611ecf565b905092915050565b6000602082019050818103600083015261227c81611f39565b9050919050565b6000602082019050818103600083015261229c81611f5c565b9050919050565b600060208201905081810360008301526122bc81611f7f565b9050919050565b600060208201905081810360008301526122dc81611fa2565b9050919050565b600060208201905081810360008301526122fc81611fc5565b9050919050565b6000602082019050818103600083015261231c81611fe8565b9050919050565b6000602082019050818103600083015261233c8161200b565b9050919050565b6000602082019050818103600083015261235c8161202e565b9050919050565b6000602082019050818103600083015261237c81612051565b9050919050565b6000602082019050818103600083015261239c81612074565b9050919050565b600060208201905081810360008301526123bc81612097565b9050919050565b600060208201905081810360008301526123dc816120ba565b9050919050565b600060208201905081810360008301526123fc816120dd565b9050919050565b6000602082019050818103600083015261241c81612100565b9050919050565b6000602082019050818103600083015261243c81612123565b9050919050565b6000602082019050818103600083015261245c81612146565b9050919050565b6000602082019050818103600083015261247c81612169565b9050919050565b6000602082019050612498600083018461218c565b92915050565b60006124a86124b9565b90506124b482826126da565b919050565b6000604051905090565b600067ffffffffffffffff8211156124de576124dd612812565b5b6124e782612841565b9050602081019050919050565b600081519050919050565b600081519050919050565b600082825260208201905092915050565b600082825260208201905092915050565b600081905092915050565b60006125428261265c565b915061254d8361265c565b9250827fffffffffffffffffffffffffffffffffffffffffffffffffffffffffffffffff0382111561258257612581612785565b5b828201905092915050565b60006125988261265c565b91506125a38361265c565b9250826125b3576125b26127b4565b5b828204905092915050565b60006125c98261265c565b91506125d48361265c565b9250828210156125e7576125e6612785565b5b828203905092915050565b60006125fd8261263c565b9050919050565b60008115159050919050565b60007fffffffff0000000000000000000000000000000000000000000000000000000082169050919050565b600073ffffffffffffffffffffffffffffffffffffffff82169050919050565b6000819050919050565b82818337600083830152505050565b60005b83811015612693578082015181840152602081019050612678565b838111156126a2576000848401525b50505050565b600060028204905060018216806126c057607f821691505b602082108114156126d4576126d36127e3565b5b50919050565b6126e382612841565b810181811067ffffffffffffffff8211171561270257612701612812565b5b80604052505050565b60006127168261265c565b91507fffffffffffffffffffffffffffffffffffffffffffffffffffffffffffffffff82141561274957612748612785565b5b600182019050919050565b600061275f8261265c565b915061276a8361265c565b92508261277a576127796127b4565b5b828206905092915050565b7f4e487b7100000000000000000000000000000000000000000000000000000000600052601160045260246000fd5b7f4e487b7100000000000000000000000000000000000000000000000000000000600052601260045260246000fd5b7f4e487b7100000000000000000000000000000000000000000000000000000000600052602260045260246000fd5b7f4e487b7100000000000000000000000000000000000000000000000000000000600052604160045260246000fd5b6000601f19601f8301169050919050565b7f4552433732313a207472616e7366657220746f206e6f6e20455243373231526560008201527f63656976657220696d706c656d656e7465720000000000000000000000000000602082015250565b7f4552433732313a207472616e736665722066726f6d20696e636f72726563742060008201527f6f776e6572000000000000000000000000000000000000000000000000000000602082015250565b7f4552433732313a20746f6b656e20616c7265616479206d696e74656400000000600082015250565b7f4552433732313a207472616e7366657220746f20746865207a65726f2061646460008201527f7265737300000000000000000000000000000000000000000000000000000000602082015250565b7f4552433732313a20617070726f766520746f2063616c6c657200000000000000600082015250565b7f4552433732313a206f70657261746f7220717565727920666f72206e6f6e657860008201527f697374656e7420746f6b656e0000000000000000000000000000000000000000602082015250565b7f4552433732313a20617070726f76652063616c6c6572206973206e6f74206f7760008201527f6e6572206e6f7220617070726f76656420666f7220616c6c0000000000000000602082015250565b7f4552433732313a2062616c616e636520717565727920666f7220746865207a6560008201527f726f206164647265737300000000000000000000000000000000000000000000602082015250565b7f4552433732313a206f776e657220717565727920666f72206e6f6e657869737460008201527f656e7420746f6b656e0000000000000000000000000000000000000000000000602082015250565b7f4552433732313a206d696e7420746f20746865207a65726f2061646472657373600082015250565b7f45524337323155524953746f726167653a2055524920717565727920666f722060008201527f6e6f6e6578697374656e7420746f6b656e000000000000000000000000000000602082015250565b7f4552433732313a20617070726f76656420717565727920666f72206e6f6e657860008201527f697374656e7420746f6b656e0000000000000000000000000000000000000000602082015250565b7f4552433732314d657461646174613a2055524920717565727920666f72206e6f60008201527f6e6578697374656e7420746f6b656e0000000000000000000000000000000000602082015250565b7f45746865722076616c7565206e6f7420636f7272656374000000000000000000600082015250565b7f4578636565646564206d617820737570706c7900000000000000000000000000600082015250565b7f4552433732313a20617070726f76616c20746f2063757272656e74206f776e6560008201527f7200000000000000000000000000000000000000000000000000000000000000602082015250565b7f4552433732313a207472616e736665722063616c6c6572206973206e6f74206f60008201527f776e6572206e6f7220617070726f766564000000000000000000000000000000602082015250565b612cdc816125f2565b8114612ce757600080fd5b50565b612cf381612604565b8114612cfe57600080fd5b50565b612d0a81612610565b8114612d1557600080fd5b50565b612d218161265c565b8114612d2c57600080fd5b5056fea2646970667358221220f6fcd1fc10d61fbed6a23d0bcde440c828e00163b2712b9bfdbaf71ac01a1b2664736f6c63430008040033",
  "linkReferences": {},
  "deployedLinkReferences": {}
}