{
  "_format": "hh-sol-artifact-1",
  "contractName": "UpliftDAO",
  "sourceName": "contracts/UpliftDAO.sol",
  "abi": [
    {
      "inputs": [
        {
          "internalType": "string",
          "name": "baseURI",
          "type": "string"
        }
      ],
      "stateMutability": "nonpayable",
      "type": "constructor"
    },
    {
      "stateMutability": "payable",
      "type": "fallback"
    },
    {
      "inputs": [
        {
          "internalType": "uint256",
          "name": "",
          "type": "uint256"
        }
      ],
      "name": "cohortIdToAddress",
      "outputs": [
        {
          "internalType": "address",
          "name": "",
          "type": "address"
        }
      ],
      "stateMutability": "view",
      "type": "function"
    },
    {
      "inputs": [
        {
          "internalType": "address",
          "name": "",
          "type": "address"
        }
      ],
      "name": "cohortMembers",
      "outputs": [
        {
          "internalType": "uint256",
          "name": "",
          "type": "uint256"
        }
      ],
      "stateMutability": "view",
      "type": "function"
    },
    {
      "inputs": [
        {
          "internalType": "uint256",
          "name": "",
          "type": "uint256"
        }
      ],
      "name": "cohortMemebrsArr",
      "outputs": [
        {
          "internalType": "address",
          "name": "",
          "type": "address"
        }
      ],
      "stateMutability": "view",
      "type": "function"
    },
    {
      "inputs": [
        {
          "internalType": "address",
          "name": "",
          "type": "address"
        }
      ],
      "name": "cohortStatus",
      "outputs": [
        {
          "internalType": "uint256",
          "name": "",
          "type": "uint256"
        }
      ],
      "stateMutability": "view",
      "type": "function"
    },
    {
      "inputs": [
        {
          "internalType": "uint256",
          "name": "",
          "type": "uint256"
        }
      ],
      "name": "cohortsArr",
      "outputs": [
        {
          "internalType": "address",
          "name": "",
          "type": "address"
        }
      ],
      "stateMutability": "view",
      "type": "function"
    },
    {
      "inputs": [],
      "name": "cohortsCount",
      "outputs": [
        {
          "internalType": "uint256",
          "name": "",
          "type": "uint256"
        }
      ],
      "stateMutability": "view",
      "type": "function"
    },
    {
      "inputs": [
        {
          "internalType": "string",
          "name": "_name",
          "type": "string"
        }
      ],
      "name": "createCohort",
      "outputs": [],
      "stateMutability": "nonpayable",
      "type": "function"
    },
    {
      "inputs": [],
      "name": "getCohorts",
      "outputs": [
        {
          "internalType": "address[]",
          "name": "",
          "type": "address[]"
        }
      ],
      "stateMutability": "view",
      "type": "function"
    },
    {
      "inputs": [
        {
          "internalType": "uint256",
          "name": "_cohortId",
          "type": "uint256"
        }
      ],
      "name": "joinCohort",
      "outputs": [],
      "stateMutability": "nonpayable",
      "type": "function"
    },
    {
      "inputs": [
        {
          "internalType": "uint256",
          "name": "_cohortId",
          "type": "uint256"
        }
      ],
      "name": "leaveCohort",
      "outputs": [],
      "stateMutability": "nonpayable",
      "type": "function"
    },
    {
      "inputs": [],
      "name": "nftAddress",
      "outputs": [
        {
          "internalType": "address",
          "name": "",
          "type": "address"
        }
      ],
      "stateMutability": "view",
      "type": "function"
    },
    {
      "inputs": [],
      "name": "rewardCohort",
      "outputs": [],
      "stateMutability": "nonpayable",
      "type": "function"
    },
    {
      "inputs": [],
      "name": "upliftToken",
      "outputs": [
        {
          "internalType": "address",
          "name": "",
          "type": "address"
        }
      ],
      "stateMutability": "view",
      "type": "function"
    },
    {
      "stateMutability": "payable",
      "type": "receive"
    }
  ],
  "bytecode": "0x60806040523480156200001157600080fd5b5060405162008327380380620083278339818101604052810190620000379190620001b8565b8060405162000046906200012a565b6200005291906200023e565b604051809103906000f0801580156200006f573d6000803e3d6000fd5b50600160006101000a81548173ffffffffffffffffffffffffffffffffffffffff021916908373ffffffffffffffffffffffffffffffffffffffff1602179055506000600481905550604051620000c69062000138565b604051809103906000f080158015620000e3573d6000803e3d6000fd5b506000806101000a81548173ffffffffffffffffffffffffffffffffffffffff021916908373ffffffffffffffffffffffffffffffffffffffff1602179055505062000389565b61303c80620039a083390190565b61194b80620069dc83390190565b60006200015d62000157846200028b565b62000262565b9050828152602081018484840111156200017657600080fd5b62000183848285620002dd565b509392505050565b600082601f8301126200019d57600080fd5b8151620001af84826020860162000146565b91505092915050565b600060208284031215620001cb57600080fd5b600082015167ffffffffffffffff811115620001e657600080fd5b620001f4848285016200018b565b91505092915050565b60006200020a82620002c1565b620002168185620002cc565b935062000228818560208601620002dd565b620002338162000378565b840191505092915050565b600060208201905081810360008301526200025a8184620001fd565b905092915050565b60006200026e62000281565b90506200027c828262000313565b919050565b6000604051905090565b600067ffffffffffffffff821115620002a957620002a862000349565b5b620002b48262000378565b9050602081019050919050565b600081519050919050565b600082825260208201905092915050565b60005b83811015620002fd578082015181840152602081019050620002e0565b838111156200030d576000848401525b50505050565b6200031e8262000378565b810181811067ffffffffffffffff8211171562000340576200033f62000349565b5b80604052505050565b7f4e487b7100000000000000000000000000000000000000000000000000000000600052604160045260246000fd5b6000601f19601f8301169050919050565b61360780620003996000396000f3fe608060405260043610620000d95760003560e01c8063be0af504116200008b578063d4b140ef1162000061578063d4b140ef14620002b5578063dbbf7a5714620002e3578063de86f9691462000313578063e00d971d146200035757620000e1565b8063be0af5041462000215578063c54cede11462000243578063d038df2e146200027157620000e1565b806308afd4fd14620000e35780635bf8633a14620000fd57806368e808f2146200012d5780638cab04971462000171578063a78cb7e914620001a1578063bc4726a414620001d157620000e1565b36620000e157005b005b348015620000f057600080fd5b50620000fb6200039b565b005b3480156200010a57600080fd5b5062000115620005ce565b60405162000124919062000f5e565b60405180910390f35b3480156200013a57600080fd5b5062000159600480360381019062000153919062000dc2565b620005f4565b60405162000168919062000f5e565b60405180910390f35b3480156200017e57600080fd5b506200018962000634565b60405162000198919062000f5e565b60405180910390f35b348015620001ae57600080fd5b50620001b962000658565b604051620001c8919062000fa8565b60405180910390f35b348015620001de57600080fd5b50620001fd6004803603810190620001f7919062000cdc565b620006e8565b6040516200020c919062001032565b60405180910390f35b3480156200022257600080fd5b506200024160048036038101906200023b919062000dc2565b62000700565b005b3480156200025057600080fd5b506200026f600480360381019062000269919062000d79565b6200082a565b005b3480156200027e57600080fd5b506200029d600480360381019062000297919062000cdc565b620009c8565b604051620002ac919062001032565b60405180910390f35b348015620002c257600080fd5b50620002e16004803603810190620002db919062000dc2565b620009e0565b005b348015620002f057600080fd5b50620002fb62000b0a565b6040516200030a919062001032565b60405180910390f35b3480156200032057600080fd5b506200033f600480360381019062000339919062000dc2565b62000b10565b6040516200034e919062000f5e565b60405180910390f35b3480156200036457600080fd5b506200038360048036038101906200037d919062000dc2565b62000b43565b60405162000392919062000f5e565b60405180910390f35b6000600360003373ffffffffffffffffffffffffffffffffffffffff1673ffffffffffffffffffffffffffffffffffffffff16815260200190815260200160002054141562000421576040517f08c379a0000000000000000000000000000000000000000000000000000000008152600401620004189062000fee565b60405180910390fd5b60003373ffffffffffffffffffffffffffffffffffffffff16639eab52536040518163ffffffff1660e01b815260040160006040518083038186803b1580156200046a57600080fd5b505afa1580156200047f573d6000803e3d6000fd5b505050506040513d6000823e3d601f19601f82011682018060405250810190620004aa919062000d08565b9050600080825190505b80821015620005c95760008054906101000a900473ffffffffffffffffffffffffffffffffffffffff1673ffffffffffffffffffffffffffffffffffffffff1663a9059cbb84848151811062000533577f4e487b7100000000000000000000000000000000000000000000000000000000600052603260045260246000fd5b6020026020010151600a6040518363ffffffff1660e01b81526004016200055c92919062000f7b565b602060405180830381600087803b1580156200057757600080fd5b505af11580156200058c573d6000803e3d6000fd5b505050506040513d601f19601f82011682018060405250810190620005b2919062000d4d565b508180620005c090620011ca565b925050620004b4565b505050565b600160009054906101000a900473ffffffffffffffffffffffffffffffffffffffff1681565b600681815481106200060557600080fd5b906000526020600020016000915054906101000a900473ffffffffffffffffffffffffffffffffffffffff1681565b60008054906101000a900473ffffffffffffffffffffffffffffffffffffffff1681565b60606002805480602002602001604051908101604052809291908181526020018280548015620006de57602002820191906000526020600020905b8160009054906101000a900473ffffffffffffffffffffffffffffffffffffffff1673ffffffffffffffffffffffffffffffffffffffff168152602001906001019080831162000693575b5050505050905090565b60036020528060005260406000206000915090505481565b6000600560003373ffffffffffffffffffffffffffffffffffffffff1673ffffffffffffffffffffffffffffffffffffffff168152602001908152602001600020541162000785576040517f08c379a00000000000000000000000000000000000000000000000000000000081526004016200077c9062000fcc565b60405180910390fd5b6007600082815260200190815260200160002060009054906101000a900473ffffffffffffffffffffffffffffffffffffffff1673ffffffffffffffffffffffffffffffffffffffff1663bedf77a6336040518263ffffffff1660e01b8152600401620007f3919062000f5e565b600060405180830381600087803b1580156200080e57600080fd5b505af115801562000823573d6000803e3d6000fd5b5050505050565b6000600560003373ffffffffffffffffffffffffffffffffffffffff1673ffffffffffffffffffffffffffffffffffffffff1681526020019081526020016000205414620008af576040517f08c379a0000000000000000000000000000000000000000000000000000000008152600401620008a69062001010565b60405180910390fd5b60006004548383604051620008c49062000b83565b620008d2939291906200104f565b604051809103906000f080158015620008ef573d6000803e3d6000fd5b5090508060076000600454815260200190815260200160002060006101000a81548173ffffffffffffffffffffffffffffffffffffffff021916908373ffffffffffffffffffffffffffffffffffffffff1602179055506002819080600181540180825580915050600190039060005260206000200160009091909190916101000a81548173ffffffffffffffffffffffffffffffffffffffff021916908373ffffffffffffffffffffffffffffffffffffffff16021790555060046000815480929190620009be90620011ca565b9190505550505050565b60056020528060005260406000206000915090505481565b6000600560003373ffffffffffffffffffffffffffffffffffffffff1673ffffffffffffffffffffffffffffffffffffffff168152602001908152602001600020541462000a65576040517f08c379a000000000000000000000000000000000000000000000000000000000815260040162000a5c9062001010565b60405180910390fd5b6007600082815260200190815260200160002060009054906101000a900473ffffffffffffffffffffffffffffffffffffffff1673ffffffffffffffffffffffffffffffffffffffff166328ffe6c8336040518263ffffffff1660e01b815260040162000ad3919062000f5e565b600060405180830381600087803b15801562000aee57600080fd5b505af115801562000b03573d6000803e3d6000fd5b5050505050565b60045481565b60076020528060005260406000206000915054906101000a900473ffffffffffffffffffffffffffffffffffffffff1681565b6002818154811062000b5457600080fd5b906000526020600020016000915054906101000a900473ffffffffffffffffffffffffffffffffffffffff1681565b612281806200135183390190565b600062000ba862000ba284620010ae565b62001085565b9050808382526020820190508285602086028201111562000bc857600080fd5b60005b8581101562000bfc578162000be1888262000c1d565b84526020840193506020830192505060018101905062000bcb565b5050509392505050565b60008135905062000c178162001302565b92915050565b60008151905062000c2e8162001302565b92915050565b600082601f83011262000c4657600080fd5b815162000c5884826020860162000b91565b91505092915050565b60008151905062000c72816200131c565b92915050565b60008083601f84011262000c8b57600080fd5b8235905067ffffffffffffffff81111562000ca557600080fd5b60208301915083600182028301111562000cbe57600080fd5b9250929050565b60008135905062000cd68162001336565b92915050565b60006020828403121562000cef57600080fd5b600062000cff8482850162000c06565b91505092915050565b60006020828403121562000d1b57600080fd5b600082015167ffffffffffffffff81111562000d3657600080fd5b62000d448482850162000c34565b91505092915050565b60006020828403121562000d6057600080fd5b600062000d708482850162000c61565b91505092915050565b6000806020838503121562000d8d57600080fd5b600083013567ffffffffffffffff81111562000da857600080fd5b62000db68582860162000c78565b92509250509250929050565b60006020828403121562000dd557600080fd5b600062000de58482850162000cc5565b91505092915050565b600062000dfc838362000e08565b60208301905092915050565b62000e138162001127565b82525050565b62000e248162001127565b82525050565b600062000e3782620010ed565b62000e43818562001105565b935062000e5083620010dd565b8060005b8381101562000e8757815162000e6b888262000dee565b975062000e7883620010f8565b92505060018101905062000e54565b5085935050505092915050565b62000e9f8162001171565b82525050565b600062000eb3838562001116565b935062000ec283858462001185565b62000ecd8362001276565b840190509392505050565b600062000ee760138362001116565b915062000ef48262001287565b602082019050919050565b600062000f0e600f8362001116565b915062000f1b82620012b0565b602082019050919050565b600062000f3560108362001116565b915062000f4282620012d9565b602082019050919050565b62000f588162001167565b82525050565b600060208201905062000f75600083018462000e19565b92915050565b600060408201905062000f92600083018562000e19565b62000fa1602083018462000e94565b9392505050565b6000602082019050818103600083015262000fc4818462000e2a565b905092915050565b6000602082019050818103600083015262000fe78162000ed8565b9050919050565b60006020820190508181036000830152620010098162000eff565b9050919050565b600060208201905081810360008301526200102b8162000f26565b9050919050565b600060208201905062001049600083018462000f4d565b92915050565b600060408201905062001066600083018662000f4d565b81810360208301526200107b81848662000ea5565b9050949350505050565b600062001091620010a4565b90506200109f828262001194565b919050565b6000604051905090565b600067ffffffffffffffff821115620010cc57620010cb62001247565b5b602082029050602081019050919050565b6000819050602082019050919050565b600081519050919050565b6000602082019050919050565b600082825260208201905092915050565b600082825260208201905092915050565b6000620011348262001147565b9050919050565b60008115159050919050565b600073ffffffffffffffffffffffffffffffffffffffff82169050919050565b6000819050919050565b60006200117e8262001167565b9050919050565b82818337600083830152505050565b6200119f8262001276565b810181811067ffffffffffffffff82111715620011c157620011c062001247565b5b80604052505050565b6000620011d78262001167565b91507fffffffffffffffffffffffffffffffffffffffffffffffffffffffffffffffff8214156200120d576200120c62001218565b5b600182019050919050565b7f4e487b7100000000000000000000000000000000000000000000000000000000600052601160045260246000fd5b7f4e487b7100000000000000000000000000000000000000000000000000000000600052604160045260246000fd5b6000601f19601f8301169050919050565b7f6e6f74206120636f686f7274206d656d62657200000000000000000000000000600082015250565b7f6f6e6c7920666f7220636f686f72740000000000000000000000000000000000600082015250565b7f616c72656164792061206d656d62657200000000000000000000000000000000600082015250565b6200130d8162001127565b81146200131957600080fd5b50565b62001327816200113b565b81146200133357600080fd5b50565b620013418162001167565b81146200134d57600080fd5b5056fe608060405260006001553480156200001657600080fd5b50604051620022813803806200228183398181016040528101906200003c9190620001de565b8160008190555080600290805190602001906200005b929190620000a5565b5033600360006101000a81548173ffffffffffffffffffffffffffffffffffffffff021916908373ffffffffffffffffffffffffffffffffffffffff1602179055505050620003cc565b828054620000b390620002d7565b90600052602060002090601f016020900481019282620000d7576000855562000123565b82601f10620000f257805160ff191683800117855562000123565b8280016001018555821562000123579182015b828111156200012257825182559160200191906001019062000105565b5b50905062000132919062000136565b5090565b5b808211156200015157600081600090555060010162000137565b5090565b60006200016c620001668462000261565b62000238565b9050828152602081018484840111156200018557600080fd5b62000192848285620002a1565b509392505050565b600082601f830112620001ac57600080fd5b8151620001be84826020860162000155565b91505092915050565b600081519050620001d881620003b2565b92915050565b60008060408385031215620001f257600080fd5b60006200020285828601620001c7565b925050602083015167ffffffffffffffff8111156200022057600080fd5b6200022e858286016200019a565b9150509250929050565b60006200024462000257565b90506200025282826200030d565b919050565b6000604051905090565b600067ffffffffffffffff8211156200027f576200027e62000372565b5b6200028a82620003a1565b9050602081019050919050565b6000819050919050565b60005b83811015620002c1578082015181840152602081019050620002a4565b83811115620002d1576000848401525b50505050565b60006002820490506001821680620002f057607f821691505b6020821081141562000307576200030662000343565b5b50919050565b6200031882620003a1565b810181811067ffffffffffffffff821117156200033a576200033962000372565b5b80604052505050565b7f4e487b7100000000000000000000000000000000000000000000000000000000600052602260045260246000fd5b7f4e487b7100000000000000000000000000000000000000000000000000000000600052604160045260246000fd5b6000601f19601f8301169050919050565b620003bd8162000297565b8114620003c957600080fd5b50565b611ea580620003dc6000396000f3fe608060405234801561001057600080fd5b50600436106100cf5760003560e01c80635daf08ca1161008c5780639eab5253116100665780639eab5253146101ec578063af640d0f1461020a578063b6a016d414610228578063bedf77a614610246576100cf565b80635daf08ca1461018057806361503e45146101b057806373cd8336146101ce576100cf565b80630657f4d4146100d457806306fdde03146100f057806312abb5bb1461010e5780631d0b28901461012a57806328ffe6c8146101465780634162169f14610162575b600080fd5b6100ee60048036038101906100e991906114e1565b610262565b005b6100f8610608565b604051610105919061189f565b60405180910390f35b61012860048036038101906101239190611477565b610696565b005b610144600480360381019061013f9190611477565b6108a8565b005b610160600480360381019061015b919061144e565b610945565b005b61016a610ac8565b6040516101779190611840565b60405180910390f35b61019a600480360381019061019591906114b8565b610aee565b6040516101a79190611840565b60405180910390f35b6101b8610b2d565b6040516101c5919061187d565b60405180910390f35b6101d6610d4b565b6040516101e39190611981565b60405180910390f35b6101f4610d51565b604051610201919061185b565b60405180910390f35b610212610ddf565b60405161021f9190611981565b60405180910390f35b610230610de5565b60405161023d919061189f565b60405180910390f35b610260600480360381019061025b919061144e565b610e73565b005b6000600660003373ffffffffffffffffffffffffffffffffffffffff1673ffffffffffffffffffffffffffffffffffffffff1681526020019081526020016000205414156102e5576040517f08c379a00000000000000000000000000000000000000000000000000000000081526004016102dc906118e1565b60405180910390fd5b6000600281111561031f577f4e487b7100000000000000000000000000000000000000000000000000000000600052602160045260246000fd5b60078381548110610359577f4e487b7100000000000000000000000000000000000000000000000000000000600052603260045260246000fd5b906000526020600020906005020160020160009054906101000a900460ff1660028111156103b0577f4e487b7100000000000000000000000000000000000000000000000000000000600052602160045260246000fd5b146103f0576040517f08c379a00000000000000000000000000000000000000000000000000000000081526004016103e790611941565b60405180910390fd5b60086000838152602001908152602001600020339080600181540180825580915050600190039060005260206000200160009091909190916101000a81548173ffffffffffffffffffffffffffffffffffffffff021916908373ffffffffffffffffffffffffffffffffffffffff16021790555060058054905060086000848152602001908152602001600020805490501415610604576001600783815481106104c3577f4e487b7100000000000000000000000000000000000000000000000000000000600052603260045260246000fd5b906000526020600020906005020160020160006101000a81548160ff0219169083600281111561051c577f4e487b7100000000000000000000000000000000000000000000000000000000600052602160045260246000fd5b0217905550806007838154811061055c577f4e487b7100000000000000000000000000000000000000000000000000000000600052603260045260246000fd5b9060005260206000209060050201600301908051906020019061058092919061128f565b50600360009054906101000a900473ffffffffffffffffffffffffffffffffffffffff1673ffffffffffffffffffffffffffffffffffffffff166308afd4fd6040518163ffffffff1660e01b8152600401600060405180830381600087803b1580156105eb57600080fd5b505af11580156105ff573d6000803e3d6000fd5b505050505b5050565b6002805461061590611bbe565b80601f016020809104026020016040519081016040528092919081815260200182805461064190611bbe565b801561068e5780601f106106635761010080835404028352916020019161068e565b820191906000526020600020905b81548152906001019060200180831161067157829003601f168201915b505050505081565b6000600660003373ffffffffffffffffffffffffffffffffffffffff1673ffffffffffffffffffffffffffffffffffffffff168152602001908152602001600020541415610719576040517f08c379a0000000000000000000000000000000000000000000000000000000008152600401610710906118e1565b60405180910390fd5b60076040518060a0016040528060015481526020018381526020016000600281111561076e577f4e487b7100000000000000000000000000000000000000000000000000000000600052602160045260246000fd5b815260200160405180602001604052806000815250815260200160058054905081525090806001815401808255809150506001900390600052602060002090600502016000909190919091506000820151816000015560208201518160010190805190602001906107e092919061128f565b5060408201518160020160006101000a81548160ff02191690836002811115610832577f4e487b7100000000000000000000000000000000000000000000000000000000600052602160045260246000fd5b0217905550606082015181600301908051906020019061085392919061128f565b50608082015181600401555050606080600860006001548152602001908152602001600020908051906020019061088b929190611315565b506001600081548092919061089f90611c21565b91905055505050565b6000600660003373ffffffffffffffffffffffffffffffffffffffff1673ffffffffffffffffffffffffffffffffffffffff16815260200190815260200160002054141561092b576040517f08c379a0000000000000000000000000000000000000000000000000000000008152600401610922906118e1565b60405180910390fd5b806004908051906020019061094192919061128f565b5050565b600360009054906101000a900473ffffffffffffffffffffffffffffffffffffffff1673ffffffffffffffffffffffffffffffffffffffff163373ffffffffffffffffffffffffffffffffffffffff16146109d5576040517f08c379a00000000000000000000000000000000000000000000000000000000081526004016109cc90611901565b60405180910390fd5b60076005805490501115610a1e576040517f08c379a0000000000000000000000000000000000000000000000000000000008152600401610a1590611921565b60405180910390fd5b6005819080600181540180825580915050600190039060005260206000200160009091909190916101000a81548173ffffffffffffffffffffffffffffffffffffffff021916908373ffffffffffffffffffffffffffffffffffffffff16021790555042600660008373ffffffffffffffffffffffffffffffffffffffff1673ffffffffffffffffffffffffffffffffffffffff1681526020019081526020016000208190555050565b600360009054906101000a900473ffffffffffffffffffffffffffffffffffffffff1681565b60058181548110610afe57600080fd5b906000526020600020016000915054906101000a900473ffffffffffffffffffffffffffffffffffffffff1681565b60606007805480602002602001604051908101604052809291908181526020016000905b82821015610d4257838290600052602060002090600502016040518060a001604052908160008201548152602001600182018054610b8e90611bbe565b80601f0160208091040260200160405190810160405280929190818152602001828054610bba90611bbe565b8015610c075780601f10610bdc57610100808354040283529160200191610c07565b820191906000526020600020905b815481529060010190602001808311610bea57829003601f168201915b505050505081526020016002820160009054906101000a900460ff166002811115610c5b577f4e487b7100000000000000000000000000000000000000000000000000000000600052602160045260246000fd5b6002811115610c93577f4e487b7100000000000000000000000000000000000000000000000000000000600052602160045260246000fd5b8152602001600382018054610ca790611bbe565b80601f0160208091040260200160405190810160405280929190818152602001828054610cd390611bbe565b8015610d205780601f10610cf557610100808354040283529160200191610d20565b820191906000526020600020905b815481529060010190602001808311610d0357829003601f168201915b5050505050815260200160048201548152505081526020019060010190610b51565b50505050905090565b60015481565b60606005805480602002602001604051908101604052809291908181526020018280548015610dd557602002820191906000526020600020905b8160009054906101000a900473ffffffffffffffffffffffffffffffffffffffff1673ffffffffffffffffffffffffffffffffffffffff1681526020019060010190808311610d8b575b5050505050905090565b60005481565b60048054610df290611bbe565b80601f0160208091040260200160405190810160405280929190818152602001828054610e1e90611bbe565b8015610e6b5780601f10610e4057610100808354040283529160200191610e6b565b820191906000526020600020905b815481529060010190602001808311610e4e57829003601f168201915b505050505081565b600360009054906101000a900473ffffffffffffffffffffffffffffffffffffffff1673ffffffffffffffffffffffffffffffffffffffff163373ffffffffffffffffffffffffffffffffffffffff1614610f03576040517f08c379a0000000000000000000000000000000000000000000000000000000008152600401610efa90611901565b60405180910390fd5b6000600660008373ffffffffffffffffffffffffffffffffffffffff1673ffffffffffffffffffffffffffffffffffffffff168152602001908152602001600020541415610f86576040517f08c379a0000000000000000000000000000000000000000000000000000000008152600401610f7d906118c1565b60405180910390fd5b426276a700600660008473ffffffffffffffffffffffffffffffffffffffff1673ffffffffffffffffffffffffffffffffffffffff16815260200190815260200160002054610fd59190611a91565b10611015576040517f08c379a000000000000000000000000000000000000000000000000000000000815260040161100c90611961565b60405180910390fd5b600660008273ffffffffffffffffffffffffffffffffffffffff1673ffffffffffffffffffffffffffffffffffffffff1681526020019081526020016000206000905560008060058054905090505b8082101561128a578273ffffffffffffffffffffffffffffffffffffffff16600583815481106110bd577f4e487b7100000000000000000000000000000000000000000000000000000000600052603260045260246000fd5b9060005260206000200160009054906101000a900473ffffffffffffffffffffffffffffffffffffffff1673ffffffffffffffffffffffffffffffffffffffff161415611277576005828154811061113e577f4e487b7100000000000000000000000000000000000000000000000000000000600052603260045260246000fd5b9060005260206000200160006101000a81549073ffffffffffffffffffffffffffffffffffffffff02191690556001816111789190611ae7565b821461127257600560018261118d9190611ae7565b815481106111c4577f4e487b7100000000000000000000000000000000000000000000000000000000600052603260045260246000fd5b9060005260206000200160009054906101000a900473ffffffffffffffffffffffffffffffffffffffff1660058381548110611229577f4e487b7100000000000000000000000000000000000000000000000000000000600052603260045260246000fd5b9060005260206000200160006101000a81548173ffffffffffffffffffffffffffffffffffffffff021916908373ffffffffffffffffffffffffffffffffffffffff1602179055505b61128a565b818061128290611c21565b925050611064565b505050565b82805461129b90611bbe565b90600052602060002090601f0160209004810192826112bd5760008555611304565b82601f106112d657805160ff1916838001178555611304565b82800160010185558215611304579182015b828111156113035782518255916020019190600101906112e8565b5b509050611311919061139f565b5090565b82805482825590600052602060002090810192821561138e579160200282015b8281111561138d5782518260006101000a81548173ffffffffffffffffffffffffffffffffffffffff021916908373ffffffffffffffffffffffffffffffffffffffff16021790555091602001919060010190611335565b5b50905061139b919061139f565b5090565b5b808211156113b85760008160009055506001016113a0565b5090565b60006113cf6113ca846119c1565b61199c565b9050828152602081018484840111156113e757600080fd5b6113f2848285611b7c565b509392505050565b60008135905061140981611e41565b92915050565b600082601f83011261142057600080fd5b81356114308482602086016113bc565b91505092915050565b60008135905061144881611e58565b92915050565b60006020828403121561146057600080fd5b600061146e848285016113fa565b91505092915050565b60006020828403121561148957600080fd5b600082013567ffffffffffffffff8111156114a357600080fd5b6114af8482850161140f565b91505092915050565b6000602082840312156114ca57600080fd5b60006114d884828501611439565b91505092915050565b600080604083850312156114f457600080fd5b600061150285828601611439565b925050602083013567ffffffffffffffff81111561151f57600080fd5b61152b8582860161140f565b9150509250929050565b60006115418383611561565b60208301905092915050565b600061155983836117a5565b905092915050565b61156a81611b1b565b82525050565b61157981611b1b565b82525050565b600061158a82611a12565b6115948185611a4d565b935061159f836119f2565b8060005b838110156115d05781516115b78882611535565b97506115c283611a33565b9250506001810190506115a3565b5085935050505092915050565b60006115e882611a1d565b6115f28185611a5e565b93508360208202850161160485611a02565b8060005b858110156116405784840389528151611621858261154d565b945061162c83611a40565b925060208a01995050600181019050611608565b50829750879550505050505092915050565b61165b81611b6a565b82525050565b600061166c82611a28565b6116768185611a6f565b9350611686818560208601611b8b565b61168f81611d26565b840191505092915050565b60006116a582611a28565b6116af8185611a80565b93506116bf818560208601611b8b565b6116c881611d26565b840191505092915050565b60006116e0600f83611a80565b91506116eb82611d37565b602082019050919050565b6000611703601783611a80565b915061170e82611d60565b602082019050919050565b6000611726600c83611a80565b915061173182611d89565b602082019050919050565b6000611749600e83611a80565b915061175482611db2565b602082019050919050565b600061176c601383611a80565b915061177782611ddb565b602082019050919050565b600061178f600f83611a80565b915061179a82611e04565b602082019050919050565b600060a0830160008301516117bd6000860182611822565b50602083015184820360208601526117d58282611661565b91505060408301516117ea6040860182611652565b50606083015184820360608601526118028282611661565b91505060808301516118176080860182611822565b508091505092915050565b61182b81611b60565b82525050565b61183a81611b60565b82525050565b60006020820190506118556000830184611570565b92915050565b60006020820190508181036000830152611875818461157f565b905092915050565b6000602082019050818103600083015261189781846115dd565b905092915050565b600060208201905081810360008301526118b9818461169a565b905092915050565b600060208201905081810360008301526118da816116d3565b9050919050565b600060208201905081810360008301526118fa816116f6565b9050919050565b6000602082019050818103600083015261191a81611719565b9050919050565b6000602082019050818103600083015261193a8161173c565b9050919050565b6000602082019050818103600083015261195a8161175f565b9050919050565b6000602082019050818103600083015261197a81611782565b9050919050565b60006020820190506119966000830184611831565b92915050565b60006119a66119b7565b90506119b28282611bf0565b919050565b6000604051905090565b600067ffffffffffffffff8211156119dc576119db611cf7565b5b6119e582611d26565b9050602081019050919050565b6000819050602082019050919050565b6000819050602082019050919050565b600081519050919050565b600081519050919050565b600081519050919050565b6000602082019050919050565b6000602082019050919050565b600082825260208201905092915050565b600082825260208201905092915050565b600082825260208201905092915050565b600082825260208201905092915050565b6000611a9c82611b60565b9150611aa783611b60565b9250827fffffffffffffffffffffffffffffffffffffffffffffffffffffffffffffffff03821115611adc57611adb611c6a565b5b828201905092915050565b6000611af282611b60565b9150611afd83611b60565b925082821015611b1057611b0f611c6a565b5b828203905092915050565b6000611b2682611b40565b9050919050565b6000819050611b3b82611e2d565b919050565b600073ffffffffffffffffffffffffffffffffffffffff82169050919050565b6000819050919050565b6000611b7582611b2d565b9050919050565b82818337600083830152505050565b60005b83811015611ba9578082015181840152602081019050611b8e565b83811115611bb8576000848401525b50505050565b60006002820490506001821680611bd657607f821691505b60208210811415611bea57611be9611cc8565b5b50919050565b611bf982611d26565b810181811067ffffffffffffffff82111715611c1857611c17611cf7565b5b80604052505050565b6000611c2c82611b60565b91507fffffffffffffffffffffffffffffffffffffffffffffffffffffffffffffffff821415611c5f57611c5e611c6a565b5b600182019050919050565b7f4e487b7100000000000000000000000000000000000000000000000000000000600052601160045260246000fd5b7f4e487b7100000000000000000000000000000000000000000000000000000000600052602160045260246000fd5b7f4e487b7100000000000000000000000000000000000000000000000000000000600052602260045260246000fd5b7f4e487b7100000000000000000000000000000000000000000000000000000000600052604160045260246000fd5b6000601f19601f8301169050919050565b7f6973206e6f742061206d656d6265720000000000000000000000000000000000600082015250565b7f6f6e6c7920666f7220636f686f7274206d656d62657273000000000000000000600082015250565b7f6f6e6c7920666f722044616f0000000000000000000000000000000000000000600082015250565b7f636f686f72742069732066756c6c000000000000000000000000000000000000600082015250565b7f73657373696f6e206973206e6f74206f70656e00000000000000000000000000600082015250565b7f30302064617973206d696e696d756d0000000000000000000000000000000000600082015250565b60038110611e3e57611e3d611c99565b5b50565b611e4a81611b1b565b8114611e5557600080fd5b50565b611e6181611b60565b8114611e6c57600080fd5b5056fea26469706673582212200c3291e346ae2e323ef9aa3f5f2537180064d8e0127b61962ca60ca853bb0b0064736f6c63430008040033a264697066735822122031e182e2976660fdecbd0950486cff0dddda75e431c847189b89acde3a1955a264736f6c6343000804003360806040526127106009553480156200001757600080fd5b506040516200303c3803806200303c83398181016040528101906200003d919062000268565b6040518060400160405280600a81526020017f55706c6966742044414f000000000000000000000000000000000000000000008152506040518060400160405280600381526020017f55504400000000000000000000000000000000000000000000000000000000008152508160009080519060200190620000c192919062000146565b508060019080519060200190620000da92919062000146565b5050508060089080519060200190620000f592919062000146565b5033600a60006101000a81548173ffffffffffffffffffffffffffffffffffffffff021916908373ffffffffffffffffffffffffffffffffffffffff1602179055506000600781905550506200041d565b828054620001549062000342565b90600052602060002090601f016020900481019282620001785760008555620001c4565b82601f106200019357805160ff1916838001178555620001c4565b82800160010185558215620001c4579182015b82811115620001c3578251825591602001919060010190620001a6565b5b509050620001d39190620001d7565b5090565b5b80821115620001f2576000816000905550600101620001d8565b5090565b60006200020d6200020784620002d6565b620002ad565b9050828152602081018484840111156200022657600080fd5b620002338482856200030c565b509392505050565b600082601f8301126200024d57600080fd5b81516200025f848260208601620001f6565b91505092915050565b6000602082840312156200027b57600080fd5b600082015167ffffffffffffffff8111156200029657600080fd5b620002a4848285016200023b565b91505092915050565b6000620002b9620002cc565b9050620002c7828262000378565b919050565b6000604051905090565b600067ffffffffffffffff821115620002f457620002f3620003dd565b5b620002ff826200040c565b9050602081019050919050565b60005b838110156200032c5780820151818401526020810190506200030f565b838111156200033c576000848401525b50505050565b600060028204905060018216806200035b57607f821691505b60208210811415620003725762000371620003ae565b5b50919050565b62000383826200040c565b810181811067ffffffffffffffff82111715620003a557620003a4620003dd565b5b80604052505050565b7f4e487b7100000000000000000000000000000000000000000000000000000000600052602260045260246000fd5b7f4e487b7100000000000000000000000000000000000000000000000000000000600052604160045260246000fd5b6000601f19601f8301169050919050565b612c0f806200042d6000396000f3fe60806040526004361061010d5760003560e01c80636352211e11610095578063b810cf2b11610064578063b810cf2b14610364578063b88d4fde1461038f578063c87b56dd146103b8578063d547cfb7146103f5578063e985e9c51461042057610114565b80636352211e1461029657806370a08231146102d357806395d89b4114610310578063a22cb4651461033b57610114565b80631249c58b116100dc5780631249c58b146101e457806317d70f7c146101ee57806323b872dd1461021957806342842e0e146102425780635f7696211461026b57610114565b806301ffc9a71461011657806306fdde0314610153578063081812fc1461017e578063095ea7b3146101bb57610114565b3661011457005b005b34801561012257600080fd5b5061013d60048036038101906101389190611d13565b61045d565b60405161014a9190612119565b60405180910390f35b34801561015f57600080fd5b5061016861053f565b6040516101759190612134565b60405180910390f35b34801561018a57600080fd5b506101a560048036038101906101a09190611d65565b6105d1565b6040516101b291906120b2565b60405180910390f35b3480156101c757600080fd5b506101e260048036038101906101dd9190611cd7565b610656565b005b6101ec61076e565b005b3480156101fa57600080fd5b506102036107da565b6040516102109190612356565b60405180910390f35b34801561022557600080fd5b50610240600480360381019061023b9190611bd1565b6107e0565b005b34801561024e57600080fd5b5061026960048036038101906102649190611bd1565b610840565b005b34801561027757600080fd5b50610280610860565b60405161028d9190612356565b60405180910390f35b3480156102a257600080fd5b506102bd60048036038101906102b89190611d65565b610866565b6040516102ca91906120b2565b60405180910390f35b3480156102df57600080fd5b506102fa60048036038101906102f59190611b6c565b610918565b6040516103079190612356565b60405180910390f35b34801561031c57600080fd5b506103256109d0565b6040516103329190612134565b60405180910390f35b34801561034757600080fd5b50610362600480360381019061035d9190611c9b565b610a62565b005b34801561037057600080fd5b50610379610a78565b60405161038691906120b2565b60405180910390f35b34801561039b57600080fd5b506103b660048036038101906103b19190611c20565b610a9e565b005b3480156103c457600080fd5b506103df60048036038101906103da9190611d65565b610b00565b6040516103ec9190612134565b60405180910390f35b34801561040157600080fd5b5061040a610c52565b6040516104179190612134565b60405180910390f35b34801561042c57600080fd5b5061044760048036038101906104429190611b95565b610ce0565b6040516104549190612119565b60405180910390f35b60007f80ac58cd000000000000000000000000000000000000000000000000000000007bffffffffffffffffffffffffffffffffffffffffffffffffffffffff1916827bffffffffffffffffffffffffffffffffffffffffffffffffffffffff1916148061052857507f5b5e139f000000000000000000000000000000000000000000000000000000007bffffffffffffffffffffffffffffffffffffffffffffffffffffffff1916827bffffffffffffffffffffffffffffffffffffffffffffffffffffffff1916145b80610538575061053782610d74565b5b9050919050565b60606000805461054e9061257b565b80601f016020809104026020016040519081016040528092919081815260200182805461057a9061257b565b80156105c75780601f1061059c576101008083540402835291602001916105c7565b820191906000526020600020905b8154815290600101906020018083116105aa57829003601f168201915b5050505050905090565b60006105dc82610dde565b61061b576040517f08c379a0000000000000000000000000000000000000000000000000000000008152600401610612906122b6565b60405180910390fd5b6004600083815260200190815260200160002060009054906101000a900473ffffffffffffffffffffffffffffffffffffffff169050919050565b600061066182610866565b90508073ffffffffffffffffffffffffffffffffffffffff168373ffffffffffffffffffffffffffffffffffffffff1614156106d2576040517f08c379a00000000000000000000000000000000000000000000000000000000081526004016106c990612316565b60405180910390fd5b8073ffffffffffffffffffffffffffffffffffffffff166106f1610e4a565b73ffffffffffffffffffffffffffffffffffffffff161480610720575061071f8161071a610e4a565b610ce0565b5b61075f576040517f08c379a000000000000000000000000000000000000000000000000000000000815260040161075690612216565b60405180910390fd5b6107698383610e52565b505050565b600954600754106107b4576040517f08c379a00000000000000000000000000000000000000000000000000000000081526004016107ab906122f6565b60405180910390fd5b6107c033600754610f0b565b600760008154809291906107d3906125de565b9190505550565b60075481565b6107f16107eb610e4a565b82610f29565b610830576040517f08c379a000000000000000000000000000000000000000000000000000000000815260040161082790612336565b60405180910390fd5b61083b838383611007565b505050565b61085b83838360405180602001604052806000815250610a9e565b505050565b60095481565b6000806002600084815260200190815260200160002060009054906101000a900473ffffffffffffffffffffffffffffffffffffffff169050600073ffffffffffffffffffffffffffffffffffffffff168173ffffffffffffffffffffffffffffffffffffffff16141561090f576040517f08c379a000000000000000000000000000000000000000000000000000000000815260040161090690612256565b60405180910390fd5b80915050919050565b60008073ffffffffffffffffffffffffffffffffffffffff168273ffffffffffffffffffffffffffffffffffffffff161415610989576040517f08c379a000000000000000000000000000000000000000000000000000000000815260040161098090612236565b60405180910390fd5b600360008373ffffffffffffffffffffffffffffffffffffffff1673ffffffffffffffffffffffffffffffffffffffff168152602001908152602001600020549050919050565b6060600180546109df9061257b565b80601f0160208091040260200160405190810160405280929190818152602001828054610a0b9061257b565b8015610a585780601f10610a2d57610100808354040283529160200191610a58565b820191906000526020600020905b815481529060010190602001808311610a3b57829003601f168201915b5050505050905090565b610a74610a6d610e4a565b838361126e565b5050565b600a60009054906101000a900473ffffffffffffffffffffffffffffffffffffffff1681565b610aaf610aa9610e4a565b83610f29565b610aee576040517f08c379a0000000000000000000000000000000000000000000000000000000008152600401610ae590612336565b60405180910390fd5b610afa848484846113db565b50505050565b6060610b0b82610dde565b610b4a576040517f08c379a0000000000000000000000000000000000000000000000000000000008152600401610b4190612296565b60405180910390fd5b6000600660008481526020019081526020016000208054610b6a9061257b565b80601f0160208091040260200160405190810160405280929190818152602001828054610b969061257b565b8015610be35780601f10610bb857610100808354040283529160200191610be3565b820191906000526020600020905b815481529060010190602001808311610bc657829003601f168201915b505050505090506000610bf4611437565b9050600081511415610c0a578192505050610c4d565b600082511115610c3f578082604051602001610c2792919061208e565b60405160208183030381529060405292505050610c4d565b610c488461144e565b925050505b919050565b60088054610c5f9061257b565b80601f0160208091040260200160405190810160405280929190818152602001828054610c8b9061257b565b8015610cd85780601f10610cad57610100808354040283529160200191610cd8565b820191906000526020600020905b815481529060010190602001808311610cbb57829003601f168201915b505050505081565b6000600560008473ffffffffffffffffffffffffffffffffffffffff1673ffffffffffffffffffffffffffffffffffffffff16815260200190815260200160002060008373ffffffffffffffffffffffffffffffffffffffff1673ffffffffffffffffffffffffffffffffffffffff16815260200190815260200160002060009054906101000a900460ff16905092915050565b60007f01ffc9a7000000000000000000000000000000000000000000000000000000007bffffffffffffffffffffffffffffffffffffffffffffffffffffffff1916827bffffffffffffffffffffffffffffffffffffffffffffffffffffffff1916149050919050565b60008073ffffffffffffffffffffffffffffffffffffffff166002600084815260200190815260200160002060009054906101000a900473ffffffffffffffffffffffffffffffffffffffff1673ffffffffffffffffffffffffffffffffffffffff1614159050919050565b600033905090565b816004600083815260200190815260200160002060006101000a81548173ffffffffffffffffffffffffffffffffffffffff021916908373ffffffffffffffffffffffffffffffffffffffff160217905550808273ffffffffffffffffffffffffffffffffffffffff16610ec583610866565b73ffffffffffffffffffffffffffffffffffffffff167f8c5be1e5ebec7d5bd14f71427d1e84f3dd0314c0f7b2291e5b200ac8c7c3b92560405160405180910390a45050565b610f258282604051806020016040528060008152506114f5565b5050565b6000610f3482610dde565b610f73576040517f08c379a0000000000000000000000000000000000000000000000000000000008152600401610f6a906121f6565b60405180910390fd5b6000610f7e83610866565b90508073ffffffffffffffffffffffffffffffffffffffff168473ffffffffffffffffffffffffffffffffffffffff161480610fc05750610fbf8185610ce0565b5b80610ffe57508373ffffffffffffffffffffffffffffffffffffffff16610fe6846105d1565b73ffffffffffffffffffffffffffffffffffffffff16145b91505092915050565b8273ffffffffffffffffffffffffffffffffffffffff1661102782610866565b73ffffffffffffffffffffffffffffffffffffffff161461107d576040517f08c379a000000000000000000000000000000000000000000000000000000000815260040161107490612176565b60405180910390fd5b600073ffffffffffffffffffffffffffffffffffffffff168273ffffffffffffffffffffffffffffffffffffffff1614156110ed576040517f08c379a00000000000000000000000000000000000000000000000000000000081526004016110e4906121b6565b60405180910390fd5b6110f8838383611550565b611103600082610e52565b6001600360008573ffffffffffffffffffffffffffffffffffffffff1673ffffffffffffffffffffffffffffffffffffffff16815260200190815260200160002060008282546111539190612491565b925050819055506001600360008473ffffffffffffffffffffffffffffffffffffffff1673ffffffffffffffffffffffffffffffffffffffff16815260200190815260200160002060008282546111aa919061240a565b92505081905550816002600083815260200190815260200160002060006101000a81548173ffffffffffffffffffffffffffffffffffffffff021916908373ffffffffffffffffffffffffffffffffffffffff160217905550808273ffffffffffffffffffffffffffffffffffffffff168473ffffffffffffffffffffffffffffffffffffffff167fddf252ad1be2c89b69c2b068fc378daa952ba7f163c4a11628f55a4df523b3ef60405160405180910390a4611269838383611555565b505050565b8173ffffffffffffffffffffffffffffffffffffffff168373ffffffffffffffffffffffffffffffffffffffff1614156112dd576040517f08c379a00000000000000000000000000000000000000000000000000000000081526004016112d4906121d6565b60405180910390fd5b80600560008573ffffffffffffffffffffffffffffffffffffffff1673ffffffffffffffffffffffffffffffffffffffff16815260200190815260200160002060008473ffffffffffffffffffffffffffffffffffffffff1673ffffffffffffffffffffffffffffffffffffffff16815260200190815260200160002060006101000a81548160ff0219169083151502179055508173ffffffffffffffffffffffffffffffffffffffff168373ffffffffffffffffffffffffffffffffffffffff167f17307eab39ab6107e8899845ad3d59bd9653f200f220920489ca2b5937696c31836040516113ce9190612119565b60405180910390a3505050565b6113e6848484611007565b6113f28484848461155a565b611431576040517f08c379a000000000000000000000000000000000000000000000000000000000815260040161142890612156565b60405180910390fd5b50505050565b606060405180602001604052806000815250905090565b606061145982610dde565b611498576040517f08c379a000000000000000000000000000000000000000000000000000000000815260040161148f906122d6565b60405180910390fd5b60006114a2611437565b905060008151116114c257604051806020016040528060008152506114ed565b806114cc846116f1565b6040516020016114dd92919061208e565b6040516020818303038152906040525b915050919050565b6114ff838361189e565b61150c600084848461155a565b61154b576040517f08c379a000000000000000000000000000000000000000000000000000000000815260040161154290612156565b60405180910390fd5b505050565b505050565b505050565b600061157b8473ffffffffffffffffffffffffffffffffffffffff16611a78565b156116e4578373ffffffffffffffffffffffffffffffffffffffff1663150b7a026115a4610e4a565b8786866040518563ffffffff1660e01b81526004016115c694939291906120cd565b602060405180830381600087803b1580156115e057600080fd5b505af192505050801561161157506040513d601f19601f8201168201806040525081019061160e9190611d3c565b60015b611694573d8060008114611641576040519150601f19603f3d011682016040523d82523d6000602084013e611646565b606091505b5060008151141561168c576040517f08c379a000000000000000000000000000000000000000000000000000000000815260040161168390612156565b60405180910390fd5b805181602001fd5b63150b7a0260e01b7bffffffffffffffffffffffffffffffffffffffffffffffffffffffff1916817bffffffffffffffffffffffffffffffffffffffffffffffffffffffff1916149150506116e9565b600190505b949350505050565b60606000821415611739576040518060400160405280600181526020017f30000000000000000000000000000000000000000000000000000000000000008152509050611899565b600082905060005b6000821461176b578080611754906125de565b915050600a826117649190612460565b9150611741565b60008167ffffffffffffffff8111156117ad577f4e487b7100000000000000000000000000000000000000000000000000000000600052604160045260246000fd5b6040519080825280601f01601f1916602001820160405280156117df5781602001600182028036833780820191505090505b5090505b60008514611892576001826117f89190612491565b9150600a856118079190612627565b6030611813919061240a565b60f81b81838151811061184f577f4e487b7100000000000000000000000000000000000000000000000000000000600052603260045260246000fd5b60200101907effffffffffffffffffffffffffffffffffffffffffffffffffffffffffffff1916908160001a905350600a8561188b9190612460565b94506117e3565b8093505050505b919050565b600073ffffffffffffffffffffffffffffffffffffffff168273ffffffffffffffffffffffffffffffffffffffff16141561190e576040517f08c379a000000000000000000000000000000000000000000000000000000000815260040161190590612276565b60405180910390fd5b61191781610dde565b15611957576040517f08c379a000000000000000000000000000000000000000000000000000000000815260040161194e90612196565b60405180910390fd5b61196360008383611550565b6001600360008473ffffffffffffffffffffffffffffffffffffffff1673ffffffffffffffffffffffffffffffffffffffff16815260200190815260200160002060008282546119b3919061240a565b92505081905550816002600083815260200190815260200160002060006101000a81548173ffffffffffffffffffffffffffffffffffffffff021916908373ffffffffffffffffffffffffffffffffffffffff160217905550808273ffffffffffffffffffffffffffffffffffffffff16600073ffffffffffffffffffffffffffffffffffffffff167fddf252ad1be2c89b69c2b068fc378daa952ba7f163c4a11628f55a4df523b3ef60405160405180910390a4611a7460008383611555565b5050565b6000808273ffffffffffffffffffffffffffffffffffffffff163b119050919050565b6000611aae611aa984612396565b612371565b905082815260208101848484011115611ac657600080fd5b611ad1848285612539565b509392505050565b600081359050611ae881612b7d565b92915050565b600081359050611afd81612b94565b92915050565b600081359050611b1281612bab565b92915050565b600081519050611b2781612bab565b92915050565b600082601f830112611b3e57600080fd5b8135611b4e848260208601611a9b565b91505092915050565b600081359050611b6681612bc2565b92915050565b600060208284031215611b7e57600080fd5b6000611b8c84828501611ad9565b91505092915050565b60008060408385031215611ba857600080fd5b6000611bb685828601611ad9565b9250506020611bc785828601611ad9565b9150509250929050565b600080600060608486031215611be657600080fd5b6000611bf486828701611ad9565b9350506020611c0586828701611ad9565b9250506040611c1686828701611b57565b9150509250925092565b60008060008060808587031215611c3657600080fd5b6000611c4487828801611ad9565b9450506020611c5587828801611ad9565b9350506040611c6687828801611b57565b925050606085013567ffffffffffffffff811115611c8357600080fd5b611c8f87828801611b2d565b91505092959194509250565b60008060408385031215611cae57600080fd5b6000611cbc85828601611ad9565b9250506020611ccd85828601611aee565b9150509250929050565b60008060408385031215611cea57600080fd5b6000611cf885828601611ad9565b9250506020611d0985828601611b57565b9150509250929050565b600060208284031215611d2557600080fd5b6000611d3384828501611b03565b91505092915050565b600060208284031215611d4e57600080fd5b6000611d5c84828501611b18565b91505092915050565b600060208284031215611d7757600080fd5b6000611d8584828501611b57565b91505092915050565b611d97816124c5565b82525050565b611da6816124d7565b82525050565b6000611db7826123c7565b611dc181856123dd565b9350611dd1818560208601612548565b611dda81612714565b840191505092915050565b6000611df0826123d2565b611dfa81856123ee565b9350611e0a818560208601612548565b611e1381612714565b840191505092915050565b6000611e29826123d2565b611e3381856123ff565b9350611e43818560208601612548565b80840191505092915050565b6000611e5c6032836123ee565b9150611e6782612725565b604082019050919050565b6000611e7f6025836123ee565b9150611e8a82612774565b604082019050919050565b6000611ea2601c836123ee565b9150611ead826127c3565b602082019050919050565b6000611ec56024836123ee565b9150611ed0826127ec565b604082019050919050565b6000611ee86019836123ee565b9150611ef38261283b565b602082019050919050565b6000611f0b602c836123ee565b9150611f1682612864565b604082019050919050565b6000611f2e6038836123ee565b9150611f39826128b3565b604082019050919050565b6000611f51602a836123ee565b9150611f5c82612902565b604082019050919050565b6000611f746029836123ee565b9150611f7f82612951565b604082019050919050565b6000611f976020836123ee565b9150611fa2826129a0565b602082019050919050565b6000611fba6031836123ee565b9150611fc5826129c9565b604082019050919050565b6000611fdd602c836123ee565b9150611fe882612a18565b604082019050919050565b6000612000602f836123ee565b915061200b82612a67565b604082019050919050565b60006120236013836123ee565b915061202e82612ab6565b602082019050919050565b60006120466021836123ee565b915061205182612adf565b604082019050919050565b60006120696031836123ee565b915061207482612b2e565b604082019050919050565b6120888161252f565b82525050565b600061209a8285611e1e565b91506120a68284611e1e565b91508190509392505050565b60006020820190506120c76000830184611d8e565b92915050565b60006080820190506120e26000830187611d8e565b6120ef6020830186611d8e565b6120fc604083018561207f565b818103606083015261210e8184611dac565b905095945050505050565b600060208201905061212e6000830184611d9d565b92915050565b6000602082019050818103600083015261214e8184611de5565b905092915050565b6000602082019050818103600083015261216f81611e4f565b9050919050565b6000602082019050818103600083015261218f81611e72565b9050919050565b600060208201905081810360008301526121af81611e95565b9050919050565b600060208201905081810360008301526121cf81611eb8565b9050919050565b600060208201905081810360008301526121ef81611edb565b9050919050565b6000602082019050818103600083015261220f81611efe565b9050919050565b6000602082019050818103600083015261222f81611f21565b9050919050565b6000602082019050818103600083015261224f81611f44565b9050919050565b6000602082019050818103600083015261226f81611f67565b9050919050565b6000602082019050818103600083015261228f81611f8a565b9050919050565b600060208201905081810360008301526122af81611fad565b9050919050565b600060208201905081810360008301526122cf81611fd0565b9050919050565b600060208201905081810360008301526122ef81611ff3565b9050919050565b6000602082019050818103600083015261230f81612016565b9050919050565b6000602082019050818103600083015261232f81612039565b9050919050565b6000602082019050818103600083015261234f8161205c565b9050919050565b600060208201905061236b600083018461207f565b92915050565b600061237b61238c565b905061238782826125ad565b919050565b6000604051905090565b600067ffffffffffffffff8211156123b1576123b06126e5565b5b6123ba82612714565b9050602081019050919050565b600081519050919050565b600081519050919050565b600082825260208201905092915050565b600082825260208201905092915050565b600081905092915050565b60006124158261252f565b91506124208361252f565b9250827fffffffffffffffffffffffffffffffffffffffffffffffffffffffffffffffff0382111561245557612454612658565b5b828201905092915050565b600061246b8261252f565b91506124768361252f565b92508261248657612485612687565b5b828204905092915050565b600061249c8261252f565b91506124a78361252f565b9250828210156124ba576124b9612658565b5b828203905092915050565b60006124d08261250f565b9050919050565b60008115159050919050565b60007fffffffff0000000000000000000000000000000000000000000000000000000082169050919050565b600073ffffffffffffffffffffffffffffffffffffffff82169050919050565b6000819050919050565b82818337600083830152505050565b60005b8381101561256657808201518184015260208101905061254b565b83811115612575576000848401525b50505050565b6000600282049050600182168061259357607f821691505b602082108114156125a7576125a66126b6565b5b50919050565b6125b682612714565b810181811067ffffffffffffffff821117156125d5576125d46126e5565b5b80604052505050565b60006125e98261252f565b91507fffffffffffffffffffffffffffffffffffffffffffffffffffffffffffffffff82141561261c5761261b612658565b5b600182019050919050565b60006126328261252f565b915061263d8361252f565b92508261264d5761264c612687565b5b828206905092915050565b7f4e487b7100000000000000000000000000000000000000000000000000000000600052601160045260246000fd5b7f4e487b7100000000000000000000000000000000000000000000000000000000600052601260045260246000fd5b7f4e487b7100000000000000000000000000000000000000000000000000000000600052602260045260246000fd5b7f4e487b7100000000000000000000000000000000000000000000000000000000600052604160045260246000fd5b6000601f19601f8301169050919050565b7f4552433732313a207472616e7366657220746f206e6f6e20455243373231526560008201527f63656976657220696d706c656d656e7465720000000000000000000000000000602082015250565b7f4552433732313a207472616e736665722066726f6d20696e636f72726563742060008201527f6f776e6572000000000000000000000000000000000000000000000000000000602082015250565b7f4552433732313a20746f6b656e20616c7265616479206d696e74656400000000600082015250565b7f4552433732313a207472616e7366657220746f20746865207a65726f2061646460008201527f7265737300000000000000000000000000000000000000000000000000000000602082015250565b7f4552433732313a20617070726f766520746f2063616c6c657200000000000000600082015250565b7f4552433732313a206f70657261746f7220717565727920666f72206e6f6e657860008201527f697374656e7420746f6b656e0000000000000000000000000000000000000000602082015250565b7f4552433732313a20617070726f76652063616c6c6572206973206e6f74206f7760008201527f6e6572206e6f7220617070726f76656420666f7220616c6c0000000000000000602082015250565b7f4552433732313a2062616c616e636520717565727920666f7220746865207a6560008201527f726f206164647265737300000000000000000000000000000000000000000000602082015250565b7f4552433732313a206f776e657220717565727920666f72206e6f6e657869737460008201527f656e7420746f6b656e0000000000000000000000000000000000000000000000602082015250565b7f4552433732313a206d696e7420746f20746865207a65726f2061646472657373600082015250565b7f45524337323155524953746f726167653a2055524920717565727920666f722060008201527f6e6f6e6578697374656e7420746f6b656e000000000000000000000000000000602082015250565b7f4552433732313a20617070726f76656420717565727920666f72206e6f6e657860008201527f697374656e7420746f6b656e0000000000000000000000000000000000000000602082015250565b7f4552433732314d657461646174613a2055524920717565727920666f72206e6f60008201527f6e6578697374656e7420746f6b656e0000000000000000000000000000000000602082015250565b7f4578636565646564206d617820737570706c7900000000000000000000000000600082015250565b7f4552433732313a20617070726f76616c20746f2063757272656e74206f776e6560008201527f7200000000000000000000000000000000000000000000000000000000000000602082015250565b7f4552433732313a207472616e736665722063616c6c6572206973206e6f74206f60008201527f776e6572206e6f7220617070726f766564000000000000000000000000000000602082015250565b612b86816124c5565b8114612b9157600080fd5b50565b612b9d816124d7565b8114612ba857600080fd5b50565b612bb4816124e3565b8114612bbf57600080fd5b50565b612bcb8161252f565b8114612bd657600080fd5b5056fea2646970667358221220681479c5c77c028b8dc57669f28d4843268f158621ae5c0864abff0c962c706264736f6c6343000804003360806040523480156200001157600080fd5b506040518060400160405280600b81526020017f55706c696674546f6b656e0000000000000000000000000000000000000000008152506040518060400160405280600381526020017f555054000000000000000000000000000000000000000000000000000000000081525081600390805190602001906200009692919062000286565b508060049080519060200190620000af92919062000286565b505050620000f433620000c7620000fa60201b60201c565b60ff16600a620000d8919062000476565b62989680620000e89190620005b3565b6200010360201b60201c565b620006e8565b60006012905090565b600073ffffffffffffffffffffffffffffffffffffffff168273ffffffffffffffffffffffffffffffffffffffff16141562000176576040517f08c379a00000000000000000000000000000000000000000000000000000000081526004016200016d906200036e565b60405180910390fd5b6200018a600083836200027c60201b60201c565b80600260008282546200019e9190620003be565b92505081905550806000808473ffffffffffffffffffffffffffffffffffffffff1673ffffffffffffffffffffffffffffffffffffffff1681526020019081526020016000206000828254620001f59190620003be565b925050819055508173ffffffffffffffffffffffffffffffffffffffff16600073ffffffffffffffffffffffffffffffffffffffff167fddf252ad1be2c89b69c2b068fc378daa952ba7f163c4a11628f55a4df523b3ef836040516200025c919062000390565b60405180910390a362000278600083836200028160201b60201c565b5050565b505050565b505050565b82805462000294906200061e565b90600052602060002090601f016020900481019282620002b8576000855562000304565b82601f10620002d357805160ff191683800117855562000304565b8280016001018555821562000304579182015b8281111562000303578251825591602001919060010190620002e6565b5b50905062000313919062000317565b5090565b5b808211156200033257600081600090555060010162000318565b5090565b600062000345601f83620003ad565b91506200035282620006bf565b602082019050919050565b620003688162000614565b82525050565b60006020820190508181036000830152620003898162000336565b9050919050565b6000602082019050620003a760008301846200035d565b92915050565b600082825260208201905092915050565b6000620003cb8262000614565b9150620003d88362000614565b9250827fffffffffffffffffffffffffffffffffffffffffffffffffffffffffffffffff0382111562000410576200040f62000654565b5b828201905092915050565b6000808291508390505b60018511156200046d5780860481111562000445576200044462000654565b5b6001851615620004555780820291505b80810290506200046585620006b2565b945062000425565b94509492505050565b6000620004838262000614565b9150620004908362000614565b9250620004bf7fffffffffffffffffffffffffffffffffffffffffffffffffffffffffffffffff8484620004c7565b905092915050565b600082620004d95760019050620005ac565b81620004e95760009050620005ac565b81600181146200050257600281146200050d5762000543565b6001915050620005ac565b60ff84111562000522576200052162000654565b5b8360020a9150848211156200053c576200053b62000654565b5b50620005ac565b5060208310610133831016604e8410600b84101617156200057d5782820a90508381111562000577576200057662000654565b5b620005ac565b6200058c84848460016200041b565b92509050818404811115620005a657620005a562000654565b5b81810290505b9392505050565b6000620005c08262000614565b9150620005cd8362000614565b9250817fffffffffffffffffffffffffffffffffffffffffffffffffffffffffffffffff048311821515161562000609576200060862000654565b5b828202905092915050565b6000819050919050565b600060028204905060018216806200063757607f821691505b602082108114156200064e576200064d62000683565b5b50919050565b7f4e487b7100000000000000000000000000000000000000000000000000000000600052601160045260246000fd5b7f4e487b7100000000000000000000000000000000000000000000000000000000600052602260045260246000fd5b60008160011c9050919050565b7f45524332303a206d696e7420746f20746865207a65726f206164647265737300600082015250565b61125380620006f86000396000f3fe608060405234801561001057600080fd5b50600436106100a95760003560e01c80633950935111610071578063395093511461016857806370a082311461019857806395d89b41146101c8578063a457c2d7146101e6578063a9059cbb14610216578063dd62ed3e14610246576100a9565b806306fdde03146100ae578063095ea7b3146100cc57806318160ddd146100fc57806323b872dd1461011a578063313ce5671461014a575b600080fd5b6100b6610276565b6040516100c39190610d19565b60405180910390f35b6100e660048036038101906100e19190610b67565b610308565b6040516100f39190610cfe565b60405180910390f35b61010461032b565b6040516101119190610e1b565b60405180910390f35b610134600480360381019061012f9190610b18565b610335565b6040516101419190610cfe565b60405180910390f35b610152610364565b60405161015f9190610e36565b60405180910390f35b610182600480360381019061017d9190610b67565b61036d565b60405161018f9190610cfe565b60405180910390f35b6101b260048036038101906101ad9190610ab3565b6103a4565b6040516101bf9190610e1b565b60405180910390f35b6101d06103ec565b6040516101dd9190610d19565b60405180910390f35b61020060048036038101906101fb9190610b67565b61047e565b60405161020d9190610cfe565b60405180910390f35b610230600480360381019061022b9190610b67565b6104f5565b60405161023d9190610cfe565b60405180910390f35b610260600480360381019061025b9190610adc565b610518565b60405161026d9190610e1b565b60405180910390f35b60606003805461028590610f4b565b80601f01602080910402602001604051908101604052809291908181526020018280546102b190610f4b565b80156102fe5780601f106102d3576101008083540402835291602001916102fe565b820191906000526020600020905b8154815290600101906020018083116102e157829003601f168201915b5050505050905090565b60008061031361059f565b90506103208185856105a7565b600191505092915050565b6000600254905090565b60008061034061059f565b905061034d858285610772565b6103588585856107fe565b60019150509392505050565b60006012905090565b60008061037861059f565b905061039981858561038a8589610518565b6103949190610e6d565b6105a7565b600191505092915050565b60008060008373ffffffffffffffffffffffffffffffffffffffff1673ffffffffffffffffffffffffffffffffffffffff168152602001908152602001600020549050919050565b6060600480546103fb90610f4b565b80601f016020809104026020016040519081016040528092919081815260200182805461042790610f4b565b80156104745780601f1061044957610100808354040283529160200191610474565b820191906000526020600020905b81548152906001019060200180831161045757829003601f168201915b5050505050905090565b60008061048961059f565b905060006104978286610518565b9050838110156104dc576040517f08c379a00000000000000000000000000000000000000000000000000000000081526004016104d390610dfb565b60405180910390fd5b6104e982868684036105a7565b60019250505092915050565b60008061050061059f565b905061050d8185856107fe565b600191505092915050565b6000600160008473ffffffffffffffffffffffffffffffffffffffff1673ffffffffffffffffffffffffffffffffffffffff16815260200190815260200160002060008373ffffffffffffffffffffffffffffffffffffffff1673ffffffffffffffffffffffffffffffffffffffff16815260200190815260200160002054905092915050565b600033905090565b600073ffffffffffffffffffffffffffffffffffffffff168373ffffffffffffffffffffffffffffffffffffffff161415610617576040517f08c379a000000000000000000000000000000000000000000000000000000000815260040161060e90610ddb565b60405180910390fd5b600073ffffffffffffffffffffffffffffffffffffffff168273ffffffffffffffffffffffffffffffffffffffff161415610687576040517f08c379a000000000000000000000000000000000000000000000000000000000815260040161067e90610d5b565b60405180910390fd5b80600160008573ffffffffffffffffffffffffffffffffffffffff1673ffffffffffffffffffffffffffffffffffffffff16815260200190815260200160002060008473ffffffffffffffffffffffffffffffffffffffff1673ffffffffffffffffffffffffffffffffffffffff168152602001908152602001600020819055508173ffffffffffffffffffffffffffffffffffffffff168373ffffffffffffffffffffffffffffffffffffffff167f8c5be1e5ebec7d5bd14f71427d1e84f3dd0314c0f7b2291e5b200ac8c7c3b925836040516107659190610e1b565b60405180910390a3505050565b600061077e8484610518565b90507fffffffffffffffffffffffffffffffffffffffffffffffffffffffffffffffff81146107f857818110156107ea576040517f08c379a00000000000000000000000000000000000000000000000000000000081526004016107e190610d7b565b60405180910390fd5b6107f784848484036105a7565b5b50505050565b600073ffffffffffffffffffffffffffffffffffffffff168373ffffffffffffffffffffffffffffffffffffffff16141561086e576040517f08c379a000000000000000000000000000000000000000000000000000000000815260040161086590610dbb565b60405180910390fd5b600073ffffffffffffffffffffffffffffffffffffffff168273ffffffffffffffffffffffffffffffffffffffff1614156108de576040517f08c379a00000000000000000000000000000000000000000000000000000000081526004016108d590610d3b565b60405180910390fd5b6108e9838383610a7f565b60008060008573ffffffffffffffffffffffffffffffffffffffff1673ffffffffffffffffffffffffffffffffffffffff1681526020019081526020016000205490508181101561096f576040517f08c379a000000000000000000000000000000000000000000000000000000000815260040161096690610d9b565b60405180910390fd5b8181036000808673ffffffffffffffffffffffffffffffffffffffff1673ffffffffffffffffffffffffffffffffffffffff16815260200190815260200160002081905550816000808573ffffffffffffffffffffffffffffffffffffffff1673ffffffffffffffffffffffffffffffffffffffff1681526020019081526020016000206000828254610a029190610e6d565b925050819055508273ffffffffffffffffffffffffffffffffffffffff168473ffffffffffffffffffffffffffffffffffffffff167fddf252ad1be2c89b69c2b068fc378daa952ba7f163c4a11628f55a4df523b3ef84604051610a669190610e1b565b60405180910390a3610a79848484610a84565b50505050565b505050565b505050565b600081359050610a98816111ef565b92915050565b600081359050610aad81611206565b92915050565b600060208284031215610ac557600080fd5b6000610ad384828501610a89565b91505092915050565b60008060408385031215610aef57600080fd5b6000610afd85828601610a89565b9250506020610b0e85828601610a89565b9150509250929050565b600080600060608486031215610b2d57600080fd5b6000610b3b86828701610a89565b9350506020610b4c86828701610a89565b9250506040610b5d86828701610a9e565b9150509250925092565b60008060408385031215610b7a57600080fd5b6000610b8885828601610a89565b9250506020610b9985828601610a9e565b9150509250929050565b610bac81610ed5565b82525050565b6000610bbd82610e51565b610bc78185610e5c565b9350610bd7818560208601610f18565b610be081610fdb565b840191505092915050565b6000610bf8602383610e5c565b9150610c0382610fec565b604082019050919050565b6000610c1b602283610e5c565b9150610c268261103b565b604082019050919050565b6000610c3e601d83610e5c565b9150610c498261108a565b602082019050919050565b6000610c61602683610e5c565b9150610c6c826110b3565b604082019050919050565b6000610c84602583610e5c565b9150610c8f82611102565b604082019050919050565b6000610ca7602483610e5c565b9150610cb282611151565b604082019050919050565b6000610cca602583610e5c565b9150610cd5826111a0565b604082019050919050565b610ce981610f01565b82525050565b610cf881610f0b565b82525050565b6000602082019050610d136000830184610ba3565b92915050565b60006020820190508181036000830152610d338184610bb2565b905092915050565b60006020820190508181036000830152610d5481610beb565b9050919050565b60006020820190508181036000830152610d7481610c0e565b9050919050565b60006020820190508181036000830152610d9481610c31565b9050919050565b60006020820190508181036000830152610db481610c54565b9050919050565b60006020820190508181036000830152610dd481610c77565b9050919050565b60006020820190508181036000830152610df481610c9a565b9050919050565b60006020820190508181036000830152610e1481610cbd565b9050919050565b6000602082019050610e306000830184610ce0565b92915050565b6000602082019050610e4b6000830184610cef565b92915050565b600081519050919050565b600082825260208201905092915050565b6000610e7882610f01565b9150610e8383610f01565b9250827fffffffffffffffffffffffffffffffffffffffffffffffffffffffffffffffff03821115610eb857610eb7610f7d565b5b828201905092915050565b6000610ece82610ee1565b9050919050565b60008115159050919050565b600073ffffffffffffffffffffffffffffffffffffffff82169050919050565b6000819050919050565b600060ff82169050919050565b60005b83811015610f36578082015181840152602081019050610f1b565b83811115610f45576000848401525b50505050565b60006002820490506001821680610f6357607f821691505b60208210811415610f7757610f76610fac565b5b50919050565b7f4e487b7100000000000000000000000000000000000000000000000000000000600052601160045260246000fd5b7f4e487b7100000000000000000000000000000000000000000000000000000000600052602260045260246000fd5b6000601f19601f8301169050919050565b7f45524332303a207472616e7366657220746f20746865207a65726f206164647260008201527f6573730000000000000000000000000000000000000000000000000000000000602082015250565b7f45524332303a20617070726f766520746f20746865207a65726f20616464726560008201527f7373000000000000000000000000000000000000000000000000000000000000602082015250565b7f45524332303a20696e73756666696369656e7420616c6c6f77616e6365000000600082015250565b7f45524332303a207472616e7366657220616d6f756e742065786365656473206260008201527f616c616e63650000000000000000000000000000000000000000000000000000602082015250565b7f45524332303a207472616e736665722066726f6d20746865207a65726f20616460008201527f6472657373000000000000000000000000000000000000000000000000000000602082015250565b7f45524332303a20617070726f76652066726f6d20746865207a65726f2061646460008201527f7265737300000000000000000000000000000000000000000000000000000000602082015250565b7f45524332303a2064656372656173656420616c6c6f77616e63652062656c6f7760008201527f207a65726f000000000000000000000000000000000000000000000000000000602082015250565b6111f881610ec3565b811461120357600080fd5b50565b61120f81610f01565b811461121a57600080fd5b5056fea2646970667358221220cdcf74a9d7b6399f52889d32627a0fb6f0b42fdcc23b4e9b6dd80c25623632e564736f6c63430008040033",
  "linkReferences": {},
  "deployedLinkReferences": {}
}