{
  "_format": "hh-sol-artifact-1",
  "contractName": "UpliftDAO",
  "sourceName": "contracts/UpliftDAO.sol",
  "abi": [
    {
      "inputs": [
        {
          "internalType": "string",
          "name": "baseURI",
          "type": "string"
        }
      ],
      "stateMutability": "nonpayable",
      "type": "constructor"
    },
    {
      "stateMutability": "payable",
      "type": "fallback"
    },
    {
      "inputs": [
        {
          "internalType": "uint256",
          "name": "",
          "type": "uint256"
        }
      ],
      "name": "cohortIdToAddress",
      "outputs": [
        {
          "internalType": "address",
          "name": "",
          "type": "address"
        }
      ],
      "stateMutability": "view",
      "type": "function"
    },
    {
      "inputs": [
        {
          "internalType": "address",
          "name": "",
          "type": "address"
        }
      ],
      "name": "cohortMembers",
      "outputs": [
        {
          "internalType": "uint256",
          "name": "",
          "type": "uint256"
        }
      ],
      "stateMutability": "view",
      "type": "function"
    },
    {
      "inputs": [
        {
          "internalType": "uint256",
          "name": "",
          "type": "uint256"
        }
      ],
      "name": "cohortMemebrsArr",
      "outputs": [
        {
          "internalType": "address",
          "name": "",
          "type": "address"
        }
      ],
      "stateMutability": "view",
      "type": "function"
    },
    {
      "inputs": [
        {
          "internalType": "address",
          "name": "",
          "type": "address"
        }
      ],
      "name": "cohortStatus",
      "outputs": [
        {
          "internalType": "uint256",
          "name": "",
          "type": "uint256"
        }
      ],
      "stateMutability": "view",
      "type": "function"
    },
    {
      "inputs": [
        {
          "internalType": "uint256",
          "name": "",
          "type": "uint256"
        }
      ],
      "name": "cohortsArr",
      "outputs": [
        {
          "internalType": "address",
          "name": "",
          "type": "address"
        }
      ],
      "stateMutability": "view",
      "type": "function"
    },
    {
      "inputs": [],
      "name": "cohortsCount",
      "outputs": [
        {
          "internalType": "uint256",
          "name": "",
          "type": "uint256"
        }
      ],
      "stateMutability": "view",
      "type": "function"
    },
    {
      "inputs": [
        {
          "internalType": "string",
          "name": "_name",
          "type": "string"
        }
      ],
      "name": "createCohort",
      "outputs": [],
      "stateMutability": "nonpayable",
      "type": "function"
    },
    {
      "inputs": [
        {
          "internalType": "uint256",
          "name": "_cohortId",
          "type": "uint256"
        }
      ],
      "name": "joinCohort",
      "outputs": [],
      "stateMutability": "nonpayable",
      "type": "function"
    },
    {
      "inputs": [
        {
          "internalType": "uint256",
          "name": "_cohortId",
          "type": "uint256"
        }
      ],
      "name": "leaveCohort",
      "outputs": [],
      "stateMutability": "nonpayable",
      "type": "function"
    },
    {
      "inputs": [],
      "name": "nftAddress",
      "outputs": [
        {
          "internalType": "address",
          "name": "",
          "type": "address"
        }
      ],
      "stateMutability": "view",
      "type": "function"
    },
    {
      "inputs": [],
      "name": "rewardCohort",
      "outputs": [],
      "stateMutability": "nonpayable",
      "type": "function"
    },
    {
      "inputs": [],
      "name": "upliftToken",
      "outputs": [
        {
          "internalType": "address",
          "name": "",
          "type": "address"
        }
      ],
      "stateMutability": "view",
      "type": "function"
    },
    {
      "stateMutability": "payable",
      "type": "receive"
    }
  ],
  "bytecode": "0x60806040523480156200001157600080fd5b5060405162008110380380620081108339818101604052810190620000379190620001b8565b8060405162000046906200012a565b6200005291906200023e565b604051809103906000f0801580156200006f573d6000803e3d6000fd5b50600160006101000a81548173ffffffffffffffffffffffffffffffffffffffff021916908373ffffffffffffffffffffffffffffffffffffffff1602179055506000600481905550604051620000c69062000138565b604051809103906000f080158015620000e3573d6000803e3d6000fd5b506000806101000a81548173ffffffffffffffffffffffffffffffffffffffff021916908373ffffffffffffffffffffffffffffffffffffffff1602179055505062000389565b61319d806200362883390190565b61194b80620067c583390190565b60006200015d62000157846200028b565b62000262565b9050828152602081018484840111156200017657600080fd5b62000183848285620002dd565b509392505050565b600082601f8301126200019d57600080fd5b8151620001af84826020860162000146565b91505092915050565b600060208284031215620001cb57600080fd5b600082015167ffffffffffffffff811115620001e657600080fd5b620001f4848285016200018b565b91505092915050565b60006200020a82620002c1565b620002168185620002cc565b935062000228818560208601620002dd565b620002338162000378565b840191505092915050565b600060208201905081810360008301526200025a8184620001fd565b905092915050565b60006200026e62000281565b90506200027c828262000313565b919050565b6000604051905090565b600067ffffffffffffffff821115620002a957620002a862000349565b5b620002b48262000378565b9050602081019050919050565b600081519050919050565b600082825260208201905092915050565b60005b83811015620002fd578082015181840152602081019050620002e0565b838111156200030d576000848401525b50505050565b6200031e8262000378565b810181811067ffffffffffffffff8211171562000340576200033f62000349565b5b80604052505050565b7f4e487b7100000000000000000000000000000000000000000000000000000000600052604160045260246000fd5b6000601f19601f8301169050919050565b61328f80620003996000396000f3fe608060405260043610620000bb5760003560e01c8063c54cede1116200006d578063c54cede114620001f5578063d038df2e1462000223578063d4b140ef1462000267578063dbbf7a571462000295578063de86f96914620002c5578063e00d971d146200030957620000c3565b806308afd4fd14620000c55780635bf8633a14620000df57806368e808f2146200010f5780638cab04971462000153578063bc4726a41462000183578063be0af50414620001c757620000c3565b36620000c357005b005b348015620000d257600080fd5b50620000dd6200034d565b005b348015620000ec57600080fd5b50620000f762000580565b60405162000106919062001080565b60405180910390f35b3480156200011c57600080fd5b506200013b600480360381019062000135919062000f26565b620005a6565b6040516200014a919062001080565b60405180910390f35b3480156200016057600080fd5b506200016b620005e6565b6040516200017a919062001080565b60405180910390f35b3480156200019057600080fd5b50620001af6004803603810190620001a9919062000e40565b6200060a565b604051620001be919062001152565b60405180910390f35b348015620001d457600080fd5b50620001f36004803603810190620001ed919062000f26565b62000622565b005b3480156200020257600080fd5b506200022160048036038101906200021b919062000edd565b62000842565b005b3480156200023057600080fd5b506200024f600480360381019062000249919062000e40565b62000a1f565b6040516200025e919062001152565b60405180910390f35b3480156200027457600080fd5b506200029360048036038101906200028d919062000f26565b62000a37565b005b348015620002a257600080fd5b50620002ad62000c57565b604051620002bc919062001152565b60405180910390f35b348015620002d257600080fd5b50620002f16004803603810190620002eb919062000f26565b62000c5d565b60405162000300919062001080565b60405180910390f35b3480156200031657600080fd5b506200033560048036038101906200032f919062000f26565b62000c90565b60405162000344919062001080565b60405180910390f35b6000600360003373ffffffffffffffffffffffffffffffffffffffff1673ffffffffffffffffffffffffffffffffffffffff168152602001908152602001600020541415620003d3576040517f08c379a0000000000000000000000000000000000000000000000000000000008152600401620003ca90620010ec565b60405180910390fd5b60003373ffffffffffffffffffffffffffffffffffffffff16639eab52536040518163ffffffff1660e01b815260040160006040518083038186803b1580156200041c57600080fd5b505afa15801562000431573d6000803e3d6000fd5b505050506040513d6000823e3d601f19601f820116820180604052508101906200045c919062000e6c565b9050600080825190505b808210156200057b5760008054906101000a900473ffffffffffffffffffffffffffffffffffffffff1673ffffffffffffffffffffffffffffffffffffffff1663a9059cbb848481518110620004e5577f4e487b7100000000000000000000000000000000000000000000000000000000600052603260045260246000fd5b6020026020010151600a6040518363ffffffff1660e01b81526004016200050e9291906200109d565b602060405180830381600087803b1580156200052957600080fd5b505af11580156200053e573d6000803e3d6000fd5b505050506040513d601f19601f8201168201806040525081019062000564919062000eb1565b5081806200057290620012b1565b92505062000466565b505050565b600160009054906101000a900473ffffffffffffffffffffffffffffffffffffffff1681565b60068181548110620005b757600080fd5b906000526020600020016000915054906101000a900473ffffffffffffffffffffffffffffffffffffffff1681565b60008054906101000a900473ffffffffffffffffffffffffffffffffffffffff1681565b60036020528060005260406000206000915090505481565b6000600160009054906101000a900473ffffffffffffffffffffffffffffffffffffffff1673ffffffffffffffffffffffffffffffffffffffff166370a08231336040518263ffffffff1660e01b815260040162000681919062001080565b60206040518083038186803b1580156200069a57600080fd5b505afa158015620006af573d6000803e3d6000fd5b505050506040513d601f19601f82011682018060405250810190620006d5919062000f52565b1162000718576040517f08c379a00000000000000000000000000000000000000000000000000000000081526004016200070f906200110e565b60405180910390fd5b6000600560003373ffffffffffffffffffffffffffffffffffffffff1673ffffffffffffffffffffffffffffffffffffffff16815260200190815260200160002054116200079d576040517f08c379a00000000000000000000000000000000000000000000000000000000081526004016200079490620010ca565b60405180910390fd5b6007600082815260200190815260200160002060009054906101000a900473ffffffffffffffffffffffffffffffffffffffff1673ffffffffffffffffffffffffffffffffffffffff1663bedf77a6336040518263ffffffff1660e01b81526004016200080b919062001080565b600060405180830381600087803b1580156200082657600080fd5b505af11580156200083b573d6000803e3d6000fd5b5050505050565b6000600160009054906101000a900473ffffffffffffffffffffffffffffffffffffffff1673ffffffffffffffffffffffffffffffffffffffff166370a08231336040518263ffffffff1660e01b8152600401620008a1919062001080565b60206040518083038186803b158015620008ba57600080fd5b505afa158015620008cf573d6000803e3d6000fd5b505050506040513d601f19601f82011682018060405250810190620008f5919062000f52565b1162000938576040517f08c379a00000000000000000000000000000000000000000000000000000000081526004016200092f906200110e565b60405180910390fd5b6000600560003373ffffffffffffffffffffffffffffffffffffffff1673ffffffffffffffffffffffffffffffffffffffff1681526020019081526020016000205414620009bd576040517f08c379a0000000000000000000000000000000000000000000000000000000008152600401620009b49062001130565b60405180910390fd5b60006004548383604051620009d29062000cd0565b620009e0939291906200116f565b604051809103906000f080158015620009fd573d6000803e3d6000fd5b5090506004600081548092919062000a1590620012b1565b9190505550505050565b60056020528060005260406000206000915090505481565b6000600160009054906101000a900473ffffffffffffffffffffffffffffffffffffffff1673ffffffffffffffffffffffffffffffffffffffff166370a08231336040518263ffffffff1660e01b815260040162000a96919062001080565b60206040518083038186803b15801562000aaf57600080fd5b505afa15801562000ac4573d6000803e3d6000fd5b505050506040513d601f19601f8201168201806040525081019062000aea919062000f52565b1162000b2d576040517f08c379a000000000000000000000000000000000000000000000000000000000815260040162000b24906200110e565b60405180910390fd5b6000600560003373ffffffffffffffffffffffffffffffffffffffff1673ffffffffffffffffffffffffffffffffffffffff168152602001908152602001600020541462000bb2576040517f08c379a000000000000000000000000000000000000000000000000000000000815260040162000ba99062001130565b60405180910390fd5b6007600082815260200190815260200160002060009054906101000a900473ffffffffffffffffffffffffffffffffffffffff1673ffffffffffffffffffffffffffffffffffffffff166328ffe6c8336040518263ffffffff1660e01b815260040162000c20919062001080565b600060405180830381600087803b15801562000c3b57600080fd5b505af115801562000c50573d6000803e3d6000fd5b5050505050565b60045481565b60076020528060005260406000206000915054906101000a900473ffffffffffffffffffffffffffffffffffffffff1681565b6002818154811062000ca157600080fd5b906000526020600020016000915054906101000a900473ffffffffffffffffffffffffffffffffffffffff1681565b611df9806200146183390190565b600062000cf562000cef84620011ce565b620011a5565b9050808382526020820190508285602086028201111562000d1557600080fd5b60005b8581101562000d49578162000d2e888262000d6a565b84526020840193506020830192505060018101905062000d18565b5050509392505050565b60008135905062000d648162001412565b92915050565b60008151905062000d7b8162001412565b92915050565b600082601f83011262000d9357600080fd5b815162000da584826020860162000cde565b91505092915050565b60008151905062000dbf816200142c565b92915050565b60008083601f84011262000dd857600080fd5b8235905067ffffffffffffffff81111562000df257600080fd5b60208301915083600182028301111562000e0b57600080fd5b9250929050565b60008135905062000e238162001446565b92915050565b60008151905062000e3a8162001446565b92915050565b60006020828403121562000e5357600080fd5b600062000e638482850162000d53565b91505092915050565b60006020828403121562000e7f57600080fd5b600082015167ffffffffffffffff81111562000e9a57600080fd5b62000ea88482850162000d81565b91505092915050565b60006020828403121562000ec457600080fd5b600062000ed48482850162000dae565b91505092915050565b6000806020838503121562000ef157600080fd5b600083013567ffffffffffffffff81111562000f0c57600080fd5b62000f1a8582860162000dc5565b92509250509250929050565b60006020828403121562000f3957600080fd5b600062000f498482850162000e12565b91505092915050565b60006020828403121562000f6557600080fd5b600062000f758482850162000e29565b91505092915050565b62000f89816200120e565b82525050565b62000f9a8162001258565b82525050565b600062000fae8385620011fd565b935062000fbd8385846200126c565b62000fc8836200135d565b840190509392505050565b600062000fe2601383620011fd565b915062000fef826200136e565b602082019050919050565b600062001009600f83620011fd565b9150620010168262001397565b602082019050919050565b600062001030601083620011fd565b91506200103d82620013c0565b602082019050919050565b600062001057601083620011fd565b91506200106482620013e9565b602082019050919050565b6200107a816200124e565b82525050565b600060208201905062001097600083018462000f7e565b92915050565b6000604082019050620010b4600083018562000f7e565b620010c3602083018462000f8f565b9392505050565b60006020820190508181036000830152620010e58162000fd3565b9050919050565b60006020820190508181036000830152620011078162000ffa565b9050919050565b60006020820190508181036000830152620011298162001021565b9050919050565b600060208201905081810360008301526200114b8162001048565b9050919050565b60006020820190506200116960008301846200106f565b92915050565b60006040820190506200118660008301866200106f565b81810360208301526200119b81848662000fa0565b9050949350505050565b6000620011b1620011c4565b9050620011bf82826200127b565b919050565b6000604051905090565b600067ffffffffffffffff821115620011ec57620011eb6200132e565b5b602082029050602081019050919050565b600082825260208201905092915050565b60006200121b826200122e565b9050919050565b60008115159050919050565b600073ffffffffffffffffffffffffffffffffffffffff82169050919050565b6000819050919050565b600062001265826200124e565b9050919050565b82818337600083830152505050565b62001286826200135d565b810181811067ffffffffffffffff82111715620012a857620012a76200132e565b5b80604052505050565b6000620012be826200124e565b91507fffffffffffffffffffffffffffffffffffffffffffffffffffffffffffffffff821415620012f457620012f3620012ff565b5b600182019050919050565b7f4e487b7100000000000000000000000000000000000000000000000000000000600052601160045260246000fd5b7f4e487b7100000000000000000000000000000000000000000000000000000000600052604160045260246000fd5b6000601f19601f8301169050919050565b7f6e6f74206120636f686f7274206d656d62657200000000000000000000000000600082015250565b7f6f6e6c7920666f7220636f686f72740000000000000000000000000000000000600082015250565b7f6f6e6c7920666f72206d656d6265727300000000000000000000000000000000600082015250565b7f616c72656164792061206d656d62657200000000000000000000000000000000600082015250565b6200141d816200120e565b81146200142957600080fd5b50565b620014378162001222565b81146200144357600080fd5b50565b62001451816200124e565b81146200145d57600080fd5b5056fe608060405260006001553480156200001657600080fd5b5060405162001df938038062001df983398181016040528101906200003c9190620001de565b8160008190555080600290805190602001906200005b929190620000a5565b5033600360006101000a81548173ffffffffffffffffffffffffffffffffffffffff021916908373ffffffffffffffffffffffffffffffffffffffff1602179055505050620003cc565b828054620000b390620002d7565b90600052602060002090601f016020900481019282620000d7576000855562000123565b82601f10620000f257805160ff191683800117855562000123565b8280016001018555821562000123579182015b828111156200012257825182559160200191906001019062000105565b5b50905062000132919062000136565b5090565b5b808211156200015157600081600090555060010162000137565b5090565b60006200016c620001668462000261565b62000238565b9050828152602081018484840111156200018557600080fd5b62000192848285620002a1565b509392505050565b600082601f830112620001ac57600080fd5b8151620001be84826020860162000155565b91505092915050565b600081519050620001d881620003b2565b92915050565b60008060408385031215620001f257600080fd5b60006200020285828601620001c7565b925050602083015167ffffffffffffffff8111156200022057600080fd5b6200022e858286016200019a565b9150509250929050565b60006200024462000257565b90506200025282826200030d565b919050565b6000604051905090565b600067ffffffffffffffff8211156200027f576200027e62000372565b5b6200028a82620003a1565b9050602081019050919050565b6000819050919050565b60005b83811015620002c1578082015181840152602081019050620002a4565b83811115620002d1576000848401525b50505050565b60006002820490506001821680620002f057607f821691505b6020821081141562000307576200030662000343565b5b50919050565b6200031882620003a1565b810181811067ffffffffffffffff821117156200033a576200033962000372565b5b80604052505050565b7f4e487b7100000000000000000000000000000000000000000000000000000000600052602260045260246000fd5b7f4e487b7100000000000000000000000000000000000000000000000000000000600052604160045260246000fd5b6000601f19601f8301169050919050565b620003bd8162000297565b8114620003c957600080fd5b50565b611a1d80620003dc6000396000f3fe608060405234801561001057600080fd5b50600436106100b45760003560e01c80635daf08ca116100715780635daf08ca1461016557806373cd8336146101955780639eab5253146101b3578063af640d0f146101d1578063b6a016d4146101ef578063bedf77a61461020d576100b4565b80630657f4d4146100b957806306fdde03146100d557806312abb5bb146100f35780631d0b28901461010f57806328ffe6c81461012b5780634162169f14610147575b600080fd5b6100d360048036038101906100ce919061128a565b610229565b005b6100dd6105cf565b6040516100ea91906114c9565b60405180910390f35b61010d60048036038101906101089190611220565b61065d565b005b61012960048036038101906101249190611220565b61086f565b005b610145600480360381019061014091906111f7565b61090c565b005b61014f610a8f565b60405161015c919061148c565b60405180910390f35b61017f600480360381019061017a9190611261565b610ab5565b60405161018c919061148c565b60405180910390f35b61019d610af4565b6040516101aa91906115ab565b60405180910390f35b6101bb610afa565b6040516101c891906114a7565b60405180910390f35b6101d9610b88565b6040516101e691906115ab565b60405180910390f35b6101f7610b8e565b60405161020491906114c9565b60405180910390f35b610227600480360381019061022291906111f7565b610c1c565b005b6000600660003373ffffffffffffffffffffffffffffffffffffffff1673ffffffffffffffffffffffffffffffffffffffff1681526020019081526020016000205414156102ac576040517f08c379a00000000000000000000000000000000000000000000000000000000081526004016102a39061150b565b60405180910390fd5b600060028111156102e6577f4e487b7100000000000000000000000000000000000000000000000000000000600052602160045260246000fd5b60078381548110610320577f4e487b7100000000000000000000000000000000000000000000000000000000600052603260045260246000fd5b906000526020600020906005020160020160009054906101000a900460ff166002811115610377577f4e487b7100000000000000000000000000000000000000000000000000000000600052602160045260246000fd5b146103b7576040517f08c379a00000000000000000000000000000000000000000000000000000000081526004016103ae9061156b565b60405180910390fd5b60086000838152602001908152602001600020339080600181540180825580915050600190039060005260206000200160009091909190916101000a81548173ffffffffffffffffffffffffffffffffffffffff021916908373ffffffffffffffffffffffffffffffffffffffff160217905550600580549050600860008481526020019081526020016000208054905014156105cb5760016007838154811061048a577f4e487b7100000000000000000000000000000000000000000000000000000000600052603260045260246000fd5b906000526020600020906005020160020160006101000a81548160ff021916908360028111156104e3577f4e487b7100000000000000000000000000000000000000000000000000000000600052602160045260246000fd5b02179055508060078381548110610523577f4e487b7100000000000000000000000000000000000000000000000000000000600052603260045260246000fd5b90600052602060002090600502016003019080519060200190610547929190611038565b50600360009054906101000a900473ffffffffffffffffffffffffffffffffffffffff1673ffffffffffffffffffffffffffffffffffffffff166308afd4fd6040518163ffffffff1660e01b8152600401600060405180830381600087803b1580156105b257600080fd5b505af11580156105c6573d6000803e3d6000fd5b505050505b5050565b600280546105dc90611779565b80601f016020809104026020016040519081016040528092919081815260200182805461060890611779565b80156106555780601f1061062a57610100808354040283529160200191610655565b820191906000526020600020905b81548152906001019060200180831161063857829003601f168201915b505050505081565b6000600660003373ffffffffffffffffffffffffffffffffffffffff1673ffffffffffffffffffffffffffffffffffffffff1681526020019081526020016000205414156106e0576040517f08c379a00000000000000000000000000000000000000000000000000000000081526004016106d79061150b565b60405180910390fd5b60076040518060a00160405280600154815260200183815260200160006002811115610735577f4e487b7100000000000000000000000000000000000000000000000000000000600052602160045260246000fd5b815260200160405180602001604052806000815250815260200160058054905081525090806001815401808255809150506001900390600052602060002090600502016000909190919091506000820151816000015560208201518160010190805190602001906107a7929190611038565b5060408201518160020160006101000a81548160ff021916908360028111156107f9577f4e487b7100000000000000000000000000000000000000000000000000000000600052602160045260246000fd5b0217905550606082015181600301908051906020019061081a929190611038565b5060808201518160040155505060608060086000600154815260200190815260200160002090805190602001906108529291906110be565b5060016000815480929190610866906117dc565b91905055505050565b6000600660003373ffffffffffffffffffffffffffffffffffffffff1673ffffffffffffffffffffffffffffffffffffffff1681526020019081526020016000205414156108f2576040517f08c379a00000000000000000000000000000000000000000000000000000000081526004016108e99061150b565b60405180910390fd5b8060049080519060200190610908929190611038565b5050565b600360009054906101000a900473ffffffffffffffffffffffffffffffffffffffff1673ffffffffffffffffffffffffffffffffffffffff163373ffffffffffffffffffffffffffffffffffffffff161461099c576040517f08c379a00000000000000000000000000000000000000000000000000000000081526004016109939061152b565b60405180910390fd5b600760058054905011156109e5576040517f08c379a00000000000000000000000000000000000000000000000000000000081526004016109dc9061154b565b60405180910390fd5b6005819080600181540180825580915050600190039060005260206000200160009091909190916101000a81548173ffffffffffffffffffffffffffffffffffffffff021916908373ffffffffffffffffffffffffffffffffffffffff16021790555042600660008373ffffffffffffffffffffffffffffffffffffffff1673ffffffffffffffffffffffffffffffffffffffff1681526020019081526020016000208190555050565b600360009054906101000a900473ffffffffffffffffffffffffffffffffffffffff1681565b60058181548110610ac557600080fd5b906000526020600020016000915054906101000a900473ffffffffffffffffffffffffffffffffffffffff1681565b60015481565b60606005805480602002602001604051908101604052809291908181526020018280548015610b7e57602002820191906000526020600020905b8160009054906101000a900473ffffffffffffffffffffffffffffffffffffffff1673ffffffffffffffffffffffffffffffffffffffff1681526020019060010190808311610b34575b5050505050905090565b60005481565b60048054610b9b90611779565b80601f0160208091040260200160405190810160405280929190818152602001828054610bc790611779565b8015610c145780601f10610be957610100808354040283529160200191610c14565b820191906000526020600020905b815481529060010190602001808311610bf757829003601f168201915b505050505081565b600360009054906101000a900473ffffffffffffffffffffffffffffffffffffffff1673ffffffffffffffffffffffffffffffffffffffff163373ffffffffffffffffffffffffffffffffffffffff1614610cac576040517f08c379a0000000000000000000000000000000000000000000000000000000008152600401610ca39061152b565b60405180910390fd5b6000600660008373ffffffffffffffffffffffffffffffffffffffff1673ffffffffffffffffffffffffffffffffffffffff168152602001908152602001600020541415610d2f576040517f08c379a0000000000000000000000000000000000000000000000000000000008152600401610d26906114eb565b60405180910390fd5b426276a700600660008473ffffffffffffffffffffffffffffffffffffffff1673ffffffffffffffffffffffffffffffffffffffff16815260200190815260200160002054610d7e9190611671565b10610dbe576040517f08c379a0000000000000000000000000000000000000000000000000000000008152600401610db59061158b565b60405180910390fd5b600660008273ffffffffffffffffffffffffffffffffffffffff1673ffffffffffffffffffffffffffffffffffffffff1681526020019081526020016000206000905560008060058054905090505b80821015611033578273ffffffffffffffffffffffffffffffffffffffff1660058381548110610e66577f4e487b7100000000000000000000000000000000000000000000000000000000600052603260045260246000fd5b9060005260206000200160009054906101000a900473ffffffffffffffffffffffffffffffffffffffff1673ffffffffffffffffffffffffffffffffffffffff1614156110205760058281548110610ee7577f4e487b7100000000000000000000000000000000000000000000000000000000600052603260045260246000fd5b9060005260206000200160006101000a81549073ffffffffffffffffffffffffffffffffffffffff0219169055600181610f2191906116c7565b821461101b576005600182610f3691906116c7565b81548110610f6d577f4e487b7100000000000000000000000000000000000000000000000000000000600052603260045260246000fd5b9060005260206000200160009054906101000a900473ffffffffffffffffffffffffffffffffffffffff1660058381548110610fd2577f4e487b7100000000000000000000000000000000000000000000000000000000600052603260045260246000fd5b9060005260206000200160006101000a81548173ffffffffffffffffffffffffffffffffffffffff021916908373ffffffffffffffffffffffffffffffffffffffff1602179055505b611033565b818061102b906117dc565b925050610e0d565b505050565b82805461104490611779565b90600052602060002090601f01602090048101928261106657600085556110ad565b82601f1061107f57805160ff19168380011785556110ad565b828001600101855582156110ad579182015b828111156110ac578251825591602001919060010190611091565b5b5090506110ba9190611148565b5090565b828054828255906000526020600020908101928215611137579160200282015b828111156111365782518260006101000a81548173ffffffffffffffffffffffffffffffffffffffff021916908373ffffffffffffffffffffffffffffffffffffffff160217905550916020019190600101906110de565b5b5090506111449190611148565b5090565b5b80821115611161576000816000905550600101611149565b5090565b6000611178611173846115eb565b6115c6565b90508281526020810184848401111561119057600080fd5b61119b848285611737565b509392505050565b6000813590506111b2816119b9565b92915050565b600082601f8301126111c957600080fd5b81356111d9848260208601611165565b91505092915050565b6000813590506111f1816119d0565b92915050565b60006020828403121561120957600080fd5b6000611217848285016111a3565b91505092915050565b60006020828403121561123257600080fd5b600082013567ffffffffffffffff81111561124c57600080fd5b611258848285016111b8565b91505092915050565b60006020828403121561127357600080fd5b6000611281848285016111e2565b91505092915050565b6000806040838503121561129d57600080fd5b60006112ab858286016111e2565b925050602083013567ffffffffffffffff8111156112c857600080fd5b6112d4858286016111b8565b9150509250929050565b60006112ea83836112f6565b60208301905092915050565b6112ff816116fb565b82525050565b61130e816116fb565b82525050565b600061131f8261162c565b611329818561164f565b93506113348361161c565b8060005b8381101561136557815161134c88826112de565b975061135783611642565b925050600181019050611338565b5085935050505092915050565b600061137d82611637565b6113878185611660565b9350611397818560208601611746565b6113a0816118b2565b840191505092915050565b60006113b8600f83611660565b91506113c3826118c3565b602082019050919050565b60006113db601783611660565b91506113e6826118ec565b602082019050919050565b60006113fe600c83611660565b915061140982611915565b602082019050919050565b6000611421600e83611660565b915061142c8261193e565b602082019050919050565b6000611444601383611660565b915061144f82611967565b602082019050919050565b6000611467600f83611660565b915061147282611990565b602082019050919050565b6114868161172d565b82525050565b60006020820190506114a16000830184611305565b92915050565b600060208201905081810360008301526114c18184611314565b905092915050565b600060208201905081810360008301526114e38184611372565b905092915050565b60006020820190508181036000830152611504816113ab565b9050919050565b60006020820190508181036000830152611524816113ce565b9050919050565b60006020820190508181036000830152611544816113f1565b9050919050565b6000602082019050818103600083015261156481611414565b9050919050565b6000602082019050818103600083015261158481611437565b9050919050565b600060208201905081810360008301526115a48161145a565b9050919050565b60006020820190506115c0600083018461147d565b92915050565b60006115d06115e1565b90506115dc82826117ab565b919050565b6000604051905090565b600067ffffffffffffffff82111561160657611605611883565b5b61160f826118b2565b9050602081019050919050565b6000819050602082019050919050565b600081519050919050565b600081519050919050565b6000602082019050919050565b600082825260208201905092915050565b600082825260208201905092915050565b600061167c8261172d565b91506116878361172d565b9250827fffffffffffffffffffffffffffffffffffffffffffffffffffffffffffffffff038211156116bc576116bb611825565b5b828201905092915050565b60006116d28261172d565b91506116dd8361172d565b9250828210156116f0576116ef611825565b5b828203905092915050565b60006117068261170d565b9050919050565b600073ffffffffffffffffffffffffffffffffffffffff82169050919050565b6000819050919050565b82818337600083830152505050565b60005b83811015611764578082015181840152602081019050611749565b83811115611773576000848401525b50505050565b6000600282049050600182168061179157607f821691505b602082108114156117a5576117a4611854565b5b50919050565b6117b4826118b2565b810181811067ffffffffffffffff821117156117d3576117d2611883565b5b80604052505050565b60006117e78261172d565b91507fffffffffffffffffffffffffffffffffffffffffffffffffffffffffffffffff82141561181a57611819611825565b5b600182019050919050565b7f4e487b7100000000000000000000000000000000000000000000000000000000600052601160045260246000fd5b7f4e487b7100000000000000000000000000000000000000000000000000000000600052602260045260246000fd5b7f4e487b7100000000000000000000000000000000000000000000000000000000600052604160045260246000fd5b6000601f19601f8301169050919050565b7f6973206e6f742061206d656d6265720000000000000000000000000000000000600082015250565b7f6f6e6c7920666f7220636f686f7274206d656d62657273000000000000000000600082015250565b7f6f6e6c7920666f722044616f0000000000000000000000000000000000000000600082015250565b7f636f686f72742069732066756c6c000000000000000000000000000000000000600082015250565b7f73657373696f6e206973206e6f74206f70656e00000000000000000000000000600082015250565b7f30302064617973206d696e696d756d0000000000000000000000000000000000600082015250565b6119c2816116fb565b81146119cd57600080fd5b50565b6119d98161172d565b81146119e457600080fd5b5056fea2646970667358221220ad0665bd2842dfbc9fd5c8f58a11525c22369a37f7702251df993f18b146e42564736f6c63430008040033a2646970667358221220be9bb55cee03521ae06f643dd6b5e0fab3dee723352c27f541965149aedc6ddb64736f6c634300080400336080604052662386f26fc10000600955612710600a553480156200002257600080fd5b506040516200319d3803806200319d833981810160405281019062000048919062000273565b6040518060400160405280600a81526020017f55706c6966742044414f000000000000000000000000000000000000000000008152506040518060400160405280600381526020017f55504400000000000000000000000000000000000000000000000000000000008152508160009080519060200190620000cc92919062000151565b508060019080519060200190620000e592919062000151565b50505080600890805190602001906200010092919062000151565b5033600b60006101000a81548173ffffffffffffffffffffffffffffffffffffffff021916908373ffffffffffffffffffffffffffffffffffffffff16021790555060006007819055505062000428565b8280546200015f906200034d565b90600052602060002090601f016020900481019282620001835760008555620001cf565b82601f106200019e57805160ff1916838001178555620001cf565b82800160010185558215620001cf579182015b82811115620001ce578251825591602001919060010190620001b1565b5b509050620001de9190620001e2565b5090565b5b80821115620001fd576000816000905550600101620001e3565b5090565b6000620002186200021284620002e1565b620002b8565b9050828152602081018484840111156200023157600080fd5b6200023e84828562000317565b509392505050565b600082601f8301126200025857600080fd5b81516200026a84826020860162000201565b91505092915050565b6000602082840312156200028657600080fd5b600082015167ffffffffffffffff811115620002a157600080fd5b620002af8482850162000246565b91505092915050565b6000620002c4620002d7565b9050620002d2828262000383565b919050565b6000604051905090565b600067ffffffffffffffff821115620002ff57620002fe620003e8565b5b6200030a8262000417565b9050602081019050919050565b60005b83811015620003375780820151818401526020810190506200031a565b8381111562000347576000848401525b50505050565b600060028204905060018216806200036657607f821691505b602082108114156200037d576200037c620003b9565b5b50919050565b6200038e8262000417565b810181811067ffffffffffffffff82111715620003b057620003af620003e8565b5b80604052505050565b7f4e487b7100000000000000000000000000000000000000000000000000000000600052602260045260246000fd5b7f4e487b7100000000000000000000000000000000000000000000000000000000600052604160045260246000fd5b6000601f19601f8301169050919050565b612d6580620004386000396000f3fe6080604052600436106101185760003560e01c80636352211e116100a0578063b810cf2b11610064578063b810cf2b1461039a578063b88d4fde146103c5578063c87b56dd146103ee578063d547cfb71461042b578063e985e9c5146104565761011f565b80636352211e146102a157806370a08231146102de57806395d89b411461031b578063a035b1fe14610346578063a22cb465146103715761011f565b80631249c58b116100e75780631249c58b146101ef57806317d70f7c146101f957806323b872dd1461022457806342842e0e1461024d5780635f769621146102765761011f565b806301ffc9a71461012157806306fdde031461015e578063081812fc14610189578063095ea7b3146101c65761011f565b3661011f57005b005b34801561012d57600080fd5b5061014860048036038101906101439190611dfd565b610493565b6040516101559190612226565b60405180910390f35b34801561016a57600080fd5b50610173610575565b6040516101809190612241565b60405180910390f35b34801561019557600080fd5b506101b060048036038101906101ab9190611e4f565b610607565b6040516101bd91906121bf565b60405180910390f35b3480156101d257600080fd5b506101ed60048036038101906101e89190611dc1565b61068c565b005b6101f76107a4565b005b34801561020557600080fd5b5061020e6108be565b60405161021b9190612483565b60405180910390f35b34801561023057600080fd5b5061024b60048036038101906102469190611cbb565b6108c4565b005b34801561025957600080fd5b50610274600480360381019061026f9190611cbb565b610924565b005b34801561028257600080fd5b5061028b610944565b6040516102989190612483565b60405180910390f35b3480156102ad57600080fd5b506102c860048036038101906102c39190611e4f565b61094a565b6040516102d591906121bf565b60405180910390f35b3480156102ea57600080fd5b5061030560048036038101906103009190611c56565b6109fc565b6040516103129190612483565b60405180910390f35b34801561032757600080fd5b50610330610ab4565b60405161033d9190612241565b60405180910390f35b34801561035257600080fd5b5061035b610b46565b6040516103689190612483565b60405180910390f35b34801561037d57600080fd5b5061039860048036038101906103939190611d85565b610b4c565b005b3480156103a657600080fd5b506103af610b62565b6040516103bc91906121bf565b60405180910390f35b3480156103d157600080fd5b506103ec60048036038101906103e79190611d0a565b610b88565b005b3480156103fa57600080fd5b5061041560048036038101906104109190611e4f565b610bea565b6040516104229190612241565b60405180910390f35b34801561043757600080fd5b50610440610d3c565b60405161044d9190612241565b60405180910390f35b34801561046257600080fd5b5061047d60048036038101906104789190611c7f565b610dca565b60405161048a9190612226565b60405180910390f35b60007f80ac58cd000000000000000000000000000000000000000000000000000000007bffffffffffffffffffffffffffffffffffffffffffffffffffffffff1916827bffffffffffffffffffffffffffffffffffffffffffffffffffffffff1916148061055e57507f5b5e139f000000000000000000000000000000000000000000000000000000007bffffffffffffffffffffffffffffffffffffffffffffffffffffffff1916827bffffffffffffffffffffffffffffffffffffffffffffffffffffffff1916145b8061056e575061056d82610e5e565b5b9050919050565b606060008054610584906126a8565b80601f01602080910402602001604051908101604052809291908181526020018280546105b0906126a8565b80156105fd5780601f106105d2576101008083540402835291602001916105fd565b820191906000526020600020905b8154815290600101906020018083116105e057829003601f168201915b5050505050905090565b600061061282610ec8565b610651576040517f08c379a0000000000000000000000000000000000000000000000000000000008152600401610648906123c3565b60405180910390fd5b6004600083815260200190815260200160002060009054906101000a900473ffffffffffffffffffffffffffffffffffffffff169050919050565b60006106978261094a565b90508073ffffffffffffffffffffffffffffffffffffffff168373ffffffffffffffffffffffffffffffffffffffff161415610708576040517f08c379a00000000000000000000000000000000000000000000000000000000081526004016106ff90612443565b60405180910390fd5b8073ffffffffffffffffffffffffffffffffffffffff16610727610f34565b73ffffffffffffffffffffffffffffffffffffffff161480610756575061075581610750610f34565b610dca565b5b610795576040517f08c379a000000000000000000000000000000000000000000000000000000000815260040161078c90612323565b60405180910390fd5b61079f8383610f3c565b505050565b600a54600754106107ea576040517f08c379a00000000000000000000000000000000000000000000000000000000081526004016107e190612423565b60405180910390fd5b60095434101561082f576040517f08c379a000000000000000000000000000000000000000000000000000000000815260040161082690612403565b60405180910390fd5b61083b33600754610ff5565b6007600081548092919061084e9061270b565b9190505550600b60009054906101000a900473ffffffffffffffffffffffffffffffffffffffff1673ffffffffffffffffffffffffffffffffffffffff166108fc349081150290604051600060405180830381858888f193505050501580156108bb573d6000803e3d6000fd5b50565b60075481565b6108d56108cf610f34565b82611013565b610914576040517f08c379a000000000000000000000000000000000000000000000000000000000815260040161090b90612463565b60405180910390fd5b61091f8383836110f1565b505050565b61093f83838360405180602001604052806000815250610b88565b505050565b600a5481565b6000806002600084815260200190815260200160002060009054906101000a900473ffffffffffffffffffffffffffffffffffffffff169050600073ffffffffffffffffffffffffffffffffffffffff168173ffffffffffffffffffffffffffffffffffffffff1614156109f3576040517f08c379a00000000000000000000000000000000000000000000000000000000081526004016109ea90612363565b60405180910390fd5b80915050919050565b60008073ffffffffffffffffffffffffffffffffffffffff168273ffffffffffffffffffffffffffffffffffffffff161415610a6d576040517f08c379a0000000000000000000000000000000000000000000000000000000008152600401610a6490612343565b60405180910390fd5b600360008373ffffffffffffffffffffffffffffffffffffffff1673ffffffffffffffffffffffffffffffffffffffff168152602001908152602001600020549050919050565b606060018054610ac3906126a8565b80601f0160208091040260200160405190810160405280929190818152602001828054610aef906126a8565b8015610b3c5780601f10610b1157610100808354040283529160200191610b3c565b820191906000526020600020905b815481529060010190602001808311610b1f57829003601f168201915b5050505050905090565b60095481565b610b5e610b57610f34565b8383611358565b5050565b600b60009054906101000a900473ffffffffffffffffffffffffffffffffffffffff1681565b610b99610b93610f34565b83611013565b610bd8576040517f08c379a0000000000000000000000000000000000000000000000000000000008152600401610bcf90612463565b60405180910390fd5b610be4848484846114c5565b50505050565b6060610bf582610ec8565b610c34576040517f08c379a0000000000000000000000000000000000000000000000000000000008152600401610c2b906123a3565b60405180910390fd5b6000600660008481526020019081526020016000208054610c54906126a8565b80601f0160208091040260200160405190810160405280929190818152602001828054610c80906126a8565b8015610ccd5780601f10610ca257610100808354040283529160200191610ccd565b820191906000526020600020905b815481529060010190602001808311610cb057829003601f168201915b505050505090506000610cde611521565b9050600081511415610cf4578192505050610d37565b600082511115610d29578082604051602001610d1192919061219b565b60405160208183030381529060405292505050610d37565b610d3284611538565b925050505b919050565b60088054610d49906126a8565b80601f0160208091040260200160405190810160405280929190818152602001828054610d75906126a8565b8015610dc25780601f10610d9757610100808354040283529160200191610dc2565b820191906000526020600020905b815481529060010190602001808311610da557829003601f168201915b505050505081565b6000600560008473ffffffffffffffffffffffffffffffffffffffff1673ffffffffffffffffffffffffffffffffffffffff16815260200190815260200160002060008373ffffffffffffffffffffffffffffffffffffffff1673ffffffffffffffffffffffffffffffffffffffff16815260200190815260200160002060009054906101000a900460ff16905092915050565b60007f01ffc9a7000000000000000000000000000000000000000000000000000000007bffffffffffffffffffffffffffffffffffffffffffffffffffffffff1916827bffffffffffffffffffffffffffffffffffffffffffffffffffffffff1916149050919050565b60008073ffffffffffffffffffffffffffffffffffffffff166002600084815260200190815260200160002060009054906101000a900473ffffffffffffffffffffffffffffffffffffffff1673ffffffffffffffffffffffffffffffffffffffff1614159050919050565b600033905090565b816004600083815260200190815260200160002060006101000a81548173ffffffffffffffffffffffffffffffffffffffff021916908373ffffffffffffffffffffffffffffffffffffffff160217905550808273ffffffffffffffffffffffffffffffffffffffff16610faf8361094a565b73ffffffffffffffffffffffffffffffffffffffff167f8c5be1e5ebec7d5bd14f71427d1e84f3dd0314c0f7b2291e5b200ac8c7c3b92560405160405180910390a45050565b61100f8282604051806020016040528060008152506115df565b5050565b600061101e82610ec8565b61105d576040517f08c379a000000000000000000000000000000000000000000000000000000000815260040161105490612303565b60405180910390fd5b60006110688361094a565b90508073ffffffffffffffffffffffffffffffffffffffff168473ffffffffffffffffffffffffffffffffffffffff1614806110aa57506110a98185610dca565b5b806110e857508373ffffffffffffffffffffffffffffffffffffffff166110d084610607565b73ffffffffffffffffffffffffffffffffffffffff16145b91505092915050565b8273ffffffffffffffffffffffffffffffffffffffff166111118261094a565b73ffffffffffffffffffffffffffffffffffffffff1614611167576040517f08c379a000000000000000000000000000000000000000000000000000000000815260040161115e90612283565b60405180910390fd5b600073ffffffffffffffffffffffffffffffffffffffff168273ffffffffffffffffffffffffffffffffffffffff1614156111d7576040517f08c379a00000000000000000000000000000000000000000000000000000000081526004016111ce906122c3565b60405180910390fd5b6111e283838361163a565b6111ed600082610f3c565b6001600360008573ffffffffffffffffffffffffffffffffffffffff1673ffffffffffffffffffffffffffffffffffffffff168152602001908152602001600020600082825461123d91906125be565b925050819055506001600360008473ffffffffffffffffffffffffffffffffffffffff1673ffffffffffffffffffffffffffffffffffffffff16815260200190815260200160002060008282546112949190612537565b92505081905550816002600083815260200190815260200160002060006101000a81548173ffffffffffffffffffffffffffffffffffffffff021916908373ffffffffffffffffffffffffffffffffffffffff160217905550808273ffffffffffffffffffffffffffffffffffffffff168473ffffffffffffffffffffffffffffffffffffffff167fddf252ad1be2c89b69c2b068fc378daa952ba7f163c4a11628f55a4df523b3ef60405160405180910390a461135383838361163f565b505050565b8173ffffffffffffffffffffffffffffffffffffffff168373ffffffffffffffffffffffffffffffffffffffff1614156113c7576040517f08c379a00000000000000000000000000000000000000000000000000000000081526004016113be906122e3565b60405180910390fd5b80600560008573ffffffffffffffffffffffffffffffffffffffff1673ffffffffffffffffffffffffffffffffffffffff16815260200190815260200160002060008473ffffffffffffffffffffffffffffffffffffffff1673ffffffffffffffffffffffffffffffffffffffff16815260200190815260200160002060006101000a81548160ff0219169083151502179055508173ffffffffffffffffffffffffffffffffffffffff168373ffffffffffffffffffffffffffffffffffffffff167f17307eab39ab6107e8899845ad3d59bd9653f200f220920489ca2b5937696c31836040516114b89190612226565b60405180910390a3505050565b6114d08484846110f1565b6114dc84848484611644565b61151b576040517f08c379a000000000000000000000000000000000000000000000000000000000815260040161151290612263565b60405180910390fd5b50505050565b606060405180602001604052806000815250905090565b606061154382610ec8565b611582576040517f08c379a0000000000000000000000000000000000000000000000000000000008152600401611579906123e3565b60405180910390fd5b600061158c611521565b905060008151116115ac57604051806020016040528060008152506115d7565b806115b6846117db565b6040516020016115c792919061219b565b6040516020818303038152906040525b915050919050565b6115e98383611988565b6115f66000848484611644565b611635576040517f08c379a000000000000000000000000000000000000000000000000000000000815260040161162c90612263565b60405180910390fd5b505050565b505050565b505050565b60006116658473ffffffffffffffffffffffffffffffffffffffff16611b62565b156117ce578373ffffffffffffffffffffffffffffffffffffffff1663150b7a0261168e610f34565b8786866040518563ffffffff1660e01b81526004016116b094939291906121da565b602060405180830381600087803b1580156116ca57600080fd5b505af19250505080156116fb57506040513d601f19601f820116820180604052508101906116f89190611e26565b60015b61177e573d806000811461172b576040519150601f19603f3d011682016040523d82523d6000602084013e611730565b606091505b50600081511415611776576040517f08c379a000000000000000000000000000000000000000000000000000000000815260040161176d90612263565b60405180910390fd5b805181602001fd5b63150b7a0260e01b7bffffffffffffffffffffffffffffffffffffffffffffffffffffffff1916817bffffffffffffffffffffffffffffffffffffffffffffffffffffffff1916149150506117d3565b600190505b949350505050565b60606000821415611823576040518060400160405280600181526020017f30000000000000000000000000000000000000000000000000000000000000008152509050611983565b600082905060005b6000821461185557808061183e9061270b565b915050600a8261184e919061258d565b915061182b565b60008167ffffffffffffffff811115611897577f4e487b7100000000000000000000000000000000000000000000000000000000600052604160045260246000fd5b6040519080825280601f01601f1916602001820160405280156118c95781602001600182028036833780820191505090505b5090505b6000851461197c576001826118e291906125be565b9150600a856118f19190612754565b60306118fd9190612537565b60f81b818381518110611939577f4e487b7100000000000000000000000000000000000000000000000000000000600052603260045260246000fd5b60200101907effffffffffffffffffffffffffffffffffffffffffffffffffffffffffffff1916908160001a905350600a85611975919061258d565b94506118cd565b8093505050505b919050565b600073ffffffffffffffffffffffffffffffffffffffff168273ffffffffffffffffffffffffffffffffffffffff1614156119f8576040517f08c379a00000000000000000000000000000000000000000000000000000000081526004016119ef90612383565b60405180910390fd5b611a0181610ec8565b15611a41576040517f08c379a0000000000000000000000000000000000000000000000000000000008152600401611a38906122a3565b60405180910390fd5b611a4d6000838361163a565b6001600360008473ffffffffffffffffffffffffffffffffffffffff1673ffffffffffffffffffffffffffffffffffffffff1681526020019081526020016000206000828254611a9d9190612537565b92505081905550816002600083815260200190815260200160002060006101000a81548173ffffffffffffffffffffffffffffffffffffffff021916908373ffffffffffffffffffffffffffffffffffffffff160217905550808273ffffffffffffffffffffffffffffffffffffffff16600073ffffffffffffffffffffffffffffffffffffffff167fddf252ad1be2c89b69c2b068fc378daa952ba7f163c4a11628f55a4df523b3ef60405160405180910390a4611b5e6000838361163f565b5050565b6000808273ffffffffffffffffffffffffffffffffffffffff163b119050919050565b6000611b98611b93846124c3565b61249e565b905082815260208101848484011115611bb057600080fd5b611bbb848285612666565b509392505050565b600081359050611bd281612cd3565b92915050565b600081359050611be781612cea565b92915050565b600081359050611bfc81612d01565b92915050565b600081519050611c1181612d01565b92915050565b600082601f830112611c2857600080fd5b8135611c38848260208601611b85565b91505092915050565b600081359050611c5081612d18565b92915050565b600060208284031215611c6857600080fd5b6000611c7684828501611bc3565b91505092915050565b60008060408385031215611c9257600080fd5b6000611ca085828601611bc3565b9250506020611cb185828601611bc3565b9150509250929050565b600080600060608486031215611cd057600080fd5b6000611cde86828701611bc3565b9350506020611cef86828701611bc3565b9250506040611d0086828701611c41565b9150509250925092565b60008060008060808587031215611d2057600080fd5b6000611d2e87828801611bc3565b9450506020611d3f87828801611bc3565b9350506040611d5087828801611c41565b925050606085013567ffffffffffffffff811115611d6d57600080fd5b611d7987828801611c17565b91505092959194509250565b60008060408385031215611d9857600080fd5b6000611da685828601611bc3565b9250506020611db785828601611bd8565b9150509250929050565b60008060408385031215611dd457600080fd5b6000611de285828601611bc3565b9250506020611df385828601611c41565b9150509250929050565b600060208284031215611e0f57600080fd5b6000611e1d84828501611bed565b91505092915050565b600060208284031215611e3857600080fd5b6000611e4684828501611c02565b91505092915050565b600060208284031215611e6157600080fd5b6000611e6f84828501611c41565b91505092915050565b611e81816125f2565b82525050565b611e9081612604565b82525050565b6000611ea1826124f4565b611eab818561250a565b9350611ebb818560208601612675565b611ec481612841565b840191505092915050565b6000611eda826124ff565b611ee4818561251b565b9350611ef4818560208601612675565b611efd81612841565b840191505092915050565b6000611f13826124ff565b611f1d818561252c565b9350611f2d818560208601612675565b80840191505092915050565b6000611f4660328361251b565b9150611f5182612852565b604082019050919050565b6000611f6960258361251b565b9150611f74826128a1565b604082019050919050565b6000611f8c601c8361251b565b9150611f97826128f0565b602082019050919050565b6000611faf60248361251b565b9150611fba82612919565b604082019050919050565b6000611fd260198361251b565b9150611fdd82612968565b602082019050919050565b6000611ff5602c8361251b565b915061200082612991565b604082019050919050565b600061201860388361251b565b9150612023826129e0565b604082019050919050565b600061203b602a8361251b565b915061204682612a2f565b604082019050919050565b600061205e60298361251b565b915061206982612a7e565b604082019050919050565b600061208160208361251b565b915061208c82612acd565b602082019050919050565b60006120a460318361251b565b91506120af82612af6565b604082019050919050565b60006120c7602c8361251b565b91506120d282612b45565b604082019050919050565b60006120ea602f8361251b565b91506120f582612b94565b604082019050919050565b600061210d60178361251b565b915061211882612be3565b602082019050919050565b600061213060138361251b565b915061213b82612c0c565b602082019050919050565b600061215360218361251b565b915061215e82612c35565b604082019050919050565b600061217660318361251b565b915061218182612c84565b604082019050919050565b6121958161265c565b82525050565b60006121a78285611f08565b91506121b38284611f08565b91508190509392505050565b60006020820190506121d46000830184611e78565b92915050565b60006080820190506121ef6000830187611e78565b6121fc6020830186611e78565b612209604083018561218c565b818103606083015261221b8184611e96565b905095945050505050565b600060208201905061223b6000830184611e87565b92915050565b6000602082019050818103600083015261225b8184611ecf565b905092915050565b6000602082019050818103600083015261227c81611f39565b9050919050565b6000602082019050818103600083015261229c81611f5c565b9050919050565b600060208201905081810360008301526122bc81611f7f565b9050919050565b600060208201905081810360008301526122dc81611fa2565b9050919050565b600060208201905081810360008301526122fc81611fc5565b9050919050565b6000602082019050818103600083015261231c81611fe8565b9050919050565b6000602082019050818103600083015261233c8161200b565b9050919050565b6000602082019050818103600083015261235c8161202e565b9050919050565b6000602082019050818103600083015261237c81612051565b9050919050565b6000602082019050818103600083015261239c81612074565b9050919050565b600060208201905081810360008301526123bc81612097565b9050919050565b600060208201905081810360008301526123dc816120ba565b9050919050565b600060208201905081810360008301526123fc816120dd565b9050919050565b6000602082019050818103600083015261241c81612100565b9050919050565b6000602082019050818103600083015261243c81612123565b9050919050565b6000602082019050818103600083015261245c81612146565b9050919050565b6000602082019050818103600083015261247c81612169565b9050919050565b6000602082019050612498600083018461218c565b92915050565b60006124a86124b9565b90506124b482826126da565b919050565b6000604051905090565b600067ffffffffffffffff8211156124de576124dd612812565b5b6124e782612841565b9050602081019050919050565b600081519050919050565b600081519050919050565b600082825260208201905092915050565b600082825260208201905092915050565b600081905092915050565b60006125428261265c565b915061254d8361265c565b9250827fffffffffffffffffffffffffffffffffffffffffffffffffffffffffffffffff0382111561258257612581612785565b5b828201905092915050565b60006125988261265c565b91506125a38361265c565b9250826125b3576125b26127b4565b5b828204905092915050565b60006125c98261265c565b91506125d48361265c565b9250828210156125e7576125e6612785565b5b828203905092915050565b60006125fd8261263c565b9050919050565b60008115159050919050565b60007fffffffff0000000000000000000000000000000000000000000000000000000082169050919050565b600073ffffffffffffffffffffffffffffffffffffffff82169050919050565b6000819050919050565b82818337600083830152505050565b60005b83811015612693578082015181840152602081019050612678565b838111156126a2576000848401525b50505050565b600060028204905060018216806126c057607f821691505b602082108114156126d4576126d36127e3565b5b50919050565b6126e382612841565b810181811067ffffffffffffffff8211171561270257612701612812565b5b80604052505050565b60006127168261265c565b91507fffffffffffffffffffffffffffffffffffffffffffffffffffffffffffffffff82141561274957612748612785565b5b600182019050919050565b600061275f8261265c565b915061276a8361265c565b92508261277a576127796127b4565b5b828206905092915050565b7f4e487b7100000000000000000000000000000000000000000000000000000000600052601160045260246000fd5b7f4e487b7100000000000000000000000000000000000000000000000000000000600052601260045260246000fd5b7f4e487b7100000000000000000000000000000000000000000000000000000000600052602260045260246000fd5b7f4e487b7100000000000000000000000000000000000000000000000000000000600052604160045260246000fd5b6000601f19601f8301169050919050565b7f4552433732313a207472616e7366657220746f206e6f6e20455243373231526560008201527f63656976657220696d706c656d656e7465720000000000000000000000000000602082015250565b7f4552433732313a207472616e736665722066726f6d20696e636f72726563742060008201527f6f776e6572000000000000000000000000000000000000000000000000000000602082015250565b7f4552433732313a20746f6b656e20616c7265616479206d696e74656400000000600082015250565b7f4552433732313a207472616e7366657220746f20746865207a65726f2061646460008201527f7265737300000000000000000000000000000000000000000000000000000000602082015250565b7f4552433732313a20617070726f766520746f2063616c6c657200000000000000600082015250565b7f4552433732313a206f70657261746f7220717565727920666f72206e6f6e657860008201527f697374656e7420746f6b656e0000000000000000000000000000000000000000602082015250565b7f4552433732313a20617070726f76652063616c6c6572206973206e6f74206f7760008201527f6e6572206e6f7220617070726f76656420666f7220616c6c0000000000000000602082015250565b7f4552433732313a2062616c616e636520717565727920666f7220746865207a6560008201527f726f206164647265737300000000000000000000000000000000000000000000602082015250565b7f4552433732313a206f776e657220717565727920666f72206e6f6e657869737460008201527f656e7420746f6b656e0000000000000000000000000000000000000000000000602082015250565b7f4552433732313a206d696e7420746f20746865207a65726f2061646472657373600082015250565b7f45524337323155524953746f726167653a2055524920717565727920666f722060008201527f6e6f6e6578697374656e7420746f6b656e000000000000000000000000000000602082015250565b7f4552433732313a20617070726f76656420717565727920666f72206e6f6e657860008201527f697374656e7420746f6b656e0000000000000000000000000000000000000000602082015250565b7f4552433732314d657461646174613a2055524920717565727920666f72206e6f60008201527f6e6578697374656e7420746f6b656e0000000000000000000000000000000000602082015250565b7f45746865722076616c7565206e6f7420636f7272656374000000000000000000600082015250565b7f4578636565646564206d617820737570706c7900000000000000000000000000600082015250565b7f4552433732313a20617070726f76616c20746f2063757272656e74206f776e6560008201527f7200000000000000000000000000000000000000000000000000000000000000602082015250565b7f4552433732313a207472616e736665722063616c6c6572206973206e6f74206f60008201527f776e6572206e6f7220617070726f766564000000000000000000000000000000602082015250565b612cdc816125f2565b8114612ce757600080fd5b50565b612cf381612604565b8114612cfe57600080fd5b50565b612d0a81612610565b8114612d1557600080fd5b50565b612d218161265c565b8114612d2c57600080fd5b5056fea2646970667358221220f6fcd1fc10d61fbed6a23d0bcde440c828e00163b2712b9bfdbaf71ac01a1b2664736f6c6343000804003360806040523480156200001157600080fd5b506040518060400160405280600b81526020017f55706c696674546f6b656e0000000000000000000000000000000000000000008152506040518060400160405280600381526020017f555054000000000000000000000000000000000000000000000000000000000081525081600390805190602001906200009692919062000286565b508060049080519060200190620000af92919062000286565b505050620000f433620000c7620000fa60201b60201c565b60ff16600a620000d8919062000476565b62989680620000e89190620005b3565b6200010360201b60201c565b620006e8565b60006012905090565b600073ffffffffffffffffffffffffffffffffffffffff168273ffffffffffffffffffffffffffffffffffffffff16141562000176576040517f08c379a00000000000000000000000000000000000000000000000000000000081526004016200016d906200036e565b60405180910390fd5b6200018a600083836200027c60201b60201c565b80600260008282546200019e9190620003be565b92505081905550806000808473ffffffffffffffffffffffffffffffffffffffff1673ffffffffffffffffffffffffffffffffffffffff1681526020019081526020016000206000828254620001f59190620003be565b925050819055508173ffffffffffffffffffffffffffffffffffffffff16600073ffffffffffffffffffffffffffffffffffffffff167fddf252ad1be2c89b69c2b068fc378daa952ba7f163c4a11628f55a4df523b3ef836040516200025c919062000390565b60405180910390a362000278600083836200028160201b60201c565b5050565b505050565b505050565b82805462000294906200061e565b90600052602060002090601f016020900481019282620002b8576000855562000304565b82601f10620002d357805160ff191683800117855562000304565b8280016001018555821562000304579182015b8281111562000303578251825591602001919060010190620002e6565b5b50905062000313919062000317565b5090565b5b808211156200033257600081600090555060010162000318565b5090565b600062000345601f83620003ad565b91506200035282620006bf565b602082019050919050565b620003688162000614565b82525050565b60006020820190508181036000830152620003898162000336565b9050919050565b6000602082019050620003a760008301846200035d565b92915050565b600082825260208201905092915050565b6000620003cb8262000614565b9150620003d88362000614565b9250827fffffffffffffffffffffffffffffffffffffffffffffffffffffffffffffffff0382111562000410576200040f62000654565b5b828201905092915050565b6000808291508390505b60018511156200046d5780860481111562000445576200044462000654565b5b6001851615620004555780820291505b80810290506200046585620006b2565b945062000425565b94509492505050565b6000620004838262000614565b9150620004908362000614565b9250620004bf7fffffffffffffffffffffffffffffffffffffffffffffffffffffffffffffffff8484620004c7565b905092915050565b600082620004d95760019050620005ac565b81620004e95760009050620005ac565b81600181146200050257600281146200050d5762000543565b6001915050620005ac565b60ff84111562000522576200052162000654565b5b8360020a9150848211156200053c576200053b62000654565b5b50620005ac565b5060208310610133831016604e8410600b84101617156200057d5782820a90508381111562000577576200057662000654565b5b620005ac565b6200058c84848460016200041b565b92509050818404811115620005a657620005a562000654565b5b81810290505b9392505050565b6000620005c08262000614565b9150620005cd8362000614565b9250817fffffffffffffffffffffffffffffffffffffffffffffffffffffffffffffffff048311821515161562000609576200060862000654565b5b828202905092915050565b6000819050919050565b600060028204905060018216806200063757607f821691505b602082108114156200064e576200064d62000683565b5b50919050565b7f4e487b7100000000000000000000000000000000000000000000000000000000600052601160045260246000fd5b7f4e487b7100000000000000000000000000000000000000000000000000000000600052602260045260246000fd5b60008160011c9050919050565b7f45524332303a206d696e7420746f20746865207a65726f206164647265737300600082015250565b61125380620006f86000396000f3fe608060405234801561001057600080fd5b50600436106100a95760003560e01c80633950935111610071578063395093511461016857806370a082311461019857806395d89b41146101c8578063a457c2d7146101e6578063a9059cbb14610216578063dd62ed3e14610246576100a9565b806306fdde03146100ae578063095ea7b3146100cc57806318160ddd146100fc57806323b872dd1461011a578063313ce5671461014a575b600080fd5b6100b6610276565b6040516100c39190610d19565b60405180910390f35b6100e660048036038101906100e19190610b67565b610308565b6040516100f39190610cfe565b60405180910390f35b61010461032b565b6040516101119190610e1b565b60405180910390f35b610134600480360381019061012f9190610b18565b610335565b6040516101419190610cfe565b60405180910390f35b610152610364565b60405161015f9190610e36565b60405180910390f35b610182600480360381019061017d9190610b67565b61036d565b60405161018f9190610cfe565b60405180910390f35b6101b260048036038101906101ad9190610ab3565b6103a4565b6040516101bf9190610e1b565b60405180910390f35b6101d06103ec565b6040516101dd9190610d19565b60405180910390f35b61020060048036038101906101fb9190610b67565b61047e565b60405161020d9190610cfe565b60405180910390f35b610230600480360381019061022b9190610b67565b6104f5565b60405161023d9190610cfe565b60405180910390f35b610260600480360381019061025b9190610adc565b610518565b60405161026d9190610e1b565b60405180910390f35b60606003805461028590610f4b565b80601f01602080910402602001604051908101604052809291908181526020018280546102b190610f4b565b80156102fe5780601f106102d3576101008083540402835291602001916102fe565b820191906000526020600020905b8154815290600101906020018083116102e157829003601f168201915b5050505050905090565b60008061031361059f565b90506103208185856105a7565b600191505092915050565b6000600254905090565b60008061034061059f565b905061034d858285610772565b6103588585856107fe565b60019150509392505050565b60006012905090565b60008061037861059f565b905061039981858561038a8589610518565b6103949190610e6d565b6105a7565b600191505092915050565b60008060008373ffffffffffffffffffffffffffffffffffffffff1673ffffffffffffffffffffffffffffffffffffffff168152602001908152602001600020549050919050565b6060600480546103fb90610f4b565b80601f016020809104026020016040519081016040528092919081815260200182805461042790610f4b565b80156104745780601f1061044957610100808354040283529160200191610474565b820191906000526020600020905b81548152906001019060200180831161045757829003601f168201915b5050505050905090565b60008061048961059f565b905060006104978286610518565b9050838110156104dc576040517f08c379a00000000000000000000000000000000000000000000000000000000081526004016104d390610dfb565b60405180910390fd5b6104e982868684036105a7565b60019250505092915050565b60008061050061059f565b905061050d8185856107fe565b600191505092915050565b6000600160008473ffffffffffffffffffffffffffffffffffffffff1673ffffffffffffffffffffffffffffffffffffffff16815260200190815260200160002060008373ffffffffffffffffffffffffffffffffffffffff1673ffffffffffffffffffffffffffffffffffffffff16815260200190815260200160002054905092915050565b600033905090565b600073ffffffffffffffffffffffffffffffffffffffff168373ffffffffffffffffffffffffffffffffffffffff161415610617576040517f08c379a000000000000000000000000000000000000000000000000000000000815260040161060e90610ddb565b60405180910390fd5b600073ffffffffffffffffffffffffffffffffffffffff168273ffffffffffffffffffffffffffffffffffffffff161415610687576040517f08c379a000000000000000000000000000000000000000000000000000000000815260040161067e90610d5b565b60405180910390fd5b80600160008573ffffffffffffffffffffffffffffffffffffffff1673ffffffffffffffffffffffffffffffffffffffff16815260200190815260200160002060008473ffffffffffffffffffffffffffffffffffffffff1673ffffffffffffffffffffffffffffffffffffffff168152602001908152602001600020819055508173ffffffffffffffffffffffffffffffffffffffff168373ffffffffffffffffffffffffffffffffffffffff167f8c5be1e5ebec7d5bd14f71427d1e84f3dd0314c0f7b2291e5b200ac8c7c3b925836040516107659190610e1b565b60405180910390a3505050565b600061077e8484610518565b90507fffffffffffffffffffffffffffffffffffffffffffffffffffffffffffffffff81146107f857818110156107ea576040517f08c379a00000000000000000000000000000000000000000000000000000000081526004016107e190610d7b565b60405180910390fd5b6107f784848484036105a7565b5b50505050565b600073ffffffffffffffffffffffffffffffffffffffff168373ffffffffffffffffffffffffffffffffffffffff16141561086e576040517f08c379a000000000000000000000000000000000000000000000000000000000815260040161086590610dbb565b60405180910390fd5b600073ffffffffffffffffffffffffffffffffffffffff168273ffffffffffffffffffffffffffffffffffffffff1614156108de576040517f08c379a00000000000000000000000000000000000000000000000000000000081526004016108d590610d3b565b60405180910390fd5b6108e9838383610a7f565b60008060008573ffffffffffffffffffffffffffffffffffffffff1673ffffffffffffffffffffffffffffffffffffffff1681526020019081526020016000205490508181101561096f576040517f08c379a000000000000000000000000000000000000000000000000000000000815260040161096690610d9b565b60405180910390fd5b8181036000808673ffffffffffffffffffffffffffffffffffffffff1673ffffffffffffffffffffffffffffffffffffffff16815260200190815260200160002081905550816000808573ffffffffffffffffffffffffffffffffffffffff1673ffffffffffffffffffffffffffffffffffffffff1681526020019081526020016000206000828254610a029190610e6d565b925050819055508273ffffffffffffffffffffffffffffffffffffffff168473ffffffffffffffffffffffffffffffffffffffff167fddf252ad1be2c89b69c2b068fc378daa952ba7f163c4a11628f55a4df523b3ef84604051610a669190610e1b565b60405180910390a3610a79848484610a84565b50505050565b505050565b505050565b600081359050610a98816111ef565b92915050565b600081359050610aad81611206565b92915050565b600060208284031215610ac557600080fd5b6000610ad384828501610a89565b91505092915050565b60008060408385031215610aef57600080fd5b6000610afd85828601610a89565b9250506020610b0e85828601610a89565b9150509250929050565b600080600060608486031215610b2d57600080fd5b6000610b3b86828701610a89565b9350506020610b4c86828701610a89565b9250506040610b5d86828701610a9e565b9150509250925092565b60008060408385031215610b7a57600080fd5b6000610b8885828601610a89565b9250506020610b9985828601610a9e565b9150509250929050565b610bac81610ed5565b82525050565b6000610bbd82610e51565b610bc78185610e5c565b9350610bd7818560208601610f18565b610be081610fdb565b840191505092915050565b6000610bf8602383610e5c565b9150610c0382610fec565b604082019050919050565b6000610c1b602283610e5c565b9150610c268261103b565b604082019050919050565b6000610c3e601d83610e5c565b9150610c498261108a565b602082019050919050565b6000610c61602683610e5c565b9150610c6c826110b3565b604082019050919050565b6000610c84602583610e5c565b9150610c8f82611102565b604082019050919050565b6000610ca7602483610e5c565b9150610cb282611151565b604082019050919050565b6000610cca602583610e5c565b9150610cd5826111a0565b604082019050919050565b610ce981610f01565b82525050565b610cf881610f0b565b82525050565b6000602082019050610d136000830184610ba3565b92915050565b60006020820190508181036000830152610d338184610bb2565b905092915050565b60006020820190508181036000830152610d5481610beb565b9050919050565b60006020820190508181036000830152610d7481610c0e565b9050919050565b60006020820190508181036000830152610d9481610c31565b9050919050565b60006020820190508181036000830152610db481610c54565b9050919050565b60006020820190508181036000830152610dd481610c77565b9050919050565b60006020820190508181036000830152610df481610c9a565b9050919050565b60006020820190508181036000830152610e1481610cbd565b9050919050565b6000602082019050610e306000830184610ce0565b92915050565b6000602082019050610e4b6000830184610cef565b92915050565b600081519050919050565b600082825260208201905092915050565b6000610e7882610f01565b9150610e8383610f01565b9250827fffffffffffffffffffffffffffffffffffffffffffffffffffffffffffffffff03821115610eb857610eb7610f7d565b5b828201905092915050565b6000610ece82610ee1565b9050919050565b60008115159050919050565b600073ffffffffffffffffffffffffffffffffffffffff82169050919050565b6000819050919050565b600060ff82169050919050565b60005b83811015610f36578082015181840152602081019050610f1b565b83811115610f45576000848401525b50505050565b60006002820490506001821680610f6357607f821691505b60208210811415610f7757610f76610fac565b5b50919050565b7f4e487b7100000000000000000000000000000000000000000000000000000000600052601160045260246000fd5b7f4e487b7100000000000000000000000000000000000000000000000000000000600052602260045260246000fd5b6000601f19601f8301169050919050565b7f45524332303a207472616e7366657220746f20746865207a65726f206164647260008201527f6573730000000000000000000000000000000000000000000000000000000000602082015250565b7f45524332303a20617070726f766520746f20746865207a65726f20616464726560008201527f7373000000000000000000000000000000000000000000000000000000000000602082015250565b7f45524332303a20696e73756666696369656e7420616c6c6f77616e6365000000600082015250565b7f45524332303a207472616e7366657220616d6f756e742065786365656473206260008201527f616c616e63650000000000000000000000000000000000000000000000000000602082015250565b7f45524332303a207472616e736665722066726f6d20746865207a65726f20616460008201527f6472657373000000000000000000000000000000000000000000000000000000602082015250565b7f45524332303a20617070726f76652066726f6d20746865207a65726f2061646460008201527f7265737300000000000000000000000000000000000000000000000000000000602082015250565b7f45524332303a2064656372656173656420616c6c6f77616e63652062656c6f7760008201527f207a65726f000000000000000000000000000000000000000000000000000000602082015250565b6111f881610ec3565b811461120357600080fd5b50565b61120f81610f01565b811461121a57600080fd5b5056fea2646970667358221220cdcf74a9d7b6399f52889d32627a0fb6f0b42fdcc23b4e9b6dd80c25623632e564736f6c63430008040033",
  "linkReferences": {},
  "deployedLinkReferences": {}
}