{
  "_format": "hh-sol-artifact-1",
  "contractName": "Cohort",
  "sourceName": "contracts/Cohort.sol",
  "abi": [
    {
      "inputs": [
        {
          "internalType": "uint256",
          "name": "_id",
          "type": "uint256"
        },
        {
          "internalType": "string",
          "name": "_name",
          "type": "string"
        }
      ],
      "stateMutability": "nonpayable",
      "type": "constructor"
    },
    {
      "inputs": [
        {
          "internalType": "uint256",
          "name": "_id",
          "type": "uint256"
        },
        {
          "internalType": "string",
          "name": "_reflection",
          "type": "string"
        }
      ],
      "name": "attestSession",
      "outputs": [],
      "stateMutability": "nonpayable",
      "type": "function"
    },
    {
      "inputs": [
        {
          "internalType": "string",
          "name": "_date",
          "type": "string"
        }
      ],
      "name": "createSession",
      "outputs": [],
      "stateMutability": "nonpayable",
      "type": "function"
    },
    {
      "inputs": [],
      "name": "dao",
      "outputs": [
        {
          "internalType": "address",
          "name": "",
          "type": "address"
        }
      ],
      "stateMutability": "view",
      "type": "function"
    },
    {
      "inputs": [],
      "name": "getMembers",
      "outputs": [
        {
          "internalType": "address[]",
          "name": "",
          "type": "address[]"
        }
      ],
      "stateMutability": "view",
      "type": "function"
    },
    {
      "inputs": [],
      "name": "id",
      "outputs": [
        {
          "internalType": "uint256",
          "name": "",
          "type": "uint256"
        }
      ],
      "stateMutability": "view",
      "type": "function"
    },
    {
      "inputs": [
        {
          "internalType": "address",
          "name": "_subject",
          "type": "address"
        }
      ],
      "name": "join",
      "outputs": [],
      "stateMutability": "nonpayable",
      "type": "function"
    },
    {
      "inputs": [
        {
          "internalType": "address",
          "name": "_subject",
          "type": "address"
        }
      ],
      "name": "leave",
      "outputs": [],
      "stateMutability": "nonpayable",
      "type": "function"
    },
    {
      "inputs": [
        {
          "internalType": "uint256",
          "name": "",
          "type": "uint256"
        }
      ],
      "name": "members",
      "outputs": [
        {
          "internalType": "address",
          "name": "",
          "type": "address"
        }
      ],
      "stateMutability": "view",
      "type": "function"
    },
    {
      "inputs": [],
      "name": "name",
      "outputs": [
        {
          "internalType": "string",
          "name": "",
          "type": "string"
        }
      ],
      "stateMutability": "view",
      "type": "function"
    },
    {
      "inputs": [],
      "name": "sessionCount",
      "outputs": [
        {
          "internalType": "uint256",
          "name": "",
          "type": "uint256"
        }
      ],
      "stateMutability": "view",
      "type": "function"
    },
    {
      "inputs": [],
      "name": "sessionDayAndTime",
      "outputs": [
        {
          "internalType": "string",
          "name": "",
          "type": "string"
        }
      ],
      "stateMutability": "view",
      "type": "function"
    },
    {
      "inputs": [
        {
          "internalType": "string",
          "name": "_sessionDayAndTime",
          "type": "string"
        }
      ],
      "name": "setMeetingDayAndTime",
      "outputs": [],
      "stateMutability": "nonpayable",
      "type": "function"
    }
  ],
  "bytecode": "0x608060405260006001553480156200001657600080fd5b5060405162001df938038062001df983398181016040528101906200003c9190620001de565b8160008190555080600290805190602001906200005b929190620000a5565b5033600360006101000a81548173ffffffffffffffffffffffffffffffffffffffff021916908373ffffffffffffffffffffffffffffffffffffffff1602179055505050620003cc565b828054620000b390620002d7565b90600052602060002090601f016020900481019282620000d7576000855562000123565b82601f10620000f257805160ff191683800117855562000123565b8280016001018555821562000123579182015b828111156200012257825182559160200191906001019062000105565b5b50905062000132919062000136565b5090565b5b808211156200015157600081600090555060010162000137565b5090565b60006200016c620001668462000261565b62000238565b9050828152602081018484840111156200018557600080fd5b62000192848285620002a1565b509392505050565b600082601f830112620001ac57600080fd5b8151620001be84826020860162000155565b91505092915050565b600081519050620001d881620003b2565b92915050565b60008060408385031215620001f257600080fd5b60006200020285828601620001c7565b925050602083015167ffffffffffffffff8111156200022057600080fd5b6200022e858286016200019a565b9150509250929050565b60006200024462000257565b90506200025282826200030d565b919050565b6000604051905090565b600067ffffffffffffffff8211156200027f576200027e62000372565b5b6200028a82620003a1565b9050602081019050919050565b6000819050919050565b60005b83811015620002c1578082015181840152602081019050620002a4565b83811115620002d1576000848401525b50505050565b60006002820490506001821680620002f057607f821691505b6020821081141562000307576200030662000343565b5b50919050565b6200031882620003a1565b810181811067ffffffffffffffff821117156200033a576200033962000372565b5b80604052505050565b7f4e487b7100000000000000000000000000000000000000000000000000000000600052602260045260246000fd5b7f4e487b7100000000000000000000000000000000000000000000000000000000600052604160045260246000fd5b6000601f19601f8301169050919050565b620003bd8162000297565b8114620003c957600080fd5b50565b611a1d80620003dc6000396000f3fe608060405234801561001057600080fd5b50600436106100b45760003560e01c80635daf08ca116100715780635daf08ca1461016557806373cd8336146101955780639eab5253146101b3578063af640d0f146101d1578063b6a016d4146101ef578063bedf77a61461020d576100b4565b80630657f4d4146100b957806306fdde03146100d557806312abb5bb146100f35780631d0b28901461010f57806328ffe6c81461012b5780634162169f14610147575b600080fd5b6100d360048036038101906100ce919061128a565b610229565b005b6100dd6105cf565b6040516100ea91906114c9565b60405180910390f35b61010d60048036038101906101089190611220565b61065d565b005b61012960048036038101906101249190611220565b61086f565b005b610145600480360381019061014091906111f7565b61090c565b005b61014f610a8f565b60405161015c919061148c565b60405180910390f35b61017f600480360381019061017a9190611261565b610ab5565b60405161018c919061148c565b60405180910390f35b61019d610af4565b6040516101aa91906115ab565b60405180910390f35b6101bb610afa565b6040516101c891906114a7565b60405180910390f35b6101d9610b88565b6040516101e691906115ab565b60405180910390f35b6101f7610b8e565b60405161020491906114c9565b60405180910390f35b610227600480360381019061022291906111f7565b610c1c565b005b6000600660003373ffffffffffffffffffffffffffffffffffffffff1673ffffffffffffffffffffffffffffffffffffffff1681526020019081526020016000205414156102ac576040517f08c379a00000000000000000000000000000000000000000000000000000000081526004016102a39061150b565b60405180910390fd5b600060028111156102e6577f4e487b7100000000000000000000000000000000000000000000000000000000600052602160045260246000fd5b60078381548110610320577f4e487b7100000000000000000000000000000000000000000000000000000000600052603260045260246000fd5b906000526020600020906005020160020160009054906101000a900460ff166002811115610377577f4e487b7100000000000000000000000000000000000000000000000000000000600052602160045260246000fd5b146103b7576040517f08c379a00000000000000000000000000000000000000000000000000000000081526004016103ae9061156b565b60405180910390fd5b60086000838152602001908152602001600020339080600181540180825580915050600190039060005260206000200160009091909190916101000a81548173ffffffffffffffffffffffffffffffffffffffff021916908373ffffffffffffffffffffffffffffffffffffffff160217905550600580549050600860008481526020019081526020016000208054905014156105cb5760016007838154811061048a577f4e487b7100000000000000000000000000000000000000000000000000000000600052603260045260246000fd5b906000526020600020906005020160020160006101000a81548160ff021916908360028111156104e3577f4e487b7100000000000000000000000000000000000000000000000000000000600052602160045260246000fd5b02179055508060078381548110610523577f4e487b7100000000000000000000000000000000000000000000000000000000600052603260045260246000fd5b90600052602060002090600502016003019080519060200190610547929190611038565b50600360009054906101000a900473ffffffffffffffffffffffffffffffffffffffff1673ffffffffffffffffffffffffffffffffffffffff166308afd4fd6040518163ffffffff1660e01b8152600401600060405180830381600087803b1580156105b257600080fd5b505af11580156105c6573d6000803e3d6000fd5b505050505b5050565b600280546105dc90611779565b80601f016020809104026020016040519081016040528092919081815260200182805461060890611779565b80156106555780601f1061062a57610100808354040283529160200191610655565b820191906000526020600020905b81548152906001019060200180831161063857829003601f168201915b505050505081565b6000600660003373ffffffffffffffffffffffffffffffffffffffff1673ffffffffffffffffffffffffffffffffffffffff1681526020019081526020016000205414156106e0576040517f08c379a00000000000000000000000000000000000000000000000000000000081526004016106d79061150b565b60405180910390fd5b60076040518060a00160405280600154815260200183815260200160006002811115610735577f4e487b7100000000000000000000000000000000000000000000000000000000600052602160045260246000fd5b815260200160405180602001604052806000815250815260200160058054905081525090806001815401808255809150506001900390600052602060002090600502016000909190919091506000820151816000015560208201518160010190805190602001906107a7929190611038565b5060408201518160020160006101000a81548160ff021916908360028111156107f9577f4e487b7100000000000000000000000000000000000000000000000000000000600052602160045260246000fd5b0217905550606082015181600301908051906020019061081a929190611038565b5060808201518160040155505060608060086000600154815260200190815260200160002090805190602001906108529291906110be565b5060016000815480929190610866906117dc565b91905055505050565b6000600660003373ffffffffffffffffffffffffffffffffffffffff1673ffffffffffffffffffffffffffffffffffffffff1681526020019081526020016000205414156108f2576040517f08c379a00000000000000000000000000000000000000000000000000000000081526004016108e99061150b565b60405180910390fd5b8060049080519060200190610908929190611038565b5050565b600360009054906101000a900473ffffffffffffffffffffffffffffffffffffffff1673ffffffffffffffffffffffffffffffffffffffff163373ffffffffffffffffffffffffffffffffffffffff161461099c576040517f08c379a00000000000000000000000000000000000000000000000000000000081526004016109939061152b565b60405180910390fd5b600760058054905011156109e5576040517f08c379a00000000000000000000000000000000000000000000000000000000081526004016109dc9061154b565b60405180910390fd5b6005819080600181540180825580915050600190039060005260206000200160009091909190916101000a81548173ffffffffffffffffffffffffffffffffffffffff021916908373ffffffffffffffffffffffffffffffffffffffff16021790555042600660008373ffffffffffffffffffffffffffffffffffffffff1673ffffffffffffffffffffffffffffffffffffffff1681526020019081526020016000208190555050565b600360009054906101000a900473ffffffffffffffffffffffffffffffffffffffff1681565b60058181548110610ac557600080fd5b906000526020600020016000915054906101000a900473ffffffffffffffffffffffffffffffffffffffff1681565b60015481565b60606005805480602002602001604051908101604052809291908181526020018280548015610b7e57602002820191906000526020600020905b8160009054906101000a900473ffffffffffffffffffffffffffffffffffffffff1673ffffffffffffffffffffffffffffffffffffffff1681526020019060010190808311610b34575b5050505050905090565b60005481565b60048054610b9b90611779565b80601f0160208091040260200160405190810160405280929190818152602001828054610bc790611779565b8015610c145780601f10610be957610100808354040283529160200191610c14565b820191906000526020600020905b815481529060010190602001808311610bf757829003601f168201915b505050505081565b600360009054906101000a900473ffffffffffffffffffffffffffffffffffffffff1673ffffffffffffffffffffffffffffffffffffffff163373ffffffffffffffffffffffffffffffffffffffff1614610cac576040517f08c379a0000000000000000000000000000000000000000000000000000000008152600401610ca39061152b565b60405180910390fd5b6000600660008373ffffffffffffffffffffffffffffffffffffffff1673ffffffffffffffffffffffffffffffffffffffff168152602001908152602001600020541415610d2f576040517f08c379a0000000000000000000000000000000000000000000000000000000008152600401610d26906114eb565b60405180910390fd5b426276a700600660008473ffffffffffffffffffffffffffffffffffffffff1673ffffffffffffffffffffffffffffffffffffffff16815260200190815260200160002054610d7e9190611671565b10610dbe576040517f08c379a0000000000000000000000000000000000000000000000000000000008152600401610db59061158b565b60405180910390fd5b600660008273ffffffffffffffffffffffffffffffffffffffff1673ffffffffffffffffffffffffffffffffffffffff1681526020019081526020016000206000905560008060058054905090505b80821015611033578273ffffffffffffffffffffffffffffffffffffffff1660058381548110610e66577f4e487b7100000000000000000000000000000000000000000000000000000000600052603260045260246000fd5b9060005260206000200160009054906101000a900473ffffffffffffffffffffffffffffffffffffffff1673ffffffffffffffffffffffffffffffffffffffff1614156110205760058281548110610ee7577f4e487b7100000000000000000000000000000000000000000000000000000000600052603260045260246000fd5b9060005260206000200160006101000a81549073ffffffffffffffffffffffffffffffffffffffff0219169055600181610f2191906116c7565b821461101b576005600182610f3691906116c7565b81548110610f6d577f4e487b7100000000000000000000000000000000000000000000000000000000600052603260045260246000fd5b9060005260206000200160009054906101000a900473ffffffffffffffffffffffffffffffffffffffff1660058381548110610fd2577f4e487b7100000000000000000000000000000000000000000000000000000000600052603260045260246000fd5b9060005260206000200160006101000a81548173ffffffffffffffffffffffffffffffffffffffff021916908373ffffffffffffffffffffffffffffffffffffffff1602179055505b611033565b818061102b906117dc565b925050610e0d565b505050565b82805461104490611779565b90600052602060002090601f01602090048101928261106657600085556110ad565b82601f1061107f57805160ff19168380011785556110ad565b828001600101855582156110ad579182015b828111156110ac578251825591602001919060010190611091565b5b5090506110ba9190611148565b5090565b828054828255906000526020600020908101928215611137579160200282015b828111156111365782518260006101000a81548173ffffffffffffffffffffffffffffffffffffffff021916908373ffffffffffffffffffffffffffffffffffffffff160217905550916020019190600101906110de565b5b5090506111449190611148565b5090565b5b80821115611161576000816000905550600101611149565b5090565b6000611178611173846115eb565b6115c6565b90508281526020810184848401111561119057600080fd5b61119b848285611737565b509392505050565b6000813590506111b2816119b9565b92915050565b600082601f8301126111c957600080fd5b81356111d9848260208601611165565b91505092915050565b6000813590506111f1816119d0565b92915050565b60006020828403121561120957600080fd5b6000611217848285016111a3565b91505092915050565b60006020828403121561123257600080fd5b600082013567ffffffffffffffff81111561124c57600080fd5b611258848285016111b8565b91505092915050565b60006020828403121561127357600080fd5b6000611281848285016111e2565b91505092915050565b6000806040838503121561129d57600080fd5b60006112ab858286016111e2565b925050602083013567ffffffffffffffff8111156112c857600080fd5b6112d4858286016111b8565b9150509250929050565b60006112ea83836112f6565b60208301905092915050565b6112ff816116fb565b82525050565b61130e816116fb565b82525050565b600061131f8261162c565b611329818561164f565b93506113348361161c565b8060005b8381101561136557815161134c88826112de565b975061135783611642565b925050600181019050611338565b5085935050505092915050565b600061137d82611637565b6113878185611660565b9350611397818560208601611746565b6113a0816118b2565b840191505092915050565b60006113b8600f83611660565b91506113c3826118c3565b602082019050919050565b60006113db601783611660565b91506113e6826118ec565b602082019050919050565b60006113fe600c83611660565b915061140982611915565b602082019050919050565b6000611421600e83611660565b915061142c8261193e565b602082019050919050565b6000611444601383611660565b915061144f82611967565b602082019050919050565b6000611467600f83611660565b915061147282611990565b602082019050919050565b6114868161172d565b82525050565b60006020820190506114a16000830184611305565b92915050565b600060208201905081810360008301526114c18184611314565b905092915050565b600060208201905081810360008301526114e38184611372565b905092915050565b60006020820190508181036000830152611504816113ab565b9050919050565b60006020820190508181036000830152611524816113ce565b9050919050565b60006020820190508181036000830152611544816113f1565b9050919050565b6000602082019050818103600083015261156481611414565b9050919050565b6000602082019050818103600083015261158481611437565b9050919050565b600060208201905081810360008301526115a48161145a565b9050919050565b60006020820190506115c0600083018461147d565b92915050565b60006115d06115e1565b90506115dc82826117ab565b919050565b6000604051905090565b600067ffffffffffffffff82111561160657611605611883565b5b61160f826118b2565b9050602081019050919050565b6000819050602082019050919050565b600081519050919050565b600081519050919050565b6000602082019050919050565b600082825260208201905092915050565b600082825260208201905092915050565b600061167c8261172d565b91506116878361172d565b9250827fffffffffffffffffffffffffffffffffffffffffffffffffffffffffffffffff038211156116bc576116bb611825565b5b828201905092915050565b60006116d28261172d565b91506116dd8361172d565b9250828210156116f0576116ef611825565b5b828203905092915050565b60006117068261170d565b9050919050565b600073ffffffffffffffffffffffffffffffffffffffff82169050919050565b6000819050919050565b82818337600083830152505050565b60005b83811015611764578082015181840152602081019050611749565b83811115611773576000848401525b50505050565b6000600282049050600182168061179157607f821691505b602082108114156117a5576117a4611854565b5b50919050565b6117b4826118b2565b810181811067ffffffffffffffff821117156117d3576117d2611883565b5b80604052505050565b60006117e78261172d565b91507fffffffffffffffffffffffffffffffffffffffffffffffffffffffffffffffff82141561181a57611819611825565b5b600182019050919050565b7f4e487b7100000000000000000000000000000000000000000000000000000000600052601160045260246000fd5b7f4e487b7100000000000000000000000000000000000000000000000000000000600052602260045260246000fd5b7f4e487b7100000000000000000000000000000000000000000000000000000000600052604160045260246000fd5b6000601f19601f8301169050919050565b7f6973206e6f742061206d656d6265720000000000000000000000000000000000600082015250565b7f6f6e6c7920666f7220636f686f7274206d656d62657273000000000000000000600082015250565b7f6f6e6c7920666f722044616f0000000000000000000000000000000000000000600082015250565b7f636f686f72742069732066756c6c000000000000000000000000000000000000600082015250565b7f73657373696f6e206973206e6f74206f70656e00000000000000000000000000600082015250565b7f30302064617973206d696e696d756d0000000000000000000000000000000000600082015250565b6119c2816116fb565b81146119cd57600080fd5b50565b6119d98161172d565b81146119e457600080fd5b5056fea2646970667358221220ad0665bd2842dfbc9fd5c8f58a11525c22369a37f7702251df993f18b146e42564736f6c63430008040033",
  "linkReferences": {},
  "deployedLinkReferences": {}
}