{
  "_format": "hh-sol-artifact-1",
  "contractName": "Cohort",
  "sourceName": "contracts/Cohort.sol",
  "abi": [
    {
      "inputs": [
        {
          "internalType": "uint256",
          "name": "_id",
          "type": "uint256"
        },
        {
          "internalType": "string",
          "name": "_name",
          "type": "string"
        }
      ],
      "stateMutability": "nonpayable",
      "type": "constructor"
    },
    {
      "inputs": [
        {
          "internalType": "uint256",
          "name": "_id",
          "type": "uint256"
        },
        {
          "internalType": "string",
          "name": "_reflection",
          "type": "string"
        }
      ],
      "name": "attestSession",
      "outputs": [],
      "stateMutability": "nonpayable",
      "type": "function"
    },
    {
      "inputs": [
        {
          "internalType": "string",
          "name": "_date",
          "type": "string"
        }
      ],
      "name": "createSession",
      "outputs": [],
      "stateMutability": "nonpayable",
      "type": "function"
    },
    {
      "inputs": [],
      "name": "dao",
      "outputs": [
        {
          "internalType": "address",
          "name": "",
          "type": "address"
        }
      ],
      "stateMutability": "view",
      "type": "function"
    },
    {
      "inputs": [],
      "name": "getMembers",
      "outputs": [
        {
          "internalType": "address[]",
          "name": "",
          "type": "address[]"
        }
      ],
      "stateMutability": "view",
      "type": "function"
    },
    {
      "inputs": [],
      "name": "getSessions",
      "outputs": [
        {
          "components": [
            {
              "internalType": "uint256",
              "name": "id",
              "type": "uint256"
            },
            {
              "internalType": "string",
              "name": "date",
              "type": "string"
            },
            {
              "internalType": "enum Cohort.Status",
              "name": "status",
              "type": "uint8"
            },
            {
              "internalType": "string",
              "name": "reflection",
              "type": "string"
            },
            {
              "internalType": "uint256",
              "name": "membersCount",
              "type": "uint256"
            }
          ],
          "internalType": "struct Cohort.Session[]",
          "name": "",
          "type": "tuple[]"
        }
      ],
      "stateMutability": "view",
      "type": "function"
    },
    {
      "inputs": [],
      "name": "id",
      "outputs": [
        {
          "internalType": "uint256",
          "name": "",
          "type": "uint256"
        }
      ],
      "stateMutability": "view",
      "type": "function"
    },
    {
      "inputs": [
        {
          "internalType": "address",
          "name": "_subject",
          "type": "address"
        }
      ],
      "name": "join",
      "outputs": [],
      "stateMutability": "nonpayable",
      "type": "function"
    },
    {
      "inputs": [
        {
          "internalType": "address",
          "name": "_subject",
          "type": "address"
        }
      ],
      "name": "leave",
      "outputs": [],
      "stateMutability": "nonpayable",
      "type": "function"
    },
    {
      "inputs": [
        {
          "internalType": "uint256",
          "name": "",
          "type": "uint256"
        }
      ],
      "name": "members",
      "outputs": [
        {
          "internalType": "address",
          "name": "",
          "type": "address"
        }
      ],
      "stateMutability": "view",
      "type": "function"
    },
    {
      "inputs": [],
      "name": "name",
      "outputs": [
        {
          "internalType": "string",
          "name": "",
          "type": "string"
        }
      ],
      "stateMutability": "view",
      "type": "function"
    },
    {
      "inputs": [],
      "name": "sessionCount",
      "outputs": [
        {
          "internalType": "uint256",
          "name": "",
          "type": "uint256"
        }
      ],
      "stateMutability": "view",
      "type": "function"
    },
    {
      "inputs": [],
      "name": "sessionDayAndTime",
      "outputs": [
        {
          "internalType": "string",
          "name": "",
          "type": "string"
        }
      ],
      "stateMutability": "view",
      "type": "function"
    },
    {
      "inputs": [
        {
          "internalType": "string",
          "name": "_sessionDayAndTime",
          "type": "string"
        }
      ],
      "name": "setMeetingDayAndTime",
      "outputs": [],
      "stateMutability": "nonpayable",
      "type": "function"
    }
  ],
  "bytecode": "0x608060405260006001553480156200001657600080fd5b50604051620022813803806200228183398181016040528101906200003c9190620001de565b8160008190555080600290805190602001906200005b929190620000a5565b5033600360006101000a81548173ffffffffffffffffffffffffffffffffffffffff021916908373ffffffffffffffffffffffffffffffffffffffff1602179055505050620003cc565b828054620000b390620002d7565b90600052602060002090601f016020900481019282620000d7576000855562000123565b82601f10620000f257805160ff191683800117855562000123565b8280016001018555821562000123579182015b828111156200012257825182559160200191906001019062000105565b5b50905062000132919062000136565b5090565b5b808211156200015157600081600090555060010162000137565b5090565b60006200016c620001668462000261565b62000238565b9050828152602081018484840111156200018557600080fd5b62000192848285620002a1565b509392505050565b600082601f830112620001ac57600080fd5b8151620001be84826020860162000155565b91505092915050565b600081519050620001d881620003b2565b92915050565b60008060408385031215620001f257600080fd5b60006200020285828601620001c7565b925050602083015167ffffffffffffffff8111156200022057600080fd5b6200022e858286016200019a565b9150509250929050565b60006200024462000257565b90506200025282826200030d565b919050565b6000604051905090565b600067ffffffffffffffff8211156200027f576200027e62000372565b5b6200028a82620003a1565b9050602081019050919050565b6000819050919050565b60005b83811015620002c1578082015181840152602081019050620002a4565b83811115620002d1576000848401525b50505050565b60006002820490506001821680620002f057607f821691505b6020821081141562000307576200030662000343565b5b50919050565b6200031882620003a1565b810181811067ffffffffffffffff821117156200033a576200033962000372565b5b80604052505050565b7f4e487b7100000000000000000000000000000000000000000000000000000000600052602260045260246000fd5b7f4e487b7100000000000000000000000000000000000000000000000000000000600052604160045260246000fd5b6000601f19601f8301169050919050565b620003bd8162000297565b8114620003c957600080fd5b50565b611ea580620003dc6000396000f3fe608060405234801561001057600080fd5b50600436106100cf5760003560e01c80635daf08ca1161008c5780639eab5253116100665780639eab5253146101ec578063af640d0f1461020a578063b6a016d414610228578063bedf77a614610246576100cf565b80635daf08ca1461018057806361503e45146101b057806373cd8336146101ce576100cf565b80630657f4d4146100d457806306fdde03146100f057806312abb5bb1461010e5780631d0b28901461012a57806328ffe6c8146101465780634162169f14610162575b600080fd5b6100ee60048036038101906100e991906114e1565b610262565b005b6100f8610608565b604051610105919061189f565b60405180910390f35b61012860048036038101906101239190611477565b610696565b005b610144600480360381019061013f9190611477565b6108a8565b005b610160600480360381019061015b919061144e565b610945565b005b61016a610ac8565b6040516101779190611840565b60405180910390f35b61019a600480360381019061019591906114b8565b610aee565b6040516101a79190611840565b60405180910390f35b6101b8610b2d565b6040516101c5919061187d565b60405180910390f35b6101d6610d4b565b6040516101e39190611981565b60405180910390f35b6101f4610d51565b604051610201919061185b565b60405180910390f35b610212610ddf565b60405161021f9190611981565b60405180910390f35b610230610de5565b60405161023d919061189f565b60405180910390f35b610260600480360381019061025b919061144e565b610e73565b005b6000600660003373ffffffffffffffffffffffffffffffffffffffff1673ffffffffffffffffffffffffffffffffffffffff1681526020019081526020016000205414156102e5576040517f08c379a00000000000000000000000000000000000000000000000000000000081526004016102dc906118e1565b60405180910390fd5b6000600281111561031f577f4e487b7100000000000000000000000000000000000000000000000000000000600052602160045260246000fd5b60078381548110610359577f4e487b7100000000000000000000000000000000000000000000000000000000600052603260045260246000fd5b906000526020600020906005020160020160009054906101000a900460ff1660028111156103b0577f4e487b7100000000000000000000000000000000000000000000000000000000600052602160045260246000fd5b146103f0576040517f08c379a00000000000000000000000000000000000000000000000000000000081526004016103e790611941565b60405180910390fd5b60086000838152602001908152602001600020339080600181540180825580915050600190039060005260206000200160009091909190916101000a81548173ffffffffffffffffffffffffffffffffffffffff021916908373ffffffffffffffffffffffffffffffffffffffff16021790555060058054905060086000848152602001908152602001600020805490501415610604576001600783815481106104c3577f4e487b7100000000000000000000000000000000000000000000000000000000600052603260045260246000fd5b906000526020600020906005020160020160006101000a81548160ff0219169083600281111561051c577f4e487b7100000000000000000000000000000000000000000000000000000000600052602160045260246000fd5b0217905550806007838154811061055c577f4e487b7100000000000000000000000000000000000000000000000000000000600052603260045260246000fd5b9060005260206000209060050201600301908051906020019061058092919061128f565b50600360009054906101000a900473ffffffffffffffffffffffffffffffffffffffff1673ffffffffffffffffffffffffffffffffffffffff166308afd4fd6040518163ffffffff1660e01b8152600401600060405180830381600087803b1580156105eb57600080fd5b505af11580156105ff573d6000803e3d6000fd5b505050505b5050565b6002805461061590611bbe565b80601f016020809104026020016040519081016040528092919081815260200182805461064190611bbe565b801561068e5780601f106106635761010080835404028352916020019161068e565b820191906000526020600020905b81548152906001019060200180831161067157829003601f168201915b505050505081565b6000600660003373ffffffffffffffffffffffffffffffffffffffff1673ffffffffffffffffffffffffffffffffffffffff168152602001908152602001600020541415610719576040517f08c379a0000000000000000000000000000000000000000000000000000000008152600401610710906118e1565b60405180910390fd5b60076040518060a0016040528060015481526020018381526020016000600281111561076e577f4e487b7100000000000000000000000000000000000000000000000000000000600052602160045260246000fd5b815260200160405180602001604052806000815250815260200160058054905081525090806001815401808255809150506001900390600052602060002090600502016000909190919091506000820151816000015560208201518160010190805190602001906107e092919061128f565b5060408201518160020160006101000a81548160ff02191690836002811115610832577f4e487b7100000000000000000000000000000000000000000000000000000000600052602160045260246000fd5b0217905550606082015181600301908051906020019061085392919061128f565b50608082015181600401555050606080600860006001548152602001908152602001600020908051906020019061088b929190611315565b506001600081548092919061089f90611c21565b91905055505050565b6000600660003373ffffffffffffffffffffffffffffffffffffffff1673ffffffffffffffffffffffffffffffffffffffff16815260200190815260200160002054141561092b576040517f08c379a0000000000000000000000000000000000000000000000000000000008152600401610922906118e1565b60405180910390fd5b806004908051906020019061094192919061128f565b5050565b600360009054906101000a900473ffffffffffffffffffffffffffffffffffffffff1673ffffffffffffffffffffffffffffffffffffffff163373ffffffffffffffffffffffffffffffffffffffff16146109d5576040517f08c379a00000000000000000000000000000000000000000000000000000000081526004016109cc90611901565b60405180910390fd5b60076005805490501115610a1e576040517f08c379a0000000000000000000000000000000000000000000000000000000008152600401610a1590611921565b60405180910390fd5b6005819080600181540180825580915050600190039060005260206000200160009091909190916101000a81548173ffffffffffffffffffffffffffffffffffffffff021916908373ffffffffffffffffffffffffffffffffffffffff16021790555042600660008373ffffffffffffffffffffffffffffffffffffffff1673ffffffffffffffffffffffffffffffffffffffff1681526020019081526020016000208190555050565b600360009054906101000a900473ffffffffffffffffffffffffffffffffffffffff1681565b60058181548110610afe57600080fd5b906000526020600020016000915054906101000a900473ffffffffffffffffffffffffffffffffffffffff1681565b60606007805480602002602001604051908101604052809291908181526020016000905b82821015610d4257838290600052602060002090600502016040518060a001604052908160008201548152602001600182018054610b8e90611bbe565b80601f0160208091040260200160405190810160405280929190818152602001828054610bba90611bbe565b8015610c075780601f10610bdc57610100808354040283529160200191610c07565b820191906000526020600020905b815481529060010190602001808311610bea57829003601f168201915b505050505081526020016002820160009054906101000a900460ff166002811115610c5b577f4e487b7100000000000000000000000000000000000000000000000000000000600052602160045260246000fd5b6002811115610c93577f4e487b7100000000000000000000000000000000000000000000000000000000600052602160045260246000fd5b8152602001600382018054610ca790611bbe565b80601f0160208091040260200160405190810160405280929190818152602001828054610cd390611bbe565b8015610d205780601f10610cf557610100808354040283529160200191610d20565b820191906000526020600020905b815481529060010190602001808311610d0357829003601f168201915b5050505050815260200160048201548152505081526020019060010190610b51565b50505050905090565b60015481565b60606005805480602002602001604051908101604052809291908181526020018280548015610dd557602002820191906000526020600020905b8160009054906101000a900473ffffffffffffffffffffffffffffffffffffffff1673ffffffffffffffffffffffffffffffffffffffff1681526020019060010190808311610d8b575b5050505050905090565b60005481565b60048054610df290611bbe565b80601f0160208091040260200160405190810160405280929190818152602001828054610e1e90611bbe565b8015610e6b5780601f10610e4057610100808354040283529160200191610e6b565b820191906000526020600020905b815481529060010190602001808311610e4e57829003601f168201915b505050505081565b600360009054906101000a900473ffffffffffffffffffffffffffffffffffffffff1673ffffffffffffffffffffffffffffffffffffffff163373ffffffffffffffffffffffffffffffffffffffff1614610f03576040517f08c379a0000000000000000000000000000000000000000000000000000000008152600401610efa90611901565b60405180910390fd5b6000600660008373ffffffffffffffffffffffffffffffffffffffff1673ffffffffffffffffffffffffffffffffffffffff168152602001908152602001600020541415610f86576040517f08c379a0000000000000000000000000000000000000000000000000000000008152600401610f7d906118c1565b60405180910390fd5b426276a700600660008473ffffffffffffffffffffffffffffffffffffffff1673ffffffffffffffffffffffffffffffffffffffff16815260200190815260200160002054610fd59190611a91565b10611015576040517f08c379a000000000000000000000000000000000000000000000000000000000815260040161100c90611961565b60405180910390fd5b600660008273ffffffffffffffffffffffffffffffffffffffff1673ffffffffffffffffffffffffffffffffffffffff1681526020019081526020016000206000905560008060058054905090505b8082101561128a578273ffffffffffffffffffffffffffffffffffffffff16600583815481106110bd577f4e487b7100000000000000000000000000000000000000000000000000000000600052603260045260246000fd5b9060005260206000200160009054906101000a900473ffffffffffffffffffffffffffffffffffffffff1673ffffffffffffffffffffffffffffffffffffffff161415611277576005828154811061113e577f4e487b7100000000000000000000000000000000000000000000000000000000600052603260045260246000fd5b9060005260206000200160006101000a81549073ffffffffffffffffffffffffffffffffffffffff02191690556001816111789190611ae7565b821461127257600560018261118d9190611ae7565b815481106111c4577f4e487b7100000000000000000000000000000000000000000000000000000000600052603260045260246000fd5b9060005260206000200160009054906101000a900473ffffffffffffffffffffffffffffffffffffffff1660058381548110611229577f4e487b7100000000000000000000000000000000000000000000000000000000600052603260045260246000fd5b9060005260206000200160006101000a81548173ffffffffffffffffffffffffffffffffffffffff021916908373ffffffffffffffffffffffffffffffffffffffff1602179055505b61128a565b818061128290611c21565b925050611064565b505050565b82805461129b90611bbe565b90600052602060002090601f0160209004810192826112bd5760008555611304565b82601f106112d657805160ff1916838001178555611304565b82800160010185558215611304579182015b828111156113035782518255916020019190600101906112e8565b5b509050611311919061139f565b5090565b82805482825590600052602060002090810192821561138e579160200282015b8281111561138d5782518260006101000a81548173ffffffffffffffffffffffffffffffffffffffff021916908373ffffffffffffffffffffffffffffffffffffffff16021790555091602001919060010190611335565b5b50905061139b919061139f565b5090565b5b808211156113b85760008160009055506001016113a0565b5090565b60006113cf6113ca846119c1565b61199c565b9050828152602081018484840111156113e757600080fd5b6113f2848285611b7c565b509392505050565b60008135905061140981611e41565b92915050565b600082601f83011261142057600080fd5b81356114308482602086016113bc565b91505092915050565b60008135905061144881611e58565b92915050565b60006020828403121561146057600080fd5b600061146e848285016113fa565b91505092915050565b60006020828403121561148957600080fd5b600082013567ffffffffffffffff8111156114a357600080fd5b6114af8482850161140f565b91505092915050565b6000602082840312156114ca57600080fd5b60006114d884828501611439565b91505092915050565b600080604083850312156114f457600080fd5b600061150285828601611439565b925050602083013567ffffffffffffffff81111561151f57600080fd5b61152b8582860161140f565b9150509250929050565b60006115418383611561565b60208301905092915050565b600061155983836117a5565b905092915050565b61156a81611b1b565b82525050565b61157981611b1b565b82525050565b600061158a82611a12565b6115948185611a4d565b935061159f836119f2565b8060005b838110156115d05781516115b78882611535565b97506115c283611a33565b9250506001810190506115a3565b5085935050505092915050565b60006115e882611a1d565b6115f28185611a5e565b93508360208202850161160485611a02565b8060005b858110156116405784840389528151611621858261154d565b945061162c83611a40565b925060208a01995050600181019050611608565b50829750879550505050505092915050565b61165b81611b6a565b82525050565b600061166c82611a28565b6116768185611a6f565b9350611686818560208601611b8b565b61168f81611d26565b840191505092915050565b60006116a582611a28565b6116af8185611a80565b93506116bf818560208601611b8b565b6116c881611d26565b840191505092915050565b60006116e0600f83611a80565b91506116eb82611d37565b602082019050919050565b6000611703601783611a80565b915061170e82611d60565b602082019050919050565b6000611726600c83611a80565b915061173182611d89565b602082019050919050565b6000611749600e83611a80565b915061175482611db2565b602082019050919050565b600061176c601383611a80565b915061177782611ddb565b602082019050919050565b600061178f600f83611a80565b915061179a82611e04565b602082019050919050565b600060a0830160008301516117bd6000860182611822565b50602083015184820360208601526117d58282611661565b91505060408301516117ea6040860182611652565b50606083015184820360608601526118028282611661565b91505060808301516118176080860182611822565b508091505092915050565b61182b81611b60565b82525050565b61183a81611b60565b82525050565b60006020820190506118556000830184611570565b92915050565b60006020820190508181036000830152611875818461157f565b905092915050565b6000602082019050818103600083015261189781846115dd565b905092915050565b600060208201905081810360008301526118b9818461169a565b905092915050565b600060208201905081810360008301526118da816116d3565b9050919050565b600060208201905081810360008301526118fa816116f6565b9050919050565b6000602082019050818103600083015261191a81611719565b9050919050565b6000602082019050818103600083015261193a8161173c565b9050919050565b6000602082019050818103600083015261195a8161175f565b9050919050565b6000602082019050818103600083015261197a81611782565b9050919050565b60006020820190506119966000830184611831565b92915050565b60006119a66119b7565b90506119b28282611bf0565b919050565b6000604051905090565b600067ffffffffffffffff8211156119dc576119db611cf7565b5b6119e582611d26565b9050602081019050919050565b6000819050602082019050919050565b6000819050602082019050919050565b600081519050919050565b600081519050919050565b600081519050919050565b6000602082019050919050565b6000602082019050919050565b600082825260208201905092915050565b600082825260208201905092915050565b600082825260208201905092915050565b600082825260208201905092915050565b6000611a9c82611b60565b9150611aa783611b60565b9250827fffffffffffffffffffffffffffffffffffffffffffffffffffffffffffffffff03821115611adc57611adb611c6a565b5b828201905092915050565b6000611af282611b60565b9150611afd83611b60565b925082821015611b1057611b0f611c6a565b5b828203905092915050565b6000611b2682611b40565b9050919050565b6000819050611b3b82611e2d565b919050565b600073ffffffffffffffffffffffffffffffffffffffff82169050919050565b6000819050919050565b6000611b7582611b2d565b9050919050565b82818337600083830152505050565b60005b83811015611ba9578082015181840152602081019050611b8e565b83811115611bb8576000848401525b50505050565b60006002820490506001821680611bd657607f821691505b60208210811415611bea57611be9611cc8565b5b50919050565b611bf982611d26565b810181811067ffffffffffffffff82111715611c1857611c17611cf7565b5b80604052505050565b6000611c2c82611b60565b91507fffffffffffffffffffffffffffffffffffffffffffffffffffffffffffffffff821415611c5f57611c5e611c6a565b5b600182019050919050565b7f4e487b7100000000000000000000000000000000000000000000000000000000600052601160045260246000fd5b7f4e487b7100000000000000000000000000000000000000000000000000000000600052602160045260246000fd5b7f4e487b7100000000000000000000000000000000000000000000000000000000600052602260045260246000fd5b7f4e487b7100000000000000000000000000000000000000000000000000000000600052604160045260246000fd5b6000601f19601f8301169050919050565b7f6973206e6f742061206d656d6265720000000000000000000000000000000000600082015250565b7f6f6e6c7920666f7220636f686f7274206d656d62657273000000000000000000600082015250565b7f6f6e6c7920666f722044616f0000000000000000000000000000000000000000600082015250565b7f636f686f72742069732066756c6c000000000000000000000000000000000000600082015250565b7f73657373696f6e206973206e6f74206f70656e00000000000000000000000000600082015250565b7f30302064617973206d696e696d756d0000000000000000000000000000000000600082015250565b60038110611e3e57611e3d611c99565b5b50565b611e4a81611b1b565b8114611e5557600080fd5b50565b611e6181611b60565b8114611e6c57600080fd5b5056fea26469706673582212200c3291e346ae2e323ef9aa3f5f2537180064d8e0127b61962ca60ca853bb0b0064736f6c63430008040033",
  "linkReferences": {},
  "deployedLinkReferences": {}
}